{
  "contractName": "Dispenser",
  "abi": [
    {
      "inputs": [
        {
          "internalType": "contract IERC20",
          "name": "tokenAddress",
          "type": "address"
        },
        {
          "internalType": "uint256",
          "name": "perMonth",
          "type": "uint256"
        },
        {
          "internalType": "address",
          "name": "rec",
          "type": "address"
        }
      ],
      "stateMutability": "nonpayable",
      "type": "constructor"
    },
    {
      "anonymous": false,
      "inputs": [
        {
          "indexed": false,
          "internalType": "uint256",
          "name": "value",
          "type": "uint256"
        }
      ],
      "name": "FundsReceived",
      "type": "event"
    },
    {
      "anonymous": false,
      "inputs": [
        {
          "indexed": false,
          "internalType": "address",
          "name": "wallet",
          "type": "address"
        },
        {
          "indexed": false,
          "internalType": "uint256",
          "name": "value",
          "type": "uint256"
        }
      ],
      "name": "FundsSentToRecipient",
      "type": "event"
    },
    {
      "inputs": [],
      "name": "balance",
      "outputs": [
        {
          "internalType": "uint256",
          "name": "",
          "type": "uint256"
        }
      ],
      "stateMutability": "view",
      "type": "function"
    },
    {
      "inputs": [],
      "name": "lastWithdrawalTime",
      "outputs": [
        {
          "internalType": "uint256",
          "name": "",
          "type": "uint256"
        }
      ],
      "stateMutability": "view",
      "type": "function"
    },
    {
      "inputs": [],
      "name": "totalWithdrawed",
      "outputs": [
        {
          "internalType": "uint256",
          "name": "",
          "type": "uint256"
        }
      ],
      "stateMutability": "view",
      "type": "function"
    },
    {
      "inputs": [
        {
          "internalType": "uint256",
          "name": "amount",
          "type": "uint256"
        }
      ],
      "name": "receiveTokens",
      "outputs": [],
      "stateMutability": "nonpayable",
      "type": "function"
    },
    {
      "inputs": [],
      "name": "withdraw",
      "outputs": [],
      "stateMutability": "nonpayable",
      "type": "function"
    }
  ],
  "bytecode": "0x60806040523480156200001157600080fd5b5060405162000ce038038062000ce083398181016040528101906200003791906200015f565b33600260006101000a81548173ffffffffffffffffffffffffffffffffffffffff021916908373ffffffffffffffffffffffffffffffffffffffff16021790555081600081905550600060058190555080600360006101000a81548173ffffffffffffffffffffffffffffffffffffffff021916908373ffffffffffffffffffffffffffffffffffffffff160217905550600060018190555082600460006101000a81548173ffffffffffffffffffffffffffffffffffffffff021916908373ffffffffffffffffffffffffffffffffffffffff16021790555050505062000255565b6000815190506200012b8162000207565b92915050565b600081519050620001428162000221565b92915050565b60008151905062000159816200023b565b92915050565b6000806000606084860312156200017557600080fd5b6000620001858682870162000131565b9350506020620001988682870162000148565b9250506040620001ab868287016200011a565b9150509250925092565b6000620001c282620001dd565b9050919050565b6000620001d682620001b5565b9050919050565b600073ffffffffffffffffffffffffffffffffffffffff82169050919050565b6000819050919050565b6200021281620001b5565b81146200021e57600080fd5b50565b6200022c81620001c9565b81146200023857600080fd5b50565b6200024681620001fd565b81146200025257600080fd5b50565b610a7b80620002656000396000f3fe608060405234801561001057600080fd5b50600436106100575760003560e01c806334a014dc1461005c5780633ccfd60b1461007a578063743e0c9b14610084578063b69ef8a8146100a0578063b74126cc146100be575b600080fd5b6100646100dc565b6040516100719190610898565b60405180910390f35b6100826100e2565b005b61009e60048036038101906100999190610727565b6103d9565b005b6100a86106b3565b6040516100b59190610898565b60405180910390f35b6100c66106b9565b6040516100d39190610898565b60405180910390f35b60055481565b600260009054906101000a900473ffffffffffffffffffffffffffffffffffffffff1673ffffffffffffffffffffffffffffffffffffffff163373ffffffffffffffffffffffffffffffffffffffff161461013c57600080fd5b6000600460009054906101000a900473ffffffffffffffffffffffffffffffffffffffff1673ffffffffffffffffffffffffffffffffffffffff166370a08231306040518263ffffffff1660e01b815260040161019991906107dd565b60206040518083038186803b1580156101b157600080fd5b505afa1580156101c5573d6000803e3d6000fd5b505050506040513d601f19601f820116820180604052508101906101e99190610750565b9050600081116101f857600080fd5b62278d0060055461020991906108c4565b421161021457600080fd5b600081600054106102255781610229565b6000545b90506000600460009054906101000a900473ffffffffffffffffffffffffffffffffffffffff1673ffffffffffffffffffffffffffffffffffffffff1663a9059cbb600360009054906101000a900473ffffffffffffffffffffffffffffffffffffffff16846040518363ffffffff1660e01b81526004016102ac92919061082f565b602060405180830381600087803b1580156102c657600080fd5b505af11580156102da573d6000803e3d6000fd5b505050506040513d601f19601f820116820180604052508101906102fe91906106fe565b905080610340576040517f08c379a000000000000000000000000000000000000000000000000000000000815260040161033790610878565b60405180910390fd5b7f3bfe81dec3f91b4f148acb63cf0044cf5f14ec020bf957f38b377e854293ebe4600360009054906101000a900473ffffffffffffffffffffffffffffffffffffffff168360405161039392919061082f565b60405180910390a181600660008282546103ad91906108c4565b925050819055504260058190555081600160008282546103cd919061091a565b92505081905550505050565b600260009054906101000a900473ffffffffffffffffffffffffffffffffffffffff1673ffffffffffffffffffffffffffffffffffffffff163373ffffffffffffffffffffffffffffffffffffffff161461043357600080fd5b6000600460009054906101000a900473ffffffffffffffffffffffffffffffffffffffff1673ffffffffffffffffffffffffffffffffffffffff166370a08231600260009054906101000a900473ffffffffffffffffffffffffffffffffffffffff166040518263ffffffff1660e01b81526004016104b291906107dd565b60206040518083038186803b1580156104ca57600080fd5b505afa1580156104de573d6000803e3d6000fd5b505050506040513d601f19601f820116820180604052508101906105029190610750565b905080821115610547576040517f08c379a000000000000000000000000000000000000000000000000000000000815260040161053e90610858565b60405180910390fd5b6000600460009054906101000a900473ffffffffffffffffffffffffffffffffffffffff1673ffffffffffffffffffffffffffffffffffffffff166323b872dd600260009054906101000a900473ffffffffffffffffffffffffffffffffffffffff1630866040518463ffffffff1660e01b81526004016105ca939291906107f8565b602060405180830381600087803b1580156105e457600080fd5b505af11580156105f8573d6000803e3d6000fd5b505050506040513d601f19601f8201168201806040525081019061061c91906106fe565b90508061065e576040517f08c379a000000000000000000000000000000000000000000000000000000000815260040161065590610878565b60405180910390fd5b826001600082825461067091906108c4565b925050819055507fbcdc7071c1beb6dcf2744621e0b29a2f2432ee20812d9ca5e3d5e8f9308d93a3836040516106a69190610898565b60405180910390a1505050565b60015481565b60065481565b6000815190506106ce81610a17565b92915050565b6000813590506106e381610a2e565b92915050565b6000815190506106f881610a2e565b92915050565b60006020828403121561071057600080fd5b600061071e848285016106bf565b91505092915050565b60006020828403121561073957600080fd5b6000610747848285016106d4565b91505092915050565b60006020828403121561076257600080fd5b6000610770848285016106e9565b91505092915050565b6107828161094e565b82525050565b60006107956012836108b3565b91506107a0826109c5565b602082019050919050565b60006107b86015836108b3565b91506107c3826109ee565b602082019050919050565b6107d78161098c565b82525050565b60006020820190506107f26000830184610779565b92915050565b600060608201905061080d6000830186610779565b61081a6020830185610779565b61082760408301846107ce565b949350505050565b60006040820190506108446000830185610779565b61085160208301846107ce565b9392505050565b6000602082019050818103600083015261087181610788565b9050919050565b60006020820190508181036000830152610891816107ab565b9050919050565b60006020820190506108ad60008301846107ce565b92915050565b600082825260208201905092915050565b60006108cf8261098c565b91506108da8361098c565b9250827fffffffffffffffffffffffffffffffffffffffffffffffffffffffffffffffff0382111561090f5761090e610996565b5b828201905092915050565b60006109258261098c565b91506109308361098c565b92508282101561094357610942610996565b5b828203905092915050565b60006109598261096c565b9050919050565b60008115159050919050565b600073ffffffffffffffffffffffffffffffffffffffff82169050919050565b6000819050919050565b7f4e487b7100000000000000000000000000000000000000000000000000000000600052601160045260246000fd5b7f496e73756666696369656e742066756e64730000000000000000000000000000600082015250565b7f4661696c656420746f2073656e6420746f6b656e730000000000000000000000600082015250565b610a2081610960565b8114610a2b57600080fd5b50565b610a378161098c565b8114610a4257600080fd5b5056fea2646970667358221220a4f28f2a852dd983e397dc183bb2a83fba2e38f53debd8f152b352d4401838e164736f6c63430008040033",
  "immutableReferences": {},
  "source": "import \"@openzeppelin/contracts/token/ERC20/utils/SafeERC20.sol\";\n\ncontract Dispenser {\n  uint maxValue;\n  uint public balance;\n  address owner;\n  address recipient;\n  IERC20 token;\n  uint public lastWithdrawalTime;\n  uint public totalWithdrawed;\n\n  event FundsSentToRecipient(address wallet, uint value);\n  event FundsReceived(uint value);\n\n  modifier onlyOwner {\n    require(msg.sender == owner);\n    _;\n  }\n\n  constructor(IERC20 tokenAddress, uint perMonth, address rec) {\n    owner = payable(msg.sender);\n    maxValue = perMonth;\n    lastWithdrawalTime = 0;\n    recipient = rec;\n    balance = 0;\n    token = tokenAddress;\n  }\n\n  function receiveTokens(uint amount) external onlyOwner {\n    uint erc20balance = token.balanceOf(owner);\n    require(amount <= erc20balance, \"Insufficient funds\");\n    bool sent = token.transferFrom(owner, address(this), amount);\n    require(sent, \"Failed to send tokens\");\n    balance += amount;\n    emit FundsReceived(amount);\n  }\n\n  function withdraw() public onlyOwner {\n    uint256 erc20balance = token.balanceOf(address(this));\n    require(erc20balance > 0);\n    require(block.timestamp > lastWithdrawalTime + 30 days);\n    uint value = maxValue < erc20balance ? maxValue : erc20balance;\n    bool sent = token.transfer(recipient, value);\n    require(sent, \"Failed to send tokens\");\n    emit FundsSentToRecipient(recipient, value);\n    totalWithdrawed += value;\n    lastWithdrawalTime = block.timestamp;\n    balance -= value;\n  }\n}\n\n",
  "sourcePath": "/Users/kovalas/Solidity/Legacy/contracts/Dispenser.sol",
  "compiler": {
    "name": "solc",
    "version": "0.8.4+commit.c7e474f2.Emscripten.clang"
  },
  "schemaVersion": "3.4.9",
  "updatedAt": "2022-10-16T00:50:35.891Z",
  "devdoc": {
    "kind": "dev",
    "methods": {},
    "version": 1
  },
  "userdoc": {
    "kind": "user",
    "methods": {},
    "version": 1
  }
}