{
  "contractName": "Factory",
  "abi": [
    {
      "inputs": [
        {
          "internalType": "address",
          "name": "",
          "type": "address"
        }
      ],
      "name": "contractNames",
      "outputs": [
        {
          "internalType": "string",
          "name": "",
          "type": "string"
        }
      ],
      "stateMutability": "view",
      "type": "function"
    },
    {
      "inputs": [
        {
          "internalType": "address",
          "name": "",
          "type": "address"
        }
      ],
      "name": "contractToSuccessorNumber",
      "outputs": [
        {
          "internalType": "uint256",
          "name": "",
          "type": "uint256"
        }
      ],
      "stateMutability": "view",
      "type": "function"
    },
    {
      "inputs": [
        {
          "internalType": "address",
          "name": "",
          "type": "address"
        },
        {
          "internalType": "uint256",
          "name": "",
          "type": "uint256"
        }
      ],
      "name": "contractToSuccessors",
      "outputs": [
        {
          "internalType": "address",
          "name": "",
          "type": "address"
        }
      ],
      "stateMutability": "view",
      "type": "function"
    },
    {
      "inputs": [
        {
          "internalType": "address",
          "name": "",
          "type": "address"
        },
        {
          "internalType": "uint256",
          "name": "",
          "type": "uint256"
        }
      ],
      "name": "ownerToContracts",
      "outputs": [
        {
          "internalType": "address",
          "name": "",
          "type": "address"
        }
      ],
      "stateMutability": "view",
      "type": "function"
    },
    {
      "inputs": [
        {
          "internalType": "address",
          "name": "",
          "type": "address"
        }
      ],
      "name": "ownerToContractsNumber",
      "outputs": [
        {
          "internalType": "uint256",
          "name": "",
          "type": "uint256"
        }
      ],
      "stateMutability": "view",
      "type": "function"
    },
    {
      "inputs": [
        {
          "internalType": "address",
          "name": "",
          "type": "address"
        },
        {
          "internalType": "uint256",
          "name": "",
          "type": "uint256"
        }
      ],
      "name": "successorToContracts",
      "outputs": [
        {
          "internalType": "address",
          "name": "",
          "type": "address"
        }
      ],
      "stateMutability": "view",
      "type": "function"
    },
    {
      "inputs": [
        {
          "internalType": "address",
          "name": "",
          "type": "address"
        }
      ],
      "name": "successorToContractsNumber",
      "outputs": [
        {
          "internalType": "uint256",
          "name": "",
          "type": "uint256"
        }
      ],
      "stateMutability": "view",
      "type": "function"
    },
    {
      "inputs": [
        {
          "internalType": "string",
          "name": "name",
          "type": "string"
        },
        {
          "internalType": "address",
          "name": "token",
          "type": "address"
        },
        {
          "internalType": "uint256",
          "name": "daysToRelease",
          "type": "uint256"
        }
      ],
      "name": "create",
      "outputs": [],
      "stateMutability": "nonpayable",
      "type": "function"
    },
    {
      "inputs": [
        {
          "internalType": "address",
          "name": "contractAddress",
          "type": "address"
        },
        {
          "components": [
            {
              "internalType": "string",
              "name": "name",
              "type": "string"
            },
            {
              "internalType": "uint256",
              "name": "share",
              "type": "uint256"
            },
            {
              "internalType": "address",
              "name": "wallet",
              "type": "address"
            },
            {
              "internalType": "contract Dispenser",
              "name": "dispenser",
              "type": "address"
            },
            {
              "internalType": "uint256",
              "name": "maxPerMonth",
              "type": "uint256"
            },
            {
              "internalType": "bool",
              "name": "fundsBeenReleased",
              "type": "bool"
            }
          ],
          "internalType": "struct Successor[]",
          "name": "newSuccessors",
          "type": "tuple[]"
        }
      ],
      "name": "setSuccessors",
      "outputs": [],
      "stateMutability": "nonpayable",
      "type": "function"
    }
  ],
  "bytecode": "0x608060405234801561001057600080fd5b50614e5e806100206000396000f3fe60806040523480156200001157600080fd5b5060043610620000a05760003560e01c80638acf9940116200006f5780638acf99401462000167578063b5917336146200019d578063cb05c64014620001bd578063d21f08f314620001f3578063f188ced5146200022957620000a0565b80631f80b87214620000a55780633bb8470c14620000db5780636a1972bd14620000fb578063792b093c1462000131575b600080fd5b620000c36004803603810190620000bd919062000d02565b6200025f565b604051620000d291906200113e565b60405180910390f35b620000f96004803603810190620000f3919062000d2e565b62000307565b005b62000119600480360381019062000113919062000d8c565b620007fc565b604051620001289190620010fb565b60405180910390f35b6200014f600480360381019062000149919062000d8c565b6200084b565b6040516200015e9190620010fb565b60405180910390f35b6200018560048036038101906200017f919062000d02565b6200089a565b60405162000194919062001184565b60405180910390f35b620001bb6004803603810190620001b5919062000dcd565b620008b2565b005b620001db6004803603810190620001d5919062000d02565b62000a40565b604051620001ea919062001184565b60405180910390f35b6200021160048036038101906200020b919062000d8c565b62000a58565b604051620002209190620010fb565b60405180910390f35b62000247600480360381019062000241919062000d02565b62000aa7565b60405162000256919062001184565b60405180910390f35b60066020528060005260406000206000915090508054620002809062001469565b80601f0160208091040260200160405190810160405280929190818152602001828054620002ae9062001469565b8015620002ff5780601f10620002d357610100808354040283529160200191620002ff565b820191906000526020600020905b815481529060010190602001808311620002e157829003601f168201915b505050505081565b6000808473ffffffffffffffffffffffffffffffffffffffff1684846040516024016200033692919062001118565b6040516020818303038152906040527f146eb615000000000000000000000000000000000000000000000000000000007bffffffffffffffffffffffffffffffffffffffffffffffffffffffff19166020820180517bffffffffffffffffffffffffffffffffffffffffffffffffffffffff8381831617835250505050604051620003c29190620010e2565b600060405180830381855af49150503d8060008114620003ff576040519150601f19603f3d011682016040523d82523d6000602084013e62000404565b606091505b5091509150816200044c576040517f08c379a0000000000000000000000000000000000000000000000000000000008152600401620004439062001162565b60405180910390fd5b600067ffffffffffffffff8111156200048e577f4e487b7100000000000000000000000000000000000000000000000000000000600052604160045260246000fd5b604051908082528060200260200182016040528015620004bd5781602001602082028036833780820191505090505b50600460008773ffffffffffffffffffffffffffffffffffffffff1673ffffffffffffffffffffffffffffffffffffffff16815260200190815260200160002090805190602001906200051292919062000abf565b5060005b84849050811015620007f457600460008773ffffffffffffffffffffffffffffffffffffffff1673ffffffffffffffffffffffffffffffffffffffff1681526020019081526020016000208585838181106200059b577f4e487b7100000000000000000000000000000000000000000000000000000000600052603260045260246000fd5b9050602002810190620005af9190620011ce565b6040016020810190620005c3919062000d02565b9080600181540180825580915050600190039060005260206000200160009091909190916101000a81548173ffffffffffffffffffffffffffffffffffffffff021916908373ffffffffffffffffffffffffffffffffffffffff1602179055506002600086868481811062000661577f4e487b7100000000000000000000000000000000000000000000000000000000600052603260045260246000fd5b9050602002810190620006759190620011ce565b604001602081019062000689919062000d02565b73ffffffffffffffffffffffffffffffffffffffff1673ffffffffffffffffffffffffffffffffffffffff168152602001908152602001600020869080600181540180825580915050600190039060005260206000200160009091909190916101000a81548173ffffffffffffffffffffffffffffffffffffffff021916908373ffffffffffffffffffffffffffffffffffffffff16021790555060016003600087878581811062000764577f4e487b7100000000000000000000000000000000000000000000000000000000600052603260045260246000fd5b9050602002810190620007789190620011ce565b60400160208101906200078c919062000d02565b73ffffffffffffffffffffffffffffffffffffffff1673ffffffffffffffffffffffffffffffffffffffff1681526020019081526020016000206000828254620007d7919062001341565b925050819055508080620007eb906200149f565b91505062000516565b505050505050565b600060205281600052604060002081815481106200081957600080fd5b906000526020600020016000915091509054906101000a900473ffffffffffffffffffffffffffffffffffffffff1681565b600460205281600052604060002081815481106200086857600080fd5b906000526020600020016000915091509054906101000a900473ffffffffffffffffffffffffffffffffffffffff1681565b60036020528060005260406000206000915090505481565b60008183604051620008c49062000b4e565b620008d1929190620011a1565b604051809103906000f080158015620008ee573d6000803e3d6000fd5b5090508484600660008473ffffffffffffffffffffffffffffffffffffffff1673ffffffffffffffffffffffffffffffffffffffff16815260200190815260200160002091906200094192919062000b5c565b506000803373ffffffffffffffffffffffffffffffffffffffff1673ffffffffffffffffffffffffffffffffffffffff168152602001908152602001600020819080600181540180825580915050600190039060005260206000200160009091909190916101000a81548173ffffffffffffffffffffffffffffffffffffffff021916908373ffffffffffffffffffffffffffffffffffffffff16021790555060018060003373ffffffffffffffffffffffffffffffffffffffff1673ffffffffffffffffffffffffffffffffffffffff168152602001908152602001600020600082825462000a32919062001341565b925050819055505050505050565b60016020528060005260406000206000915090505481565b6002602052816000526040600020818154811062000a7557600080fd5b906000526020600020016000915091509054906101000a900473ffffffffffffffffffffffffffffffffffffffff1681565b60056020528060005260406000206000915090505481565b82805482825590600052602060002090810192821562000b3b579160200282015b8281111562000b3a5782518260006101000a81548173ffffffffffffffffffffffffffffffffffffffff021916908373ffffffffffffffffffffffffffffffffffffffff1602179055509160200191906001019062000ae0565b5b50905062000b4a919062000bed565b5090565b61383b80620015ee83390190565b82805462000b6a9062001469565b90600052602060002090601f01602090048101928262000b8e576000855562000bda565b82601f1062000ba957803560ff191683800117855562000bda565b8280016001018555821562000bda579182015b8281111562000bd957823582559160200191906001019062000bbc565b5b50905062000be9919062000bed565b5090565b5b8082111562000c0857600081600090555060010162000bee565b5090565b60008135905062000c1d8162001585565b92915050565b60008083601f84011262000c3657600080fd5b8235905067ffffffffffffffff81111562000c5057600080fd5b60208301915083602082028301111562000c6957600080fd5b9250929050565b60008135905062000c81816200159f565b92915050565b60008135905062000c9881620015b9565b92915050565b60008083601f84011262000cb157600080fd5b8235905067ffffffffffffffff81111562000ccb57600080fd5b60208301915083600182028301111562000ce457600080fd5b9250929050565b60008135905062000cfc81620015d3565b92915050565b60006020828403121562000d1557600080fd5b600062000d258482850162000c0c565b91505092915050565b60008060006040848603121562000d4457600080fd5b600062000d548682870162000c0c565b935050602084013567ffffffffffffffff81111562000d7257600080fd5b62000d808682870162000c23565b92509250509250925092565b6000806040838503121562000da057600080fd5b600062000db08582860162000c0c565b925050602062000dc38582860162000ceb565b9150509250929050565b6000806000806060858703121562000de457600080fd5b600085013567ffffffffffffffff81111562000dff57600080fd5b62000e0d8782880162000c9e565b9450945050602062000e228782880162000c0c565b925050604062000e358782880162000ceb565b91505092959194509250565b600062000e4f838362000fed565b905092915050565b62000e62816200139e565b82525050565b62000e73816200139e565b82525050565b600062000e87838562001220565b93508360208402850162000e9b84620011f3565b8060005b8781101562000ee757848403895262000eb9828462001303565b62000ec5858262000e41565b945062000ed28362001213565b925060208a0199505060018101905062000e9f565b50829750879450505050509392505050565b62000f0481620013b2565b82525050565b600062000f1782620011fd565b62000f23818562001231565b935062000f3581856020860162001433565b80840191505092915050565b62000f4c81620013fc565b82525050565b600062000f6083856200123c565b935062000f6f83858462001424565b62000f7a836200154b565b840190509392505050565b600062000f928262001208565b62000f9e81856200124d565b935062000fb081856020860162001433565b62000fbb816200154b565b840191505092915050565b600062000fd56015836200124d565b915062000fe2826200155c565b602082019050919050565b600060c08301620010026000840184620012a9565b85830360008701526200101783828462000f52565b925050506200102a602084018462001328565b620010396020860182620010c0565b506200104960408401846200125e565b62001058604086018262000e57565b5062001068606084018462001290565b62001077606086018262000f41565b5062001087608084018462001328565b620010966080860182620010c0565b50620010a660a084018462001277565b620010b560a086018262000ef9565b508091505092915050565b620010cb81620013f2565b82525050565b620010dc81620013f2565b82525050565b6000620010f0828462000f0a565b915081905092915050565b600060208201905062001112600083018462000e68565b92915050565b600060208201905081810360008301526200113581848662000e79565b90509392505050565b600060208201905081810360008301526200115a818462000f85565b905092915050565b600060208201905081810360008301526200117d8162000fc6565b9050919050565b60006020820190506200119b6000830184620010d1565b92915050565b6000604082019050620011b86000830185620010d1565b620011c7602083018462000e68565b9392505050565b60008235600160c003833603038112620011e757600080fd5b80830191505092915050565b6000819050919050565b600081519050919050565b600081519050919050565b6000602082019050919050565b600082825260208201905092915050565b600081905092915050565b600082825260208201905092915050565b600082825260208201905092915050565b60006200126f602084018462000c0c565b905092915050565b600062001288602084018462000c70565b905092915050565b6000620012a1602084018462000c87565b905092915050565b60008083356001602003843603038112620012c357600080fd5b83810192508235915060208301925067ffffffffffffffff821115620012e857600080fd5b600182023603841315620012fb57600080fd5b509250929050565b60008235600160c0038336030381126200131c57600080fd5b82810191505092915050565b600062001339602084018462000ceb565b905092915050565b60006200134e82620013f2565b91506200135b83620013f2565b9250827fffffffffffffffffffffffffffffffffffffffffffffffffffffffffffffffff03821115620013935762001392620014ed565b5b828201905092915050565b6000620013ab82620013d2565b9050919050565b60008115159050919050565b6000620013cb826200139e565b9050919050565b600073ffffffffffffffffffffffffffffffffffffffff82169050919050565b6000819050919050565b6000620014098262001410565b9050919050565b60006200141d82620013d2565b9050919050565b82818337600083830152505050565b60005b838110156200145357808201518184015260208101905062001436565b8381111562001463576000848401525b50505050565b600060028204905060018216806200148257607f821691505b602082108114156200149957620014986200151c565b5b50919050565b6000620014ac82620013f2565b91507fffffffffffffffffffffffffffffffffffffffffffffffffffffffffffffffff821415620014e257620014e1620014ed565b5b600182019050919050565b7f4e487b7100000000000000000000000000000000000000000000000000000000600052601160045260246000fd5b7f4e487b7100000000000000000000000000000000000000000000000000000000600052602260045260246000fd5b6000601f19601f8301169050919050565b7f63616e6e6f742073657420737563636573736f72730000000000000000000000600082015250565b62001590816200139e565b81146200159c57600080fd5b50565b620015aa81620013b2565b8114620015b657600080fd5b50565b620015c481620013be565b8114620015d057600080fd5b50565b620015de81620013f2565b8114620015ea57600080fd5b5056fe60806040523480156200001157600080fd5b506040516200383b3803806200383b833981810160405281019062000037919062000126565b336000806101000a81548173ffffffffffffffffffffffffffffffffffffffff021916908373ffffffffffffffffffffffffffffffffffffffff16021790555080600160006101000a81548173ffffffffffffffffffffffffffffffffffffffff021916908373ffffffffffffffffffffffffffffffffffffffff16021790555060006002819055506000600660006101000a81548163ffffffff021916908363ffffffff16021790555042600381905550816004819055505050620001d9565b6000815190506200010981620001a5565b92915050565b6000815190506200012081620001bf565b92915050565b600080604083850312156200013a57600080fd5b60006200014a858286016200010f565b92505060206200015d85828601620000f8565b9150509250929050565b600062000174826200017b565b9050919050565b600073ffffffffffffffffffffffffffffffffffffffff82169050919050565b6000819050919050565b620001b08162000167565b8114620001bc57600080fd5b50565b620001ca816200019b565b8114620001d657600080fd5b50565b61365280620001e96000396000f3fe608060405260043610620000fe5760003560e01c80639640b69b1162000097578063dc33a8411162000061578063dc33a84114620002fe578063dd49756e1462000318578063e60a74e91462000346578063f9f8c7d7146200037657620000fe565b80639640b69b1462000264578063c5e697141462000292578063cefd35bc14620002c2578063d0e30db014620002f257620000fe565b8063315a095d11620000d9578063315a095d14620001a35780635e93bdbe14620001d1578063733a798c146200020157806386d9c9a8146200021b57620000fe565b806312167bf41462000103578063146eb61514620001475780632e1a7d4d1462000175575b600080fd5b3480156200011057600080fd5b506200012f60048036038101906200012991906200182f565b62000390565b6040516200013e919062001c0b565b60405180910390f35b3480156200015457600080fd5b506200017360048036038101906200016d91906200185b565b620003b0565b005b3480156200018257600080fd5b50620001a160048036038101906200019b9190620018fc565b6200089a565b005b348015620001b057600080fd5b50620001cf6004803603810190620001c99190620018fc565b620009cd565b005b348015620001de57600080fd5b50620001e962000c96565b604051620001f8919062001d61565b60405180910390f35b3480156200020e57600080fd5b506200021962000c9c565b005b3480156200022857600080fd5b50620002476004803603810190620002419190620018d0565b620010de565b6040516200025b9695949392919062001c65565b60405180910390f35b3480156200027157600080fd5b506200029060048036038101906200028a9190620018fc565b620011f7565b005b3480156200029f57600080fd5b50620002aa6200125a565b604051620002b9919062001d61565b60405180910390f35b348015620002cf57600080fd5b50620002da62001260565b604051620002e9919062001d61565b60405180910390f35b620002fc620012c4565b005b3480156200030b57600080fd5b506200031662001358565b005b3480156200032557600080fd5b506200034460048036038101906200033e9190620018fc565b620013ba565b005b3480156200035357600080fd5b506200035e620016a5565b6040516200036d919062001c0b565b60405180910390f35b3480156200038357600080fd5b506200038e62001707565b005b60086020528060005260406000206000915054906101000a900460ff1681565b60008054906101000a900473ffffffffffffffffffffffffffffffffffffffff1673ffffffffffffffffffffffffffffffffffffffff163373ffffffffffffffffffffffffffffffffffffffff16146200040957600080fd5b60006006600081819054906101000a900463ffffffff16809291906200042f90620023c3565b91906101000a81548163ffffffff021916908363ffffffff1602179055505060005b838390508110156200082257600860008585848181106200049b577f4e487b7100000000000000000000000000000000000000000000000000000000600052603260045260246000fd5b9050602002810190620004af919062001dd8565b6040016020810190620004c391906200182f565b73ffffffffffffffffffffffffffffffffffffffff1673ffffffffffffffffffffffffffffffffffffffff16815260200190815260200160002060009054906101000a900460ff166200051557600080fd5b8383828181106200054f577f4e487b7100000000000000000000000000000000000000000000000000000000600052603260045260246000fd5b905060200281019062000563919062001dd8565b602001358262000574919062001e39565b91506000600660009054906101000a900463ffffffff16858584818110620005c5577f4e487b7100000000000000000000000000000000000000000000000000000000600052603260045260246000fd5b9050602002810190620005d9919062001dd8565b6040016020810190620005ed91906200182f565b6040516020016200060092919062001acd565b60405160208183030381529060405280519060200120905084848381811062000652577f4e487b7100000000000000000000000000000000000000000000000000000000600052603260045260246000fd5b905060200281019062000666919062001dd8565b60076000838152602001908152602001600020818162000687919062002851565b905050600160009054906101000a900473ffffffffffffffffffffffffffffffffffffffff16858584818110620006e7577f4e487b7100000000000000000000000000000000000000000000000000000000600052603260045260246000fd5b9050602002810190620006fb919062001dd8565b6080013586868581811062000739577f4e487b7100000000000000000000000000000000000000000000000000000000600052603260045260246000fd5b90506020028101906200074d919062001dd8565b60400160208101906200076191906200182f565b6040516200076f9062001761565b6200077d9392919062001c28565b604051809103906000f0801580156200079a573d6000803e3d6000fd5b506007600083815260200190815260200160002060030160006101000a81548173ffffffffffffffffffffffffffffffffffffffff021916908373ffffffffffffffffffffffffffffffffffffffff16021790555060016002600082825462000804919062001e39565b92505081905550508080620008199062002375565b91505062000451565b506064811462000869576040517f08c379a0000000000000000000000000000000000000000000000000000000008152600401620008609062001cfb565b60405180910390fd5b7f0b6d6ffbef9e34206247fccb3ee5ac6346aea764c4dbdf8a8e4a39b4a6232e7a60405160405180910390a1505050565b60008054906101000a900473ffffffffffffffffffffffffffffffffffffffff1673ffffffffffffffffffffffffffffffffffffffff163373ffffffffffffffffffffffffffffffffffffffff1614620008f357600080fd5b60008060009054906101000a900473ffffffffffffffffffffffffffffffffffffffff1673ffffffffffffffffffffffffffffffffffffffff166108fc839081150290604051600060405180830381858888f1935050505090508062000990576040517f08c379a0000000000000000000000000000000000000000000000000000000008152600401620009879062001d3f565b60405180910390fd5b7f30112c78349a4e44c6aaf4caae9efa4a92a54a17c56db6f1c7a6787bf849f7cf82604051620009c1919062001d61565b60405180910390a15050565b60008054906101000a900473ffffffffffffffffffffffffffffffffffffffff1673ffffffffffffffffffffffffffffffffffffffff163373ffffffffffffffffffffffffffffffffffffffff161462000a2657600080fd5b6000600160009054906101000a900473ffffffffffffffffffffffffffffffffffffffff1673ffffffffffffffffffffffffffffffffffffffff166370a08231306040518263ffffffff1660e01b815260040162000a85919062001afd565b60206040518083038186803b15801562000a9e57600080fd5b505afa15801562000ab3573d6000803e3d6000fd5b505050506040513d601f19601f8201168201806040525081019062000ad9919062001928565b90508082111562000b21576040517f08c379a000000000000000000000000000000000000000000000000000000000815260040162000b189062001cd9565b60405180910390fd5b6000600160009054906101000a900473ffffffffffffffffffffffffffffffffffffffff1673ffffffffffffffffffffffffffffffffffffffff1663a9059cbb60008054906101000a900473ffffffffffffffffffffffffffffffffffffffff16856040518363ffffffff1660e01b815260040162000ba292919062001b74565b602060405180830381600087803b15801562000bbd57600080fd5b505af115801562000bd2573d6000803e3d6000fd5b505050506040513d601f19601f8201168201806040525081019062000bf89190620018a4565b90508062000c3d576040517f08c379a000000000000000000000000000000000000000000000000000000000815260040162000c349062001d3f565b60405180910390fd5b826005600082825462000c51919062001f2f565b925050819055507fa1b70b2da8e7a04aca7f4ac1fb6eb27021e952fd8aa19f5d5b245b5f2bdb74878360405162000c89919062001d61565b60405180910390a1505050565b60045481565b6000600660009054906101000a900463ffffffff163360405160200162000cc592919062001acd565b604051602081830303815290604052805190602001209050600060076000838152602001908152602001600020600101541162000d0157600080fd5b7f4f2513b5e936b68be23cb71b4fdcd6a014d2fa846affc4e2ac3caf4876da7da733600760008481526020019081526020016000206001015460405162000d4a92919062001ba1565b60405180910390a160006007600083815260200190815260200160002060030160009054906101000a900473ffffffffffffffffffffffffffffffffffffffff16905060008190506007600084815260200190815260200160002060050160009054906101000a900460ff161562000e53577f28c0b4699f02b30aed7da1df0eec405d3ae698fc885158ff77a3db6662628e9560405160405180910390a18173ffffffffffffffffffffffffffffffffffffffff16633ccfd60b6040518163ffffffff1660e01b8152600401600060405180830381600087803b15801562000e3157600080fd5b505af115801562000e46573d6000803e3d6000fd5b50505050505050620010dc565b4260045460035462000e66919062001e39565b1062000e7157600080fd5b60006007600085815260200190815260200160002060010154606460055462000e9b919062001e96565b62000ea7919062001ece565b90507f66494a70baf38d5e38c56e9f3a85f134cee1018b8246783591741f549746353982824760405162000ede9392919062001bce565b60405180910390a1600160009054906101000a900473ffffffffffffffffffffffffffffffffffffffff1673ffffffffffffffffffffffffffffffffffffffff1663095ea7b383836040518363ffffffff1660e01b815260040162000f4592919062001ba1565b602060405180830381600087803b15801562000f6057600080fd5b505af115801562000f75573d6000803e3d6000fd5b505050506040513d601f19601f8201168201806040525081019062000f9b9190620018a4565b508273ffffffffffffffffffffffffffffffffffffffff1663743e0c9b826040518263ffffffff1660e01b815260040162000fd7919062001d61565b600060405180830381600087803b15801562000ff257600080fd5b505af115801562001007573d6000803e3d6000fd5b5050505060016007600086815260200190815260200160002060050160006101000a81548160ff0219169083151502179055507f5ac9dfc3f57c826f2dec73a1c81f01956366fd1078a8fc9a2d0fe3bce84571db82826040516200106d92919062001ba1565b60405180910390a18273ffffffffffffffffffffffffffffffffffffffff16633ccfd60b6040518163ffffffff1660e01b8152600401600060405180830381600087803b158015620010be57600080fd5b505af1158015620010d3573d6000803e3d6000fd5b50505050505050505b565b6007602052806000526040600020600091509050806000018054620011039062002321565b80601f0160208091040260200160405190810160405280929190818152602001828054620011319062002321565b8015620011825780601f10620011565761010080835404028352916020019162001182565b820191906000526020600020905b8154815290600101906020018083116200116457829003601f168201915b5050505050908060010154908060020160009054906101000a900473ffffffffffffffffffffffffffffffffffffffff16908060030160009054906101000a900473ffffffffffffffffffffffffffffffffffffffff16908060040154908060050160009054906101000a900460ff16905086565b60008054906101000a900473ffffffffffffffffffffffffffffffffffffffff1673ffffffffffffffffffffffffffffffffffffffff163373ffffffffffffffffffffffffffffffffffffffff16146200125057600080fd5b8060048190555050565b60025481565b60008060009054906101000a900473ffffffffffffffffffffffffffffffffffffffff1673ffffffffffffffffffffffffffffffffffffffff163373ffffffffffffffffffffffffffffffffffffffff1614620012bc57600080fd5b600354905090565b60008054906101000a900473ffffffffffffffffffffffffffffffffffffffff1673ffffffffffffffffffffffffffffffffffffffff163373ffffffffffffffffffffffffffffffffffffffff16146200131d57600080fd5b7f4d6ce1e535dbade1c23defba91e23b8f791ce5edc0cc320257a2b364e4e38426346040516200134e919062001d61565b60405180910390a1565b60008054906101000a900473ffffffffffffffffffffffffffffffffffffffff1673ffffffffffffffffffffffffffffffffffffffff163373ffffffffffffffffffffffffffffffffffffffff1614620013b157600080fd5b42600381905550565b60008054906101000a900473ffffffffffffffffffffffffffffffffffffffff1673ffffffffffffffffffffffffffffffffffffffff163373ffffffffffffffffffffffffffffffffffffffff16146200141357600080fd5b6000600160009054906101000a900473ffffffffffffffffffffffffffffffffffffffff1673ffffffffffffffffffffffffffffffffffffffff166370a0823160008054906101000a900473ffffffffffffffffffffffffffffffffffffffff166040518263ffffffff1660e01b815260040162001492919062001b1a565b60206040518083038186803b158015620014ab57600080fd5b505afa158015620014c0573d6000803e3d6000fd5b505050506040513d601f19601f82011682018060405250810190620014e6919062001928565b9050808211156200152e576040517f08c379a0000000000000000000000000000000000000000000000000000000008152600401620015259062001cd9565b60405180910390fd5b6000600160009054906101000a900473ffffffffffffffffffffffffffffffffffffffff1673ffffffffffffffffffffffffffffffffffffffff166323b872dd60008054906101000a900473ffffffffffffffffffffffffffffffffffffffff1630866040518463ffffffff1660e01b8152600401620015b19392919062001b37565b602060405180830381600087803b158015620015cc57600080fd5b505af1158015620015e1573d6000803e3d6000fd5b505050506040513d601f19601f82011682018060405250810190620016079190620018a4565b9050806200164c576040517f08c379a0000000000000000000000000000000000000000000000000000000008152600401620016439062001d1d565b60405180910390fd5b826005600082825462001660919062001e39565b925050819055507ff1b3be8dace0fecfbdb6fb0fa1cc014c612bcb1b46db027c1ece5fc11fff09d68360405162001698919062001d61565b60405180910390a1505050565b600080600660009054906101000a900463ffffffff1633604051602001620016cf92919062001acd565b604051602081830303815290604052805190602001209050600060076000838152602001908152602001600020600101541191505090565b6001600860003373ffffffffffffffffffffffffffffffffffffffff1673ffffffffffffffffffffffffffffffffffffffff16815260200190815260200160002060006101000a81548160ff021916908315150217905550565b610ce0806200293d83390190565b6000813590506200178081620028b5565b92915050565b60008083601f8401126200179957600080fd5b8235905067ffffffffffffffff811115620017b357600080fd5b602083019150836020820283011115620017cc57600080fd5b9250929050565b600081519050620017e481620028cf565b92915050565b600081359050620017fb81620028e9565b92915050565b60008135905062001812816200291d565b92915050565b60008151905062001829816200291d565b92915050565b6000602082840312156200184257600080fd5b600062001852848285016200176f565b91505092915050565b600080602083850312156200186f57600080fd5b600083013567ffffffffffffffff8111156200188a57600080fd5b620018988582860162001786565b92509250509250929050565b600060208284031215620018b757600080fd5b6000620018c784828501620017d3565b91505092915050565b600060208284031215620018e357600080fd5b6000620018f384828501620017ea565b91505092915050565b6000602082840312156200190f57600080fd5b60006200191f8482850162001801565b91505092915050565b6000602082840312156200193b57600080fd5b60006200194b8482850162001818565b91505092915050565b6200195f8162002009565b82525050565b620019708162001f6a565b82525050565b6200198b620019858262001f6a565b620023f5565b82525050565b6200199c8162001f7e565b82525050565b620019ad8162002045565b82525050565b620019be8162002081565b82525050565b6000620019d18262001e1d565b620019dd818562001e28565b9350620019ef81856020860162002209565b620019fa8162002595565b840191505092915050565b600062001a1460148362001e28565b915062001a218262002603565b602082019050919050565b600062001a3b60248362001e28565b915062001a48826200262c565b604082019050919050565b600062001a6260158362001e28565b915062001a6f826200267b565b602082019050919050565b600062001a8960158362001e28565b915062001a9682620026a4565b602082019050919050565b62001aac8162001fc8565b82525050565b62001ac762001ac18262001fd2565b6200241d565b82525050565b600062001adb828562001ab2565b60048201915062001aed828462001976565b6014820191508190509392505050565b600060208201905062001b14600083018462001965565b92915050565b600060208201905062001b31600083018462001954565b92915050565b600060608201905062001b4e600083018662001954565b62001b5d602083018562001965565b62001b6c604083018462001aa1565b949350505050565b600060408201905062001b8b600083018562001954565b62001b9a602083018462001aa1565b9392505050565b600060408201905062001bb8600083018562001965565b62001bc7602083018462001aa1565b9392505050565b600060608201905062001be5600083018662001965565b62001bf4602083018562001aa1565b62001c03604083018462001aa1565b949350505050565b600060208201905062001c22600083018462001991565b92915050565b600060608201905062001c3f6000830186620019b3565b62001c4e602083018562001aa1565b62001c5d604083018462001965565b949350505050565b600060c082019050818103600083015262001c818189620019c4565b905062001c92602083018862001aa1565b62001ca1604083018762001965565b62001cb06060830186620019a2565b62001cbf608083018562001aa1565b62001cce60a083018462001991565b979650505050505050565b6000602082019050818103600083015262001cf48162001a05565b9050919050565b6000602082019050818103600083015262001d168162001a2c565b9050919050565b6000602082019050818103600083015262001d388162001a53565b9050919050565b6000602082019050818103600083015262001d5a8162001a7a565b9050919050565b600060208201905062001d78600083018462001aa1565b92915050565b6000808335600160200384360303811262001d9857600080fd5b80840192508235915067ffffffffffffffff82111562001db757600080fd5b60208301925060018202360383131562001dd057600080fd5b509250929050565b60008235600160c00383360303811262001df157600080fd5b80830191505092915050565b60008190508160005260206000209050919050565b600082905092915050565b600081519050919050565b600082825260208201905092915050565b600062001e468262001fc8565b915062001e538362001fc8565b9250827fffffffffffffffffffffffffffffffffffffffffffffffffffffffffffffffff0382111562001e8b5762001e8a62002451565b5b828201905092915050565b600062001ea38262001fc8565b915062001eb08362001fc8565b92508262001ec35762001ec262002480565b5b828204905092915050565b600062001edb8262001fc8565b915062001ee88362001fc8565b9250817fffffffffffffffffffffffffffffffffffffffffffffffffffffffffffffffff048311821515161562001f245762001f2362002451565b5b828202905092915050565b600062001f3c8262001fc8565b915062001f498362001fc8565b92508282101562001f5f5762001f5e62002451565b5b828203905092915050565b600062001f778262001fa8565b9050919050565b60008115159050919050565b6000819050919050565b600062001fa18262001f6a565b9050919050565b600073ffffffffffffffffffffffffffffffffffffffff82169050919050565b6000819050919050565b600063ffffffff82169050919050565b5b81811015620020055762001ff9600082620025e7565b60018101905062001fe3565b5050565b60006200201682620020a9565b9050919050565b60006200202a82620020a9565b9050919050565b60006200203e8262001f7e565b9050919050565b600062002052826200206d565b9050919050565b6000620020668262001fa8565b9050919050565b60006200207a8262001fa8565b9050919050565b60006200208e8262002095565b9050919050565b6000620020a28262001fa8565b9050919050565b6000620020b682620020bd565b9050919050565b6000620020ca8262001fa8565b9050919050565b6000620020de8262001fc8565b9050919050565b620020f1838362001e12565b67ffffffffffffffff8111156200210d576200210c620024de565b5b62002119825462002321565b600080601f8411601f841117156200213957620021368562001dfd565b90505b601f83111562002170576020601f850104810160208510156200215a578190505b6200216e6020601f86010483018262001fe2565b505b601f841160018114620021a257600085156200218d578388013590505b62002199868262002357565b875550620021ff565b601f1985168260005b82811015620021d257858a01358255600182019150602086019550602081019050620021ab565b87831015620021f257858a0135620021ee601f8a168262002431565b8355505b6001600289020189555050505b5050505050505050565b60005b83811015620022295780820151818401526020810190506200220c565b8381111562002239576000848401525b50505050565b600081016000830162002253818562001d7e565b620022608183866200283f565b5050505060018101602083018062002278816200257d565b905062002286818462002861565b5050506002810160408301806200229d8162002535565b9050620022ab8184620027c4565b505050600381016060830180620022c28162002565565b9050620022d0818462002816565b505050600481016080830180620022e7816200257d565b9050620022f5818462002861565b5050506005810160a08301806200230c816200254d565b90506200231a8184620027ed565b5050505050565b600060028204905060018216806200233a57607f821691505b60208210811415620023515762002350620024af565b5b50919050565b600062002365838362002431565b9150826002028217905092915050565b6000620023828262001fc8565b91507fffffffffffffffffffffffffffffffffffffffffffffffffffffffffffffffff821415620023b857620023b762002451565b5b600182019050919050565b6000620023d08262001fd2565b915063ffffffff821415620023ea57620023e962002451565b5b600182019050919050565b6000620024028262002409565b9050919050565b60006200241682620025c0565b9050919050565b60006200242a82620025b3565b9050919050565b60006200244460001984600802620025da565b1980831691505092915050565b7f4e487b7100000000000000000000000000000000000000000000000000000000600052601160045260246000fd5b7f4e487b7100000000000000000000000000000000000000000000000000000000600052601260045260246000fd5b7f4e487b7100000000000000000000000000000000000000000000000000000000600052602260045260246000fd5b7f4e487b7100000000000000000000000000000000000000000000000000000000600052604160045260246000fd5b6000819050919050565b6000819050919050565b6000819050919050565b6000819050919050565b600081356200254481620028b5565b80915050919050565b600081356200255c81620028cf565b80915050919050565b60008135620025748162002903565b80915050919050565b600081356200258c816200291d565b80915050919050565b6000601f19601f8301169050919050565b60008160001b9050919050565b60008160e01b9050919050565b60008160601b9050919050565b600082821b905092915050565b600082821c905092915050565b620025f162002937565b620025fe8184846200288a565b505050565b7f496e73756666696369656e742062616c616e6365000000000000000000000000600082015250565b7f73756d206f66207368617265732073686f756c6420626520657175616c20746f60008201527f2031303000000000000000000000000000000000000000000000000000000000602082015250565b7f4661696c656420746f2073656e6420746f6b656e730000000000000000000000600082015250565b7f4661696c656420746f2073656e7420746f6b656e730000000000000000000000600082015250565b600060ff620026dc84620025a6565b9350801983169250808416831791505092915050565b600073ffffffffffffffffffffffffffffffffffffffff6200271484620025a6565b9350801983169250808416831791505092915050565b60007fffffffffffffffffffffffffffffffffffffffffffffffffffffffffffffffff6200275884620025a6565b9350801983169250808416831791505092915050565b600060088302620027a07fffffffffffffffffffffffffffffffffffffffffffffffffffffffffffffffff82620025cd565b620027ac8683620025cd565b95508019841693508086168417925050509392505050565b620027cf826200201d565b620027e6620027de826200250d565b8354620026f2565b8255505050565b620027f88262002031565b6200280f620028078262002517565b8354620026cd565b8255505050565b620028218262002059565b62002838620028308262002521565b8354620026f2565b8255505050565b6200284c838383620020e5565b505050565b6200285d82826200223f565b5050565b6200286c82620020d1565b620028836200287b826200252b565b83546200272a565b8255505050565b6200289583620020d1565b620028ad620028a4826200252b565b8484546200276e565b825550505050565b620028c08162001f6a565b8114620028cc57600080fd5b50565b620028da8162001f7e565b8114620028e657600080fd5b50565b620028f48162001f8a565b81146200290057600080fd5b50565b6200290e8162001f94565b81146200291a57600080fd5b50565b620029288162001fc8565b81146200293457600080fd5b50565b60009056fe60806040523480156200001157600080fd5b5060405162000ce038038062000ce083398181016040528101906200003791906200015f565b33600260006101000a81548173ffffffffffffffffffffffffffffffffffffffff021916908373ffffffffffffffffffffffffffffffffffffffff16021790555081600081905550600060058190555080600360006101000a81548173ffffffffffffffffffffffffffffffffffffffff021916908373ffffffffffffffffffffffffffffffffffffffff160217905550600060018190555082600460006101000a81548173ffffffffffffffffffffffffffffffffffffffff021916908373ffffffffffffffffffffffffffffffffffffffff16021790555050505062000255565b6000815190506200012b8162000207565b92915050565b600081519050620001428162000221565b92915050565b60008151905062000159816200023b565b92915050565b6000806000606084860312156200017557600080fd5b6000620001858682870162000131565b9350506020620001988682870162000148565b9250506040620001ab868287016200011a565b9150509250925092565b6000620001c282620001dd565b9050919050565b6000620001d682620001b5565b9050919050565b600073ffffffffffffffffffffffffffffffffffffffff82169050919050565b6000819050919050565b6200021281620001b5565b81146200021e57600080fd5b50565b6200022c81620001c9565b81146200023857600080fd5b50565b6200024681620001fd565b81146200025257600080fd5b50565b610a7b80620002656000396000f3fe608060405234801561001057600080fd5b50600436106100575760003560e01c806334a014dc1461005c5780633ccfd60b1461007a578063743e0c9b14610084578063b69ef8a8146100a0578063b74126cc146100be575b600080fd5b6100646100dc565b6040516100719190610898565b60405180910390f35b6100826100e2565b005b61009e60048036038101906100999190610727565b6103d9565b005b6100a86106b3565b6040516100b59190610898565b60405180910390f35b6100c66106b9565b6040516100d39190610898565b60405180910390f35b60055481565b600260009054906101000a900473ffffffffffffffffffffffffffffffffffffffff1673ffffffffffffffffffffffffffffffffffffffff163373ffffffffffffffffffffffffffffffffffffffff161461013c57600080fd5b6000600460009054906101000a900473ffffffffffffffffffffffffffffffffffffffff1673ffffffffffffffffffffffffffffffffffffffff166370a08231306040518263ffffffff1660e01b815260040161019991906107dd565b60206040518083038186803b1580156101b157600080fd5b505afa1580156101c5573d6000803e3d6000fd5b505050506040513d601f19601f820116820180604052508101906101e99190610750565b9050600081116101f857600080fd5b62278d0060055461020991906108c4565b421161021457600080fd5b600081600054106102255781610229565b6000545b90506000600460009054906101000a900473ffffffffffffffffffffffffffffffffffffffff1673ffffffffffffffffffffffffffffffffffffffff1663a9059cbb600360009054906101000a900473ffffffffffffffffffffffffffffffffffffffff16846040518363ffffffff1660e01b81526004016102ac92919061082f565b602060405180830381600087803b1580156102c657600080fd5b505af11580156102da573d6000803e3d6000fd5b505050506040513d601f19601f820116820180604052508101906102fe91906106fe565b905080610340576040517f08c379a000000000000000000000000000000000000000000000000000000000815260040161033790610878565b60405180910390fd5b7f3bfe81dec3f91b4f148acb63cf0044cf5f14ec020bf957f38b377e854293ebe4600360009054906101000a900473ffffffffffffffffffffffffffffffffffffffff168360405161039392919061082f565b60405180910390a181600660008282546103ad91906108c4565b925050819055504260058190555081600160008282546103cd919061091a565b92505081905550505050565b600260009054906101000a900473ffffffffffffffffffffffffffffffffffffffff1673ffffffffffffffffffffffffffffffffffffffff163373ffffffffffffffffffffffffffffffffffffffff161461043357600080fd5b6000600460009054906101000a900473ffffffffffffffffffffffffffffffffffffffff1673ffffffffffffffffffffffffffffffffffffffff166370a08231600260009054906101000a900473ffffffffffffffffffffffffffffffffffffffff166040518263ffffffff1660e01b81526004016104b291906107dd565b60206040518083038186803b1580156104ca57600080fd5b505afa1580156104de573d6000803e3d6000fd5b505050506040513d601f19601f820116820180604052508101906105029190610750565b905080821115610547576040517f08c379a000000000000000000000000000000000000000000000000000000000815260040161053e90610858565b60405180910390fd5b6000600460009054906101000a900473ffffffffffffffffffffffffffffffffffffffff1673ffffffffffffffffffffffffffffffffffffffff166323b872dd600260009054906101000a900473ffffffffffffffffffffffffffffffffffffffff1630866040518463ffffffff1660e01b81526004016105ca939291906107f8565b602060405180830381600087803b1580156105e457600080fd5b505af11580156105f8573d6000803e3d6000fd5b505050506040513d601f19601f8201168201806040525081019061061c91906106fe565b90508061065e576040517f08c379a000000000000000000000000000000000000000000000000000000000815260040161065590610878565b60405180910390fd5b826001600082825461067091906108c4565b925050819055507fbcdc7071c1beb6dcf2744621e0b29a2f2432ee20812d9ca5e3d5e8f9308d93a3836040516106a69190610898565b60405180910390a1505050565b60015481565b60065481565b6000815190506106ce81610a17565b92915050565b6000813590506106e381610a2e565b92915050565b6000815190506106f881610a2e565b92915050565b60006020828403121561071057600080fd5b600061071e848285016106bf565b91505092915050565b60006020828403121561073957600080fd5b6000610747848285016106d4565b91505092915050565b60006020828403121561076257600080fd5b6000610770848285016106e9565b91505092915050565b6107828161094e565b82525050565b60006107956012836108b3565b91506107a0826109c5565b602082019050919050565b60006107b86015836108b3565b91506107c3826109ee565b602082019050919050565b6107d78161098c565b82525050565b60006020820190506107f26000830184610779565b92915050565b600060608201905061080d6000830186610779565b61081a6020830185610779565b61082760408301846107ce565b949350505050565b60006040820190506108446000830185610779565b61085160208301846107ce565b9392505050565b6000602082019050818103600083015261087181610788565b9050919050565b60006020820190508181036000830152610891816107ab565b9050919050565b60006020820190506108ad60008301846107ce565b92915050565b600082825260208201905092915050565b60006108cf8261098c565b91506108da8361098c565b9250827fffffffffffffffffffffffffffffffffffffffffffffffffffffffffffffffff0382111561090f5761090e610996565b5b828201905092915050565b60006109258261098c565b91506109308361098c565b92508282101561094357610942610996565b5b828203905092915050565b60006109598261096c565b9050919050565b60008115159050919050565b600073ffffffffffffffffffffffffffffffffffffffff82169050919050565b6000819050919050565b7f4e487b7100000000000000000000000000000000000000000000000000000000600052601160045260246000fd5b7f496e73756666696369656e742066756e64730000000000000000000000000000600082015250565b7f4661696c656420746f2073656e6420746f6b656e730000000000000000000000600082015250565b610a2081610960565b8114610a2b57600080fd5b50565b610a378161098c565b8114610a4257600080fd5b5056fea2646970667358221220a4f28f2a852dd983e397dc183bb2a83fba2e38f53debd8f152b352d4401838e164736f6c63430008040033a26469706673582212200be040dfcf96aa288496ea76080a089651de28748b4738f3c46c92982a84468064736f6c63430008040033a264697066735822122034aa5fc00ab61c6f55d4f62b39f95afe4bb291e54a08a092966c65bdc5ba5cf664736f6c63430008040033",
  "immutableReferences": {},
  "source": "pragma solidity >=0.8.4 <0.9.0;\n\nimport \"./Heritage.sol\";\n\ncontract Factory {\n  mapping(address => address[]) public ownerToContracts;\n  mapping(address => uint) public ownerToContractsNumber;\n  mapping(address => address[]) public successorToContracts;\n  mapping(address => uint) public successorToContractsNumber;\n  mapping(address => address[]) public contractToSuccessors;\n  mapping(address => uint) public contractToSuccessorNumber;\n  mapping(address => string) public contractNames;\n\n  function create(string calldata name, address token, uint daysToRelease) public {\n    Heritage newContract = new Heritage(daysToRelease, token);\n    contractNames[address(newContract)] = name;\n    ownerToContracts[msg.sender].push(address(newContract));\n    ownerToContractsNumber[msg.sender] += 1;\n  }\n\n\n  function setSuccessors(address contractAddress, Successor[] calldata newSuccessors) public {\n    (bool success, bytes memory data) = contractAddress.delegatecall(\n      abi.encodeWithSignature(\"setSuccessors((string,uint256,address,address,uint256,bool)[])\", newSuccessors)\n    );\n\n    //(bool success, bytes memory data) = contractAddress.delegatecall(\n    //  abi.encodeWithSignature(\"registerSuccessorApplicant()\", msg.sender)\n    //);\n\n\n    require(success, \"cannot set successors\");\n    contractToSuccessors[contractAddress] = new address[](0);\n    for (uint i=0; i<newSuccessors.length; i++) {\n      contractToSuccessors[contractAddress].push(newSuccessors[i].wallet);\n      successorToContracts[newSuccessors[i].wallet].push(contractAddress);\n      successorToContractsNumber[newSuccessors[i].wallet] += 1;\n    }\n  }\n}\n",
  "sourcePath": "/Users/kovalas/Solidity/Legacy/contracts/Factory.sol",
  "compiler": {
    "name": "solc",
    "version": "0.8.4+commit.c7e474f2.Emscripten.clang"
  },
  "schemaVersion": "3.4.7",
  "updatedAt": "2022-08-14T19:54:41.112Z",
  "devdoc": {
    "kind": "dev",
    "methods": {},
    "version": 1
  },
  "userdoc": {
    "kind": "user",
    "methods": {},
    "version": 1
  }
}