{
  "contractName": "Factory",
  "abi": [
    {
      "inputs": [
        {
          "internalType": "address",
          "name": "",
          "type": "address"
        }
      ],
      "name": "contractNames",
      "outputs": [
        {
          "internalType": "string",
          "name": "",
          "type": "string"
        }
      ],
      "stateMutability": "view",
      "type": "function",
      "constant": true
    },
    {
      "inputs": [
        {
          "internalType": "address",
          "name": "",
          "type": "address"
        }
      ],
      "name": "contractToSuccessorNumber",
      "outputs": [
        {
          "internalType": "uint256",
          "name": "",
          "type": "uint256"
        }
      ],
      "stateMutability": "view",
      "type": "function",
      "constant": true
    },
    {
      "inputs": [
        {
          "internalType": "address",
          "name": "",
          "type": "address"
        },
        {
          "internalType": "uint256",
          "name": "",
          "type": "uint256"
        }
      ],
      "name": "ownerToContracts",
      "outputs": [
        {
          "internalType": "address",
          "name": "",
          "type": "address"
        }
      ],
      "stateMutability": "view",
      "type": "function",
      "constant": true
    },
    {
      "inputs": [
        {
          "internalType": "address",
          "name": "",
          "type": "address"
        }
      ],
      "name": "ownerToContractsNumber",
      "outputs": [
        {
          "internalType": "uint256",
          "name": "",
          "type": "uint256"
        }
      ],
      "stateMutability": "view",
      "type": "function",
      "constant": true
    },
    {
      "inputs": [
        {
          "internalType": "address",
          "name": "",
          "type": "address"
        },
        {
          "internalType": "uint256",
          "name": "",
          "type": "uint256"
        }
      ],
      "name": "successorToContracts",
      "outputs": [
        {
          "internalType": "address",
          "name": "",
          "type": "address"
        }
      ],
      "stateMutability": "view",
      "type": "function",
      "constant": true
    },
    {
      "inputs": [
        {
          "internalType": "address",
          "name": "",
          "type": "address"
        }
      ],
      "name": "successorToContractsNumber",
      "outputs": [
        {
          "internalType": "uint256",
          "name": "",
          "type": "uint256"
        }
      ],
      "stateMutability": "view",
      "type": "function",
      "constant": true
    },
    {
      "inputs": [
        {
          "internalType": "string",
          "name": "name",
          "type": "string"
        },
        {
          "internalType": "address",
          "name": "token",
          "type": "address"
        },
        {
          "internalType": "uint256",
          "name": "secondsToRelease",
          "type": "uint256"
        }
      ],
      "name": "create",
      "outputs": [],
      "stateMutability": "nonpayable",
      "type": "function"
    },
    {
      "inputs": [
        {
          "components": [
            {
              "internalType": "string",
              "name": "name",
              "type": "string"
            },
            {
              "internalType": "uint256",
              "name": "share",
              "type": "uint256"
            },
            {
              "internalType": "address",
              "name": "wallet",
              "type": "address"
            },
            {
              "internalType": "address",
              "name": "dispenser",
              "type": "address"
            },
            {
              "internalType": "uint256",
              "name": "maxPerMonth",
              "type": "uint256"
            },
            {
              "internalType": "bool",
              "name": "fundsBeenReleased",
              "type": "bool"
            }
          ],
          "internalType": "struct Successor",
          "name": "newSuccessor",
          "type": "tuple"
        }
      ],
      "name": "setSuccessor",
      "outputs": [],
      "stateMutability": "nonpayable",
      "type": "function"
    }
  ],
  "bytecode": "0x608060405234801561001057600080fd5b50614fc1806100206000396000f3fe60806040523480156200001157600080fd5b5060043610620000935760003560e01c8063b59173361162000063578063b5917336146200015a578063cb05c640146200017a578063d21f08f314620001b0578063f188ced514620001e65762000093565b8062e0bbd614620000985780631f80b87214620000b85780636a1972bd14620000ee5780638acf99401462000124575b600080fd5b620000b66004803603810190620000b0919062000982565b6200021c565b005b620000d66004803603810190620000d09190620008a1565b6200042c565b604051620000e5919062000a6e565b60405180910390f35b6200010c6004803603810190620001069190620008cd565b620004d4565b6040516200011b919062000a51565b60405180910390f35b6200014260048036038101906200013c9190620008a1565b62000523565b60405162000151919062000ab4565b60405180910390f35b6200017860048036038101906200017291906200090e565b6200053b565b005b620001986004803603810190620001929190620008a1565b620006cd565b604051620001a7919062000ab4565b60405180910390f35b620001ce6004803603810190620001c89190620008cd565b620006e5565b604051620001dd919062000a51565b60405180910390f35b620002046004803603810190620001fe9190620008a1565b62000734565b60405162000213919062000ab4565b60405180910390f35b6000600560003373ffffffffffffffffffffffffffffffffffffffff1673ffffffffffffffffffffffffffffffffffffffff16815260200190815260200160002080546200026a9062000c0b565b905011620002af576040517f08c379a0000000000000000000000000000000000000000000000000000000008152600401620002a69062000a92565b60405180910390fd5b60026000826040016020810190620002c89190620008a1565b73ffffffffffffffffffffffffffffffffffffffff1673ffffffffffffffffffffffffffffffffffffffff168152602001908152602001600020339080600181540180825580915050600190039060005260206000200160009091909190916101000a81548173ffffffffffffffffffffffffffffffffffffffff021916908373ffffffffffffffffffffffffffffffffffffffff1602179055506001600460008360400160208101906200037e9190620008a1565b73ffffffffffffffffffffffffffffffffffffffff1673ffffffffffffffffffffffffffffffffffffffff1681526020019081526020016000206000828254620003c9919062000b3a565b925050819055506001600360003373ffffffffffffffffffffffffffffffffffffffff1673ffffffffffffffffffffffffffffffffffffffff168152602001908152602001600020600082825462000422919062000b3a565b9250508190555050565b600560205280600052604060002060009150905080546200044d9062000c0b565b80601f01602080910402602001604051908101604052809291908181526020018280546200047b9062000c0b565b8015620004cc5780601f10620004a057610100808354040283529160200191620004cc565b820191906000526020600020905b815481529060010190602001808311620004ae57829003601f168201915b505050505081565b60006020528160005260406000208181548110620004f157600080fd5b906000526020600020016000915091509054906101000a900473ffffffffffffffffffffffffffffffffffffffff1681565b60046020528060005260406000206000915090505481565b6000818333306040516200054f906200074c565b6200055e949392919062000ad1565b604051809103906000f0801580156200057b573d6000803e3d6000fd5b5090508484600560008473ffffffffffffffffffffffffffffffffffffffff1673ffffffffffffffffffffffffffffffffffffffff1681526020019081526020016000209190620005ce9291906200075a565b506000803373ffffffffffffffffffffffffffffffffffffffff1673ffffffffffffffffffffffffffffffffffffffff168152602001908152602001600020819080600181540180825580915050600190039060005260206000200160009091909190916101000a81548173ffffffffffffffffffffffffffffffffffffffff021916908373ffffffffffffffffffffffffffffffffffffffff16021790555060018060003373ffffffffffffffffffffffffffffffffffffffff1673ffffffffffffffffffffffffffffffffffffffff1681526020019081526020016000206000828254620006bf919062000b3a565b925050819055505050505050565b60016020528060005260406000206000915090505481565b600260205281600052604060002081815481106200070257600080fd5b906000526020600020016000915091509054906101000a900473ffffffffffffffffffffffffffffffffffffffff1681565b60036020528060005260406000206000915090505481565b61427e8062000d0e83390190565b828054620007689062000c0b565b90600052602060002090601f0160209004810192826200078c5760008555620007d8565b82601f10620007a757803560ff1916838001178555620007d8565b82800160010185558215620007d8579182015b82811115620007d7578235825591602001919060010190620007ba565b5b509050620007e79190620007eb565b5090565b5b8082111562000806576000816000905550600101620007ec565b5090565b6000813590506200081b8162000cd9565b92915050565b60008083601f8401126200083457600080fd5b8235905067ffffffffffffffff8111156200084e57600080fd5b6020830191508360018202830111156200086757600080fd5b9250929050565b600060c082840312156200088157600080fd5b81905092915050565b6000813590506200089b8162000cf3565b92915050565b600060208284031215620008b457600080fd5b6000620008c4848285016200080a565b91505092915050565b60008060408385031215620008e157600080fd5b6000620008f1858286016200080a565b925050602062000904858286016200088a565b9150509250929050565b600080600080606085870312156200092557600080fd5b600085013567ffffffffffffffff8111156200094057600080fd5b6200094e8782880162000821565b9450945050602062000963878288016200080a565b925050604062000976878288016200088a565b91505092959194509250565b6000602082840312156200099557600080fd5b600082013567ffffffffffffffff811115620009b057600080fd5b620009be848285016200086e565b91505092915050565b620009d28162000b97565b82525050565b6000620009e58262000b1e565b620009f1818562000b29565b935062000a0381856020860162000bd5565b62000a0e8162000c9f565b840191505092915050565b600062000a2860178362000b29565b915062000a358262000cb0565b602082019050919050565b62000a4b8162000bcb565b82525050565b600060208201905062000a686000830184620009c7565b92915050565b6000602082019050818103600083015262000a8a8184620009d8565b905092915050565b6000602082019050818103600083015262000aad8162000a19565b9050919050565b600060208201905062000acb600083018462000a40565b92915050565b600060808201905062000ae8600083018762000a40565b62000af76020830186620009c7565b62000b066040830185620009c7565b62000b156060830184620009c7565b95945050505050565b600081519050919050565b600082825260208201905092915050565b600062000b478262000bcb565b915062000b548362000bcb565b9250827fffffffffffffffffffffffffffffffffffffffffffffffffffffffffffffffff0382111562000b8c5762000b8b62000c41565b5b828201905092915050565b600062000ba48262000bab565b9050919050565b600073ffffffffffffffffffffffffffffffffffffffff82169050919050565b6000819050919050565b60005b8381101562000bf557808201518184015260208101905062000bd8565b8381111562000c05576000848401525b50505050565b6000600282049050600182168062000c2457607f821691505b6020821081141562000c3b5762000c3a62000c70565b5b50919050565b7f4e487b7100000000000000000000000000000000000000000000000000000000600052601160045260246000fd5b7f4e487b7100000000000000000000000000000000000000000000000000000000600052602260045260246000fd5b6000601f19601f8301169050919050565b7f436f6e747261637420646f65736e277420657869737473000000000000000000600082015250565b62000ce48162000b97565b811462000cf057600080fd5b50565b62000cfe8162000bcb565b811462000d0a57600080fd5b5056fe60806040523480156200001157600080fd5b506040516200427e3803806200427e833981810160405281019062000037919062000169565b816000806101000a81548173ffffffffffffffffffffffffffffffffffffffff021916908373ffffffffffffffffffffffffffffffffffffffff16021790555082600260006101000a81548173ffffffffffffffffffffffffffffffffffffffff021916908373ffffffffffffffffffffffffffffffffffffffff16021790555060006003819055506000600760006101000a81548163ffffffff021916908363ffffffff160217905550426004819055508360058190555080600160006101000a81548173ffffffffffffffffffffffffffffffffffffffff021916908373ffffffffffffffffffffffffffffffffffffffff1602179055505050505062000247565b6000815190506200014c8162000213565b92915050565b60008151905062000163816200022d565b92915050565b600080600080608085870312156200018057600080fd5b6000620001908782880162000152565b9450506020620001a3878288016200013b565b9350506040620001b6878288016200013b565b9250506060620001c9878288016200013b565b91505092959194509250565b6000620001e282620001e9565b9050919050565b600073ffffffffffffffffffffffffffffffffffffffff82169050919050565b6000819050919050565b6200021e81620001d5565b81146200022a57600080fd5b50565b620002388162000209565b81146200024457600080fd5b50565b61402780620002576000396000f3fe608060405260043610620001465760003560e01c80639640b69b11620000bb578063d55aa5dc1162000079578063d55aa5dc1462000404578063dc33a8411462000434578063dd49756e146200044e578063e60a74e9146200047c578063f9f8c7d714620004ac578063fc0c546a14620004c65762000146565b80639640b69b146200033a578063c55de7971462000368578063c5e697141462000398578063cefd35bc14620003c8578063d0e30db014620003f85762000146565b806341c0e1b5116200010957806341c0e1b5146200025d5780635e93bdbe14620002775780635f81a57c14620002a7578063733a798c14620002d757806386d9c9a814620002f15762000146565b806304ddc620146200014b57806312167bf4146200018f578063146eb61514620001d35780632e1a7d4d1462000201578063315a095d146200022f575b600080fd5b3480156200015857600080fd5b5062000177600480360381019062000171919062002097565b620004f6565b60405162000186919062002421565b60405180910390f35b3480156200019c57600080fd5b50620001bb6004803603810190620001b5919062001fca565b6200052d565b604051620001ca91906200255c565b60405180910390f35b348015620001e057600080fd5b50620001ff6004803603810190620001f9919062001ff6565b6200054d565b005b3480156200020e57600080fd5b506200022d600480360381019062000227919062002097565b62000cd7565b005b3480156200023c57600080fd5b506200025b600480360381019062000255919062002097565b62000e0a565b005b3480156200026a57600080fd5b5062000275620010d3565b005b3480156200028457600080fd5b506200028f62001336565b6040516200029e9190620026f3565b60405180910390f35b348015620002b457600080fd5b50620002bf6200133c565b604051620002ce9190620026f3565b60405180910390f35b348015620002e457600080fd5b50620002ef62001342565b005b348015620002fe57600080fd5b506200031d60048036038101906200031791906200206b565b62001784565b6040516200033196959493929190620025d3565b60405180910390f35b3480156200034757600080fd5b5062000366600480360381019062000360919062002097565b6200189d565b005b3480156200037557600080fd5b506200038062001900565b6040516200038f91906200255c565b60405180910390f35b348015620003a557600080fd5b50620003b06200191b565b604051620003bf9190620026f3565b60405180910390f35b348015620003d557600080fd5b50620003e062001921565b604051620003ef9190620026f3565b60405180910390f35b6200040262001985565b005b3480156200041157600080fd5b506200041c62001a19565b6040516200042b919062002710565b60405180910390f35b3480156200044157600080fd5b506200044c62001a2f565b005b3480156200045b57600080fd5b506200047a600480360381019062000474919062002097565b62001a91565b005b3480156200048957600080fd5b506200049462001d7c565b604051620004a391906200255c565b60405180910390f35b348015620004b957600080fd5b50620004c462001dde565b005b348015620004d357600080fd5b50620004de62001ebf565b604051620004ed919062002579565b60405180910390f35b600881600a81106200050757600080fd5b016000915054906101000a900473ffffffffffffffffffffffffffffffffffffffff1681565b60136020528060005260406000206000915054906101000a900460ff1681565b60008054906101000a900473ffffffffffffffffffffffffffffffffffffffff1673ffffffffffffffffffffffffffffffffffffffff163373ffffffffffffffffffffffffffffffffffffffff1614620005a657600080fd5b7fc96e55fa8d403a1baa49c74451272db833044a289a3908e137c665f58a85d6ea33604051620005d7919062002421565b60405180910390a160006007600081819054906101000a900463ffffffff1680929190620006059062002dfd565b91906101000a81548163ffffffff021916908363ffffffff16021790555050600060038190555060005b8383905081101562000c5f576013600085858481811062000679577f4e487b7100000000000000000000000000000000000000000000000000000000600052603260045260246000fd5b90506020028101906200068d919062002787565b6040016020810190620006a1919062001fca565b73ffffffffffffffffffffffffffffffffffffffff1673ffffffffffffffffffffffffffffffffffffffff16815260200190815260200160002060009054906101000a900460ff16620006f357600080fd5b8383828181106200072d577f4e487b7100000000000000000000000000000000000000000000000000000000600052603260045260246000fd5b905060200281019062000741919062002787565b6020013582620007529190620028b4565b91506000600760009054906101000a900463ffffffff16858584818110620007a3577f4e487b7100000000000000000000000000000000000000000000000000000000600052603260045260246000fd5b9050602002810190620007b7919062002787565b6040016020810190620007cb919062001fca565b604051602001620007de929190620023f1565b60405160208183030381529060405280519060200120905084848381811062000830577f4e487b7100000000000000000000000000000000000000000000000000000000600052603260045260246000fd5b905060200281019062000844919062002787565b60126000838152602001908152602001600020818162000865919062003240565b9050506000600260009054906101000a900473ffffffffffffffffffffffffffffffffffffffff16868685818110620008c7577f4e487b7100000000000000000000000000000000000000000000000000000000600052603260045260246000fd5b9050602002810190620008db919062002787565b6080013587878681811062000919577f4e487b7100000000000000000000000000000000000000000000000000000000600052603260045260246000fd5b90506020028101906200092d919062002787565b604001602081019062000941919062001fca565b6040516200094f9062001ee5565b6200095d9392919062002596565b604051809103906000f0801580156200097a573d6000803e3d6000fd5b509050806012600084815260200190815260200160002060030160006101000a81548173ffffffffffffffffffffffffffffffffffffffff021916908373ffffffffffffffffffffffffffffffffffffffff160217905550600160036000828254620009e79190620028b4565b92505081905550600080600160009054906101000a900473ffffffffffffffffffffffffffffffffffffffff1673ffffffffffffffffffffffffffffffffffffffff1688888781811062000a64577f4e487b7100000000000000000000000000000000000000000000000000000000600052603260045260246000fd5b905060200281019062000a78919062002787565b60405160240162000a8a9190620026cf565b6040516020818303038152906040527ee0bbd6000000000000000000000000000000000000000000000000000000007bffffffffffffffffffffffffffffffffffffffffffffffffffffffff19166020820180517bffffffffffffffffffffffffffffffffffffffffffffffffffffffff838183161783525050505060405162000b159190620023d8565b6000604051808303816000865af19150503d806000811462000b54576040519150601f19603f3d011682016040523d82523d6000602084013e62000b59565b606091505b50915091508162000b6957600080fd5b87878681811062000ba3577f4e487b7100000000000000000000000000000000000000000000000000000000600052603260045260246000fd5b905060200281019062000bb7919062002787565b604001602081019062000bcb919062001fca565b600886600a811062000c06577f4e487b7100000000000000000000000000000000000000000000000000000000600052603260045260246000fd5b0160006101000a81548173ffffffffffffffffffffffffffffffffffffffff021916908373ffffffffffffffffffffffffffffffffffffffff16021790555050505050808062000c569062002daf565b9150506200062f565b506064811462000ca6576040517f08c379a000000000000000000000000000000000000000000000000000000000815260040162000c9d9062002669565b60405180910390fd5b7f0b6d6ffbef9e34206247fccb3ee5ac6346aea764c4dbdf8a8e4a39b4a6232e7a60405160405180910390a1505050565b60008054906101000a900473ffffffffffffffffffffffffffffffffffffffff1673ffffffffffffffffffffffffffffffffffffffff163373ffffffffffffffffffffffffffffffffffffffff161462000d3057600080fd5b60008060009054906101000a900473ffffffffffffffffffffffffffffffffffffffff1673ffffffffffffffffffffffffffffffffffffffff166108fc839081150290604051600060405180830381858888f1935050505090508062000dcd576040517f08c379a000000000000000000000000000000000000000000000000000000000815260040162000dc490620026ad565b60405180910390fd5b7f30112c78349a4e44c6aaf4caae9efa4a92a54a17c56db6f1c7a6787bf849f7cf8260405162000dfe9190620026f3565b60405180910390a15050565b60008054906101000a900473ffffffffffffffffffffffffffffffffffffffff1673ffffffffffffffffffffffffffffffffffffffff163373ffffffffffffffffffffffffffffffffffffffff161462000e6357600080fd5b6000600260009054906101000a900473ffffffffffffffffffffffffffffffffffffffff1673ffffffffffffffffffffffffffffffffffffffff166370a08231306040518263ffffffff1660e01b815260040162000ec2919062002421565b60206040518083038186803b15801562000edb57600080fd5b505afa15801562000ef0573d6000803e3d6000fd5b505050506040513d601f19601f8201168201806040525081019062000f169190620020c3565b90508082111562000f5e576040517f08c379a000000000000000000000000000000000000000000000000000000000815260040162000f559062002647565b60405180910390fd5b6000600260009054906101000a900473ffffffffffffffffffffffffffffffffffffffff1673ffffffffffffffffffffffffffffffffffffffff1663a9059cbb60008054906101000a900473ffffffffffffffffffffffffffffffffffffffff16856040518363ffffffff1660e01b815260040162000fdf92919062002498565b602060405180830381600087803b15801562000ffa57600080fd5b505af11580156200100f573d6000803e3d6000fd5b505050506040513d601f19601f820116820180604052508101906200103591906200203f565b9050806200107a576040517f08c379a00000000000000000000000000000000000000000000000000000000081526004016200107190620026ad565b60405180910390fd5b82600660008282546200108e9190620029aa565b925050819055507fa1b70b2da8e7a04aca7f4ac1fb6eb27021e952fd8aa19f5d5b245b5f2bdb748783604051620010c69190620026f3565b60405180910390a1505050565b60008054906101000a900473ffffffffffffffffffffffffffffffffffffffff1673ffffffffffffffffffffffffffffffffffffffff163373ffffffffffffffffffffffffffffffffffffffff16146200112c57600080fd5b6000600260009054906101000a900473ffffffffffffffffffffffffffffffffffffffff1673ffffffffffffffffffffffffffffffffffffffff166370a08231306040518263ffffffff1660e01b81526004016200118b919062002421565b60206040518083038186803b158015620011a457600080fd5b505afa158015620011b9573d6000803e3d6000fd5b505050506040513d601f19601f82011682018060405250810190620011df9190620020c3565b90506000600260009054906101000a900473ffffffffffffffffffffffffffffffffffffffff1673ffffffffffffffffffffffffffffffffffffffff1663a9059cbb60008054906101000a900473ffffffffffffffffffffffffffffffffffffffff16846040518363ffffffff1660e01b81526004016200126292919062002498565b602060405180830381600087803b1580156200127d57600080fd5b505af115801562001292573d6000803e3d6000fd5b505050506040513d601f19601f82011682018060405250810190620012b891906200203f565b905080620012fd576040517f08c379a0000000000000000000000000000000000000000000000000000000008152600401620012f490620026ad565b60405180910390fd5b60008054906101000a900473ffffffffffffffffffffffffffffffffffffffff1673ffffffffffffffffffffffffffffffffffffffff16ff5b60055481565b60065481565b6000600760009054906101000a900463ffffffff16336040516020016200136b929190620023f1565b6040516020818303038152906040528051906020012090506000601260008381526020019081526020016000206001015411620013a757600080fd5b7f4f2513b5e936b68be23cb71b4fdcd6a014d2fa846affc4e2ac3caf4876da7da7336012600084815260200190815260200160002060010154604051620013f0929190620024f2565b60405180910390a160006012600083815260200190815260200160002060030160009054906101000a900473ffffffffffffffffffffffffffffffffffffffff16905060008190506012600084815260200190815260200160002060050160009054906101000a900460ff1615620014f9577f28c0b4699f02b30aed7da1df0eec405d3ae698fc885158ff77a3db6662628e9560405160405180910390a18073ffffffffffffffffffffffffffffffffffffffff16633ccfd60b6040518163ffffffff1660e01b8152600401600060405180830381600087803b158015620014d757600080fd5b505af1158015620014ec573d6000803e3d6000fd5b5050505050505062001782565b426005546004546200150c9190620028b4565b106200151757600080fd5b60006012600085815260200190815260200160002060010154606460065462001541919062002911565b6200154d919062002949565b90507f66494a70baf38d5e38c56e9f3a85f134cee1018b8246783591741f549746353983824760405162001584939291906200251f565b60405180910390a1600260009054906101000a900473ffffffffffffffffffffffffffffffffffffffff1673ffffffffffffffffffffffffffffffffffffffff1663095ea7b384836040518363ffffffff1660e01b8152600401620015eb929190620024f2565b602060405180830381600087803b1580156200160657600080fd5b505af11580156200161b573d6000803e3d6000fd5b505050506040513d601f19601f820116820180604052508101906200164191906200203f565b508173ffffffffffffffffffffffffffffffffffffffff1663743e0c9b826040518263ffffffff1660e01b81526004016200167d9190620026f3565b600060405180830381600087803b1580156200169857600080fd5b505af1158015620016ad573d6000803e3d6000fd5b5050505060016012600086815260200190815260200160002060050160006101000a81548160ff0219169083151502179055507f5ac9dfc3f57c826f2dec73a1c81f01956366fd1078a8fc9a2d0fe3bce84571db838260405162001713929190620024f2565b60405180910390a18173ffffffffffffffffffffffffffffffffffffffff16633ccfd60b6040518163ffffffff1660e01b8152600401600060405180830381600087803b1580156200176457600080fd5b505af115801562001779573d6000803e3d6000fd5b50505050505050505b565b6012602052806000526040600020600091509050806000018054620017a99062002d5b565b80601f0160208091040260200160405190810160405280929190818152602001828054620017d79062002d5b565b8015620018285780601f10620017fc5761010080835404028352916020019162001828565b820191906000526020600020905b8154815290600101906020018083116200180a57829003601f168201915b5050505050908060010154908060020160009054906101000a900473ffffffffffffffffffffffffffffffffffffffff16908060030160009054906101000a900473ffffffffffffffffffffffffffffffffffffffff16908060040154908060050160009054906101000a900460ff16905086565b60008054906101000a900473ffffffffffffffffffffffffffffffffffffffff1673ffffffffffffffffffffffffffffffffffffffff163373ffffffffffffffffffffffffffffffffffffffff1614620018f657600080fd5b8060058190555050565b600042600554600454620019159190620028b4565b10905090565b60035481565b60008060009054906101000a900473ffffffffffffffffffffffffffffffffffffffff1673ffffffffffffffffffffffffffffffffffffffff163373ffffffffffffffffffffffffffffffffffffffff16146200197d57600080fd5b600454905090565b60008054906101000a900473ffffffffffffffffffffffffffffffffffffffff1673ffffffffffffffffffffffffffffffffffffffff163373ffffffffffffffffffffffffffffffffffffffff1614620019de57600080fd5b7f4d6ce1e535dbade1c23defba91e23b8f791ce5edc0cc320257a2b364e4e384263460405162001a0f9190620026f3565b60405180910390a1565b600760009054906101000a900463ffffffff1681565b60008054906101000a900473ffffffffffffffffffffffffffffffffffffffff1673ffffffffffffffffffffffffffffffffffffffff163373ffffffffffffffffffffffffffffffffffffffff161462001a8857600080fd5b42600481905550565b60008054906101000a900473ffffffffffffffffffffffffffffffffffffffff1673ffffffffffffffffffffffffffffffffffffffff163373ffffffffffffffffffffffffffffffffffffffff161462001aea57600080fd5b6000600260009054906101000a900473ffffffffffffffffffffffffffffffffffffffff1673ffffffffffffffffffffffffffffffffffffffff166370a0823160008054906101000a900473ffffffffffffffffffffffffffffffffffffffff166040518263ffffffff1660e01b815260040162001b6991906200243e565b60206040518083038186803b15801562001b8257600080fd5b505afa15801562001b97573d6000803e3d6000fd5b505050506040513d601f19601f8201168201806040525081019062001bbd9190620020c3565b90508082111562001c05576040517f08c379a000000000000000000000000000000000000000000000000000000000815260040162001bfc9062002647565b60405180910390fd5b6000600260009054906101000a900473ffffffffffffffffffffffffffffffffffffffff1673ffffffffffffffffffffffffffffffffffffffff166323b872dd60008054906101000a900473ffffffffffffffffffffffffffffffffffffffff1630866040518463ffffffff1660e01b815260040162001c88939291906200245b565b602060405180830381600087803b15801562001ca357600080fd5b505af115801562001cb8573d6000803e3d6000fd5b505050506040513d601f19601f8201168201806040525081019062001cde91906200203f565b90508062001d23576040517f08c379a000000000000000000000000000000000000000000000000000000000815260040162001d1a906200268b565b60405180910390fd5b826006600082825462001d379190620028b4565b925050819055507ff1b3be8dace0fecfbdb6fb0fa1cc014c612bcb1b46db027c1ece5fc11fff09d68360405162001d6f9190620026f3565b60405180910390a1505050565b600080600760009054906101000a900463ffffffff163360405160200162001da6929190620023f1565b604051602081830303815290604052805190602001209050600060126000838152602001908152602001600020600101541191505090565b6001601360003373ffffffffffffffffffffffffffffffffffffffff1673ffffffffffffffffffffffffffffffffffffffff16815260200190815260200160002060006101000a81548160ff0219169083151502179055507fd7852850994579617e77cd65a3e665534f352cefb60af8fa1c892900176611a433601360003373ffffffffffffffffffffffffffffffffffffffff1673ffffffffffffffffffffffffffffffffffffffff16815260200190815260200160002060009054906101000a900460ff1660405162001eb5929190620024c5565b60405180910390a1565b600260009054906101000a900473ffffffffffffffffffffffffffffffffffffffff1681565b610ce0806200331283390190565b60008135905062001f0481620032a4565b92915050565b60008083601f84011262001f1d57600080fd5b8235905067ffffffffffffffff81111562001f3757600080fd5b60208301915083602082028301111562001f5057600080fd5b9250929050565b60008135905062001f6881620032be565b92915050565b60008151905062001f7f81620032be565b92915050565b60008135905062001f9681620032d8565b92915050565b60008135905062001fad81620032f2565b92915050565b60008151905062001fc481620032f2565b92915050565b60006020828403121562001fdd57600080fd5b600062001fed8482850162001ef3565b91505092915050565b600080602083850312156200200a57600080fd5b600083013567ffffffffffffffff8111156200202557600080fd5b620020338582860162001f0a565b92509250509250929050565b6000602082840312156200205257600080fd5b6000620020628482850162001f6e565b91505092915050565b6000602082840312156200207e57600080fd5b60006200208e8482850162001f85565b91505092915050565b600060208284031215620020aa57600080fd5b6000620020ba8482850162001f9c565b91505092915050565b600060208284031215620020d657600080fd5b6000620020e68482850162001fb3565b91505092915050565b620020fa8162002a70565b82525050565b6200210b81620029e5565b82525050565b6200211c81620029e5565b82525050565b620021376200213182620029e5565b62002e2f565b82525050565b6200214881620029f9565b82525050565b6200215981620029f9565b82525050565b60006200216c82620027c1565b620021788185620027e2565b93506200218a81856020860162002c43565b80840191505092915050565b620021a18162002aac565b82525050565b6000620021b58385620027ed565b9350620021c483858462002c34565b620021cf8362002fad565b840190509392505050565b6000620021e782620027d7565b620021f38185620027fe565b93506200220581856020860162002c43565b620022108162002fad565b840191505092915050565b60006200222a601483620027fe565b915062002237826200301b565b602082019050919050565b600062002251602483620027fe565b91506200225e8262003044565b604082019050919050565b600062002278601583620027fe565b9150620022858262003093565b602082019050919050565b60006200229f601583620027fe565b9150620022ac82620030bc565b602082019050919050565b600060c08301620022cc600084018462002841565b8583036000870152620022e1838284620021a7565b92505050620022f460208401846200289b565b6200230360208601826200238a565b506200231360408401846200280f565b62002322604086018262002100565b506200233260608401846200280f565b62002341606086018262002100565b506200235160808401846200289b565b6200236060808601826200238a565b506200237060a084018462002828565b6200237f60a08601826200213d565b508091505092915050565b620023958162002a2f565b82525050565b620023a68162002a2f565b82525050565b620023b78162002a39565b82525050565b620023d2620023cc8262002a39565b62002e57565b82525050565b6000620023e682846200215f565b915081905092915050565b6000620023ff8285620023bd565b60048201915062002411828462002122565b6014820191508190509392505050565b600060208201905062002438600083018462002111565b92915050565b6000602082019050620024556000830184620020ef565b92915050565b6000606082019050620024726000830186620020ef565b62002481602083018562002111565b6200249060408301846200239b565b949350505050565b6000604082019050620024af6000830185620020ef565b620024be60208301846200239b565b9392505050565b6000604082019050620024dc600083018562002111565b620024eb60208301846200214e565b9392505050565b600060408201905062002509600083018562002111565b6200251860208301846200239b565b9392505050565b600060608201905062002536600083018662002111565b6200254560208301856200239b565b6200255460408301846200239b565b949350505050565b60006020820190506200257360008301846200214e565b92915050565b600060208201905062002590600083018462002196565b92915050565b6000606082019050620025ad600083018662002196565b620025bc60208301856200239b565b620025cb604083018462002111565b949350505050565b600060c0820190508181036000830152620025ef8189620021da565b90506200260060208301886200239b565b6200260f604083018762002111565b6200261e606083018662002111565b6200262d60808301856200239b565b6200263c60a08301846200214e565b979650505050505050565b6000602082019050818103600083015262002662816200221b565b9050919050565b60006020820190508181036000830152620026848162002242565b9050919050565b60006020820190508181036000830152620026a68162002269565b9050919050565b60006020820190508181036000830152620026c88162002290565b9050919050565b60006020820190508181036000830152620026eb8184620022b7565b905092915050565b60006020820190506200270a60008301846200239b565b92915050565b6000602082019050620027276000830184620023ac565b92915050565b600080833560016020038436030381126200274757600080fd5b80840192508235915067ffffffffffffffff8211156200276657600080fd5b6020830192506001820236038313156200277f57600080fd5b509250929050565b60008235600160c003833603038112620027a057600080fd5b80830191505092915050565b60008190508160005260206000209050919050565b600081519050919050565b600082905092915050565b600081519050919050565b600081905092915050565b600082825260208201905092915050565b600082825260208201905092915050565b600062002820602084018462001ef3565b905092915050565b600062002839602084018462001f57565b905092915050565b600080833560016020038436030381126200285b57600080fd5b83810192508235915060208301925067ffffffffffffffff8211156200288057600080fd5b6001820236038413156200289357600080fd5b509250929050565b6000620028ac602084018462001f9c565b905092915050565b6000620028c18262002a2f565b9150620028ce8362002a2f565b9250827fffffffffffffffffffffffffffffffffffffffffffffffffffffffffffffffff0382111562002906576200290562002e8b565b5b828201905092915050565b60006200291e8262002a2f565b91506200292b8362002a2f565b9250826200293e576200293d62002eba565b5b828204905092915050565b6000620029568262002a2f565b9150620029638362002a2f565b9250817fffffffffffffffffffffffffffffffffffffffffffffffffffffffffffffffff04831182151516156200299f576200299e62002e8b565b5b828202905092915050565b6000620029b78262002a2f565b9150620029c48362002a2f565b925082821015620029da57620029d962002e8b565b5b828203905092915050565b6000620029f28262002a0f565b9050919050565b60008115159050919050565b6000819050919050565b600073ffffffffffffffffffffffffffffffffffffffff82169050919050565b6000819050919050565b600063ffffffff82169050919050565b5b8181101562002a6c5762002a6060008262002fff565b60018101905062002a4a565b5050565b600062002a7d8262002ad4565b9050919050565b600062002a918262002ad4565b9050919050565b600062002aa582620029f9565b9050919050565b600062002ab98262002ac0565b9050919050565b600062002acd8262002a0f565b9050919050565b600062002ae18262002ae8565b9050919050565b600062002af58262002a0f565b9050919050565b600062002b098262002a2f565b9050919050565b62002b1c8383620027cc565b67ffffffffffffffff81111562002b385762002b3762002f18565b5b62002b44825462002d5b565b600080601f8411601f8411171562002b645762002b6185620027ac565b90505b601f83111562002b9b576020601f8501048101602085101562002b85578190505b62002b996020601f86010483018262002a49565b505b601f84116001811462002bcd576000851562002bb8578388013590505b62002bc4868262002d91565b87555062002c2a565b601f1985168260005b8281101562002bfd57858a0135825560018201915060208601955060208101905062002bd6565b8783101562002c1d57858a013562002c19601f8a168262002e6b565b8355505b6001600289020189555050505b5050505050505050565b82818337600083830152505050565b60005b8381101562002c6357808201518184015260208101905062002c46565b8381111562002c73576000848401525b50505050565b600081016000830162002c8d81856200272d565b62002c9a8183866200322e565b5050505060018101602083018062002cb28162002f95565b905062002cc0818462003250565b50505060028101604083018062002cd78162002f65565b905062002ce58184620031dc565b50505060038101606083018062002cfc8162002f65565b905062002d0a8184620031dc565b50505060048101608083018062002d218162002f95565b905062002d2f818462003250565b5050506005810160a083018062002d468162002f7d565b905062002d54818462003205565b5050505050565b6000600282049050600182168062002d7457607f821691505b6020821081141562002d8b5762002d8a62002ee9565b5b50919050565b600062002d9f838362002e6b565b9150826002028217905092915050565b600062002dbc8262002a2f565b91507fffffffffffffffffffffffffffffffffffffffffffffffffffffffffffffffff82141562002df25762002df162002e8b565b5b600182019050919050565b600062002e0a8262002a39565b915063ffffffff82141562002e245762002e2362002e8b565b5b600182019050919050565b600062002e3c8262002e43565b9050919050565b600062002e508262002fd8565b9050919050565b600062002e648262002fcb565b9050919050565b600062002e7e6000198460080262002ff2565b1980831691505092915050565b7f4e487b7100000000000000000000000000000000000000000000000000000000600052601160045260246000fd5b7f4e487b7100000000000000000000000000000000000000000000000000000000600052601260045260246000fd5b7f4e487b7100000000000000000000000000000000000000000000000000000000600052602260045260246000fd5b7f4e487b7100000000000000000000000000000000000000000000000000000000600052604160045260246000fd5b6000819050919050565b6000819050919050565b6000819050919050565b6000813562002f7481620032a4565b80915050919050565b6000813562002f8c81620032be565b80915050919050565b6000813562002fa481620032f2565b80915050919050565b6000601f19601f8301169050919050565b60008160001b9050919050565b60008160e01b9050919050565b60008160601b9050919050565b600082821b905092915050565b600082821c905092915050565b620030096200330c565b6200301681848462003279565b505050565b7f496e73756666696369656e742062616c616e6365000000000000000000000000600082015250565b7f73756d206f66207368617265732073686f756c6420626520657175616c20746f60008201527f2031303000000000000000000000000000000000000000000000000000000000602082015250565b7f4661696c656420746f2073656e6420746f6b656e730000000000000000000000600082015250565b7f4661696c656420746f2073656e7420746f6b656e730000000000000000000000600082015250565b600060ff620030f48462002fbe565b9350801983169250808416831791505092915050565b600073ffffffffffffffffffffffffffffffffffffffff6200312c8462002fbe565b9350801983169250808416831791505092915050565b60007fffffffffffffffffffffffffffffffffffffffffffffffffffffffffffffffff620031708462002fbe565b9350801983169250808416831791505092915050565b600060088302620031b87fffffffffffffffffffffffffffffffffffffffffffffffffffffffffffffffff8262002fe5565b620031c4868362002fe5565b95508019841693508086168417925050509392505050565b620031e78262002a84565b620031fe620031f68262002f47565b83546200310a565b8255505050565b620032108262002a98565b620032276200321f8262002f51565b8354620030e5565b8255505050565b6200323b83838362002b10565b505050565b6200324c828262002c79565b5050565b6200325b8262002afc565b620032726200326a8262002f5b565b835462003142565b8255505050565b620032848362002afc565b6200329c620032938262002f5b565b84845462003186565b825550505050565b620032af81620029e5565b8114620032bb57600080fd5b50565b620032c981620029f9565b8114620032d557600080fd5b50565b620032e38162002a05565b8114620032ef57600080fd5b50565b620032fd8162002a2f565b81146200330957600080fd5b50565b60009056fe60806040523480156200001157600080fd5b5060405162000ce038038062000ce083398181016040528101906200003791906200015f565b33600260006101000a81548173ffffffffffffffffffffffffffffffffffffffff021916908373ffffffffffffffffffffffffffffffffffffffff16021790555081600081905550600060058190555080600360006101000a81548173ffffffffffffffffffffffffffffffffffffffff021916908373ffffffffffffffffffffffffffffffffffffffff160217905550600060018190555082600460006101000a81548173ffffffffffffffffffffffffffffffffffffffff021916908373ffffffffffffffffffffffffffffffffffffffff16021790555050505062000255565b6000815190506200012b8162000207565b92915050565b600081519050620001428162000221565b92915050565b60008151905062000159816200023b565b92915050565b6000806000606084860312156200017557600080fd5b6000620001858682870162000131565b9350506020620001988682870162000148565b9250506040620001ab868287016200011a565b9150509250925092565b6000620001c282620001dd565b9050919050565b6000620001d682620001b5565b9050919050565b600073ffffffffffffffffffffffffffffffffffffffff82169050919050565b6000819050919050565b6200021281620001b5565b81146200021e57600080fd5b50565b6200022c81620001c9565b81146200023857600080fd5b50565b6200024681620001fd565b81146200025257600080fd5b50565b610a7b80620002656000396000f3fe608060405234801561001057600080fd5b50600436106100575760003560e01c806334a014dc1461005c5780633ccfd60b1461007a578063743e0c9b14610084578063b69ef8a8146100a0578063b74126cc146100be575b600080fd5b6100646100dc565b6040516100719190610898565b60405180910390f35b6100826100e2565b005b61009e60048036038101906100999190610727565b6103d9565b005b6100a86106b3565b6040516100b59190610898565b60405180910390f35b6100c66106b9565b6040516100d39190610898565b60405180910390f35b60055481565b600260009054906101000a900473ffffffffffffffffffffffffffffffffffffffff1673ffffffffffffffffffffffffffffffffffffffff163373ffffffffffffffffffffffffffffffffffffffff161461013c57600080fd5b6000600460009054906101000a900473ffffffffffffffffffffffffffffffffffffffff1673ffffffffffffffffffffffffffffffffffffffff166370a08231306040518263ffffffff1660e01b815260040161019991906107dd565b60206040518083038186803b1580156101b157600080fd5b505afa1580156101c5573d6000803e3d6000fd5b505050506040513d601f19601f820116820180604052508101906101e99190610750565b9050600081116101f857600080fd5b62278d0060055461020991906108c4565b421161021457600080fd5b600081600054106102255781610229565b6000545b90506000600460009054906101000a900473ffffffffffffffffffffffffffffffffffffffff1673ffffffffffffffffffffffffffffffffffffffff1663a9059cbb600360009054906101000a900473ffffffffffffffffffffffffffffffffffffffff16846040518363ffffffff1660e01b81526004016102ac92919061082f565b602060405180830381600087803b1580156102c657600080fd5b505af11580156102da573d6000803e3d6000fd5b505050506040513d601f19601f820116820180604052508101906102fe91906106fe565b905080610340576040517f08c379a000000000000000000000000000000000000000000000000000000000815260040161033790610878565b60405180910390fd5b7f3bfe81dec3f91b4f148acb63cf0044cf5f14ec020bf957f38b377e854293ebe4600360009054906101000a900473ffffffffffffffffffffffffffffffffffffffff168360405161039392919061082f565b60405180910390a181600660008282546103ad91906108c4565b925050819055504260058190555081600160008282546103cd919061091a565b92505081905550505050565b600260009054906101000a900473ffffffffffffffffffffffffffffffffffffffff1673ffffffffffffffffffffffffffffffffffffffff163373ffffffffffffffffffffffffffffffffffffffff161461043357600080fd5b6000600460009054906101000a900473ffffffffffffffffffffffffffffffffffffffff1673ffffffffffffffffffffffffffffffffffffffff166370a08231600260009054906101000a900473ffffffffffffffffffffffffffffffffffffffff166040518263ffffffff1660e01b81526004016104b291906107dd565b60206040518083038186803b1580156104ca57600080fd5b505afa1580156104de573d6000803e3d6000fd5b505050506040513d601f19601f820116820180604052508101906105029190610750565b905080821115610547576040517f08c379a000000000000000000000000000000000000000000000000000000000815260040161053e90610858565b60405180910390fd5b6000600460009054906101000a900473ffffffffffffffffffffffffffffffffffffffff1673ffffffffffffffffffffffffffffffffffffffff166323b872dd600260009054906101000a900473ffffffffffffffffffffffffffffffffffffffff1630866040518463ffffffff1660e01b81526004016105ca939291906107f8565b602060405180830381600087803b1580156105e457600080fd5b505af11580156105f8573d6000803e3d6000fd5b505050506040513d601f19601f8201168201806040525081019061061c91906106fe565b90508061065e576040517f08c379a000000000000000000000000000000000000000000000000000000000815260040161065590610878565b60405180910390fd5b826001600082825461067091906108c4565b925050819055507fbcdc7071c1beb6dcf2744621e0b29a2f2432ee20812d9ca5e3d5e8f9308d93a3836040516106a69190610898565b60405180910390a1505050565b60015481565b60065481565b6000815190506106ce81610a17565b92915050565b6000813590506106e381610a2e565b92915050565b6000815190506106f881610a2e565b92915050565b60006020828403121561071057600080fd5b600061071e848285016106bf565b91505092915050565b60006020828403121561073957600080fd5b6000610747848285016106d4565b91505092915050565b60006020828403121561076257600080fd5b6000610770848285016106e9565b91505092915050565b6107828161094e565b82525050565b60006107956012836108b3565b91506107a0826109c5565b602082019050919050565b60006107b86015836108b3565b91506107c3826109ee565b602082019050919050565b6107d78161098c565b82525050565b60006020820190506107f26000830184610779565b92915050565b600060608201905061080d6000830186610779565b61081a6020830185610779565b61082760408301846107ce565b949350505050565b60006040820190506108446000830185610779565b61085160208301846107ce565b9392505050565b6000602082019050818103600083015261087181610788565b9050919050565b60006020820190508181036000830152610891816107ab565b9050919050565b60006020820190506108ad60008301846107ce565b92915050565b600082825260208201905092915050565b60006108cf8261098c565b91506108da8361098c565b9250827fffffffffffffffffffffffffffffffffffffffffffffffffffffffffffffffff0382111561090f5761090e610996565b5b828201905092915050565b60006109258261098c565b91506109308361098c565b92508282101561094357610942610996565b5b828203905092915050565b60006109598261096c565b9050919050565b60008115159050919050565b600073ffffffffffffffffffffffffffffffffffffffff82169050919050565b6000819050919050565b7f4e487b7100000000000000000000000000000000000000000000000000000000600052601160045260246000fd5b7f496e73756666696369656e742066756e64730000000000000000000000000000600082015250565b7f4661696c656420746f2073656e6420746f6b656e730000000000000000000000600082015250565b610a2081610960565b8114610a2b57600080fd5b50565b610a378161098c565b8114610a4257600080fd5b5056fea2646970667358221220a4f28f2a852dd983e397dc183bb2a83fba2e38f53debd8f152b352d4401838e164736f6c63430008040033a2646970667358221220f190e4986f5bd7be30e3b20d7a9f28817558bef0eef792dcf225fe5da75f149964736f6c63430008040033a26469706673582212202097ba764a7dda6f699a54846af365d49d828e06afbe7321b950f7cdafb7de5f64736f6c63430008040033",
  "immutableReferences": {},
  "source": "pragma solidity >=0.8.4 <0.9.0;\n\nimport \"./Heritage.sol\";\n\ncontract Factory {\n  mapping(address => address[]) public ownerToContracts;\n  mapping(address => uint) public ownerToContractsNumber;\n  mapping(address => address[]) public successorToContracts;\n  mapping(address => uint) public contractToSuccessorNumber;\n  mapping(address => uint) public successorToContractsNumber;\n  mapping(address => string) public contractNames;\n\n  function create(string calldata name, address token, uint secondsToRelease) public {\n    Heritage newContract = new Heritage(secondsToRelease, token, msg.sender, address(this));\n    contractNames[address(newContract)] = name;\n    ownerToContracts[msg.sender].push(address(newContract));\n    ownerToContractsNumber[msg.sender] += 1;\n  }\n\n  function setSuccessor(Successor calldata newSuccessor) public {\n    require(bytes(contractNames[msg.sender]).length > 0, \"Contract doesn't exists\");\n    successorToContracts[newSuccessor.wallet].push(msg.sender);\n    successorToContractsNumber[newSuccessor.wallet] += 1;\n    contractToSuccessorNumber[msg.sender] += 1;\n  }\n}\n",
  "sourcePath": "/Users/kovalas/Solidity/Legacy/contracts/Factory.sol",
  "compiler": {
    "name": "solc",
    "version": "0.8.4+commit.c7e474f2.Emscripten.clang"
  },
  "schemaVersion": "3.4.9",
  "updatedAt": "2023-01-03T00:25:54.634Z",
  "networkType": "ethereum",
  "devdoc": {
    "kind": "dev",
    "methods": {},
    "version": 1
  },
  "userdoc": {
    "kind": "user",
    "methods": {},
    "version": 1
  }
}