{
  "contractName": "Heritage",
  "abi": [
    {
      "inputs": [
        {
          "internalType": "uint256",
          "name": "unlockTimeline",
          "type": "uint256"
        },
        {
          "internalType": "address",
          "name": "tokenAddress",
          "type": "address"
        },
        {
          "internalType": "address",
          "name": "creator",
          "type": "address"
        },
        {
          "internalType": "address",
          "name": "parent",
          "type": "address"
        }
      ],
      "stateMutability": "nonpayable",
      "type": "constructor"
    },
    {
      "anonymous": false,
      "inputs": [],
      "name": "DelegateCallToDispenser",
      "type": "event"
    },
    {
      "anonymous": false,
      "inputs": [
        {
          "indexed": false,
          "internalType": "uint256",
          "name": "amount",
          "type": "uint256"
        }
      ],
      "name": "Deposit",
      "type": "event"
    },
    {
      "anonymous": false,
      "inputs": [
        {
          "indexed": false,
          "internalType": "address",
          "name": "successor",
          "type": "address"
        },
        {
          "indexed": false,
          "internalType": "uint256",
          "name": "amount",
          "type": "uint256"
        }
      ],
      "name": "FundsTransfered",
      "type": "event"
    },
    {
      "anonymous": false,
      "inputs": [
        {
          "indexed": false,
          "internalType": "address",
          "name": "successor",
          "type": "address"
        }
      ],
      "name": "InvalidSuccessor",
      "type": "event"
    },
    {
      "anonymous": false,
      "inputs": [
        {
          "indexed": false,
          "internalType": "address",
          "name": "successor",
          "type": "address"
        },
        {
          "indexed": false,
          "internalType": "bool",
          "name": "isRegistered",
          "type": "bool"
        }
      ],
      "name": "RegisterSuccessor",
      "type": "event"
    },
    {
      "anonymous": false,
      "inputs": [
        {
          "indexed": false,
          "internalType": "address",
          "name": "dispenser",
          "type": "address"
        },
        {
          "indexed": false,
          "internalType": "uint256",
          "name": "amount",
          "type": "uint256"
        },
        {
          "indexed": false,
          "internalType": "uint256",
          "name": "balance",
          "type": "uint256"
        }
      ],
      "name": "ReleasingFunds",
      "type": "event"
    },
    {
      "anonymous": false,
      "inputs": [],
      "name": "SetSuccessors",
      "type": "event"
    },
    {
      "anonymous": false,
      "inputs": [
        {
          "indexed": false,
          "internalType": "address",
          "name": "successor",
          "type": "address"
        },
        {
          "indexed": false,
          "internalType": "uint256",
          "name": "share",
          "type": "uint256"
        }
      ],
      "name": "SuccessorClaimingShare",
      "type": "event"
    },
    {
      "anonymous": false,
      "inputs": [
        {
          "indexed": false,
          "internalType": "uint256",
          "name": "amount",
          "type": "uint256"
        }
      ],
      "name": "TokenDeposit",
      "type": "event"
    },
    {
      "anonymous": false,
      "inputs": [
        {
          "indexed": false,
          "internalType": "uint256",
          "name": "amount",
          "type": "uint256"
        }
      ],
      "name": "TokenWithdrowal",
      "type": "event"
    },
    {
      "anonymous": false,
      "inputs": [
        {
          "indexed": false,
          "internalType": "uint256",
          "name": "amount",
          "type": "uint256"
        }
      ],
      "name": "Withdrowal",
      "type": "event"
    },
    {
      "inputs": [
        {
          "internalType": "uint256",
          "name": "",
          "type": "uint256"
        }
      ],
      "name": "listOfSuccessors",
      "outputs": [
        {
          "internalType": "address",
          "name": "",
          "type": "address"
        }
      ],
      "stateMutability": "view",
      "type": "function"
    },
    {
      "inputs": [],
      "name": "maxPeriodOfSilense",
      "outputs": [
        {
          "internalType": "uint256",
          "name": "",
          "type": "uint256"
        }
      ],
      "stateMutability": "view",
      "type": "function"
    },
    {
      "inputs": [],
      "name": "numberOfSuccessors",
      "outputs": [
        {
          "internalType": "uint256",
          "name": "",
          "type": "uint256"
        }
      ],
      "stateMutability": "view",
      "type": "function"
    },
    {
      "inputs": [
        {
          "internalType": "address",
          "name": "",
          "type": "address"
        }
      ],
      "name": "potentialSuccessors",
      "outputs": [
        {
          "internalType": "bool",
          "name": "",
          "type": "bool"
        }
      ],
      "stateMutability": "view",
      "type": "function"
    },
    {
      "inputs": [
        {
          "internalType": "bytes32",
          "name": "",
          "type": "bytes32"
        }
      ],
      "name": "successors",
      "outputs": [
        {
          "internalType": "string",
          "name": "name",
          "type": "string"
        },
        {
          "internalType": "uint256",
          "name": "share",
          "type": "uint256"
        },
        {
          "internalType": "address",
          "name": "wallet",
          "type": "address"
        },
        {
          "internalType": "address",
          "name": "dispenser",
          "type": "address"
        },
        {
          "internalType": "uint256",
          "name": "maxPerMonth",
          "type": "uint256"
        },
        {
          "internalType": "bool",
          "name": "fundsBeenReleased",
          "type": "bool"
        }
      ],
      "stateMutability": "view",
      "type": "function"
    },
    {
      "inputs": [],
      "name": "successorsListVersion",
      "outputs": [
        {
          "internalType": "uint32",
          "name": "",
          "type": "uint32"
        }
      ],
      "stateMutability": "view",
      "type": "function"
    },
    {
      "inputs": [],
      "name": "token",
      "outputs": [
        {
          "internalType": "contract IERC20",
          "name": "",
          "type": "address"
        }
      ],
      "stateMutability": "view",
      "type": "function"
    },
    {
      "inputs": [],
      "name": "totalVolume",
      "outputs": [
        {
          "internalType": "uint256",
          "name": "",
          "type": "uint256"
        }
      ],
      "stateMutability": "view",
      "type": "function"
    },
    {
      "inputs": [],
      "name": "deposit",
      "outputs": [],
      "stateMutability": "payable",
      "type": "function"
    },
    {
      "inputs": [
        {
          "internalType": "uint256",
          "name": "amount",
          "type": "uint256"
        }
      ],
      "name": "withdraw",
      "outputs": [],
      "stateMutability": "nonpayable",
      "type": "function"
    },
    {
      "inputs": [
        {
          "internalType": "uint256",
          "name": "amount",
          "type": "uint256"
        }
      ],
      "name": "depositTokens",
      "outputs": [],
      "stateMutability": "nonpayable",
      "type": "function"
    },
    {
      "inputs": [
        {
          "internalType": "uint256",
          "name": "amount",
          "type": "uint256"
        }
      ],
      "name": "withdrawTokens",
      "outputs": [],
      "stateMutability": "nonpayable",
      "type": "function"
    },
    {
      "inputs": [
        {
          "internalType": "uint256",
          "name": "holdingPeriod",
          "type": "uint256"
        }
      ],
      "name": "updateMaxPeriodOfSilence",
      "outputs": [],
      "stateMutability": "nonpayable",
      "type": "function"
    },
    {
      "inputs": [
        {
          "components": [
            {
              "internalType": "string",
              "name": "name",
              "type": "string"
            },
            {
              "internalType": "uint256",
              "name": "share",
              "type": "uint256"
            },
            {
              "internalType": "address",
              "name": "wallet",
              "type": "address"
            },
            {
              "internalType": "address",
              "name": "dispenser",
              "type": "address"
            },
            {
              "internalType": "uint256",
              "name": "maxPerMonth",
              "type": "uint256"
            },
            {
              "internalType": "bool",
              "name": "fundsBeenReleased",
              "type": "bool"
            }
          ],
          "internalType": "struct Successor[]",
          "name": "newSuccessors",
          "type": "tuple[]"
        }
      ],
      "name": "setSuccessors",
      "outputs": [],
      "stateMutability": "nonpayable",
      "type": "function"
    },
    {
      "inputs": [],
      "name": "checkIfImSuccessor",
      "outputs": [
        {
          "internalType": "bool",
          "name": "",
          "type": "bool"
        }
      ],
      "stateMutability": "view",
      "type": "function"
    },
    {
      "inputs": [],
      "name": "registerSuccessorApplicant",
      "outputs": [],
      "stateMutability": "nonpayable",
      "type": "function"
    },
    {
      "inputs": [],
      "name": "resetCountdownTimer",
      "outputs": [],
      "stateMutability": "nonpayable",
      "type": "function"
    },
    {
      "inputs": [],
      "name": "getCountdownValue",
      "outputs": [
        {
          "internalType": "uint256",
          "name": "",
          "type": "uint256"
        }
      ],
      "stateMutability": "view",
      "type": "function"
    },
    {
      "inputs": [],
      "name": "claimHeritage",
      "outputs": [],
      "stateMutability": "nonpayable",
      "type": "function"
    }
  ],
  "bytecode": "0x60806040523480156200001157600080fd5b5060405162003f9e38038062003f9e833981810160405281019062000037919062000169565b816000806101000a81548173ffffffffffffffffffffffffffffffffffffffff021916908373ffffffffffffffffffffffffffffffffffffffff16021790555082600260006101000a81548173ffffffffffffffffffffffffffffffffffffffff021916908373ffffffffffffffffffffffffffffffffffffffff16021790555060006003819055506000600760006101000a81548163ffffffff021916908363ffffffff160217905550426004819055508360058190555080600160006101000a81548173ffffffffffffffffffffffffffffffffffffffff021916908373ffffffffffffffffffffffffffffffffffffffff1602179055505050505062000247565b6000815190506200014c8162000213565b92915050565b60008151905062000163816200022d565b92915050565b600080600080608085870312156200018057600080fd5b6000620001908782880162000152565b9450506020620001a3878288016200013b565b9350506040620001b6878288016200013b565b9250506060620001c9878288016200013b565b91505092959194509250565b6000620001e282620001e9565b9050919050565b600073ffffffffffffffffffffffffffffffffffffffff82169050919050565b6000819050919050565b6200021e81620001d5565b81146200022a57600080fd5b50565b620002388162000209565b81146200024457600080fd5b50565b613d4780620002576000396000f3fe6080604052600436106200012e5760003560e01c80639640b69b11620000af578063dc33a841116200006d578063dc33a84114620003d2578063dd49756e14620003ec578063e60a74e9146200041a578063f9f8c7d7146200044a578063fc0c546a1462000464576200012e565b80639640b69b1462000308578063c5e697141462000336578063cefd35bc1462000366578063d0e30db01462000396578063d55aa5dc14620003a2576200012e565b8063315a095d11620000fd578063315a095d14620002175780635e93bdbe14620002455780635f81a57c1462000275578063733a798c14620002a557806386d9c9a814620002bf576200012e565b806304ddc620146200013357806312167bf41462000177578063146eb61514620001bb5780632e1a7d4d14620001e9575b600080fd5b3480156200014057600080fd5b506200015f600480360381019062000159919062001db7565b62000494565b6040516200016e919062002141565b60405180910390f35b3480156200018457600080fd5b50620001a360048036038101906200019d919062001cea565b620004cb565b604051620001b291906200227c565b60405180910390f35b348015620001c857600080fd5b50620001e76004803603810190620001e1919062001d16565b620004eb565b005b348015620001f657600080fd5b506200021560048036038101906200020f919062001db7565b62000c75565b005b3480156200022457600080fd5b506200024360048036038101906200023d919062001db7565b62000da8565b005b3480156200025257600080fd5b506200025d62001071565b6040516200026c919062002413565b60405180910390f35b3480156200028257600080fd5b506200028d62001077565b6040516200029c919062002413565b60405180910390f35b348015620002b257600080fd5b50620002bd6200107d565b005b348015620002cc57600080fd5b50620002eb6004803603810190620002e5919062001d8b565b620014bf565b604051620002ff96959493929190620022f3565b60405180910390f35b3480156200031557600080fd5b506200033460048036038101906200032e919062001db7565b620015d8565b005b3480156200034357600080fd5b506200034e6200163b565b6040516200035d919062002413565b60405180910390f35b3480156200037357600080fd5b506200037e62001641565b6040516200038d919062002413565b60405180910390f35b620003a0620016a5565b005b348015620003af57600080fd5b50620003ba62001739565b604051620003c9919062002430565b60405180910390f35b348015620003df57600080fd5b50620003ea6200174f565b005b348015620003f957600080fd5b5062000418600480360381019062000412919062001db7565b620017b1565b005b3480156200042757600080fd5b506200043262001a9c565b6040516200044191906200227c565b60405180910390f35b3480156200045757600080fd5b506200046262001afe565b005b3480156200047157600080fd5b506200047c62001bdf565b6040516200048b919062002299565b60405180910390f35b600881600a8110620004a557600080fd5b016000915054906101000a900473ffffffffffffffffffffffffffffffffffffffff1681565b60136020528060005260406000206000915054906101000a900460ff1681565b60008054906101000a900473ffffffffffffffffffffffffffffffffffffffff1673ffffffffffffffffffffffffffffffffffffffff163373ffffffffffffffffffffffffffffffffffffffff16146200054457600080fd5b7fc96e55fa8d403a1baa49c74451272db833044a289a3908e137c665f58a85d6ea3360405162000575919062002141565b60405180910390a160006007600081819054906101000a900463ffffffff1680929190620005a39062002b1d565b91906101000a81548163ffffffff021916908363ffffffff16021790555050600060038190555060005b8383905081101562000bfd576013600085858481811062000617577f4e487b7100000000000000000000000000000000000000000000000000000000600052603260045260246000fd5b90506020028101906200062b9190620024a7565b60400160208101906200063f919062001cea565b73ffffffffffffffffffffffffffffffffffffffff1673ffffffffffffffffffffffffffffffffffffffff16815260200190815260200160002060009054906101000a900460ff166200069157600080fd5b838382818110620006cb577f4e487b7100000000000000000000000000000000000000000000000000000000600052603260045260246000fd5b9050602002810190620006df9190620024a7565b6020013582620006f09190620025d4565b91506000600760009054906101000a900463ffffffff1685858481811062000741577f4e487b7100000000000000000000000000000000000000000000000000000000600052603260045260246000fd5b9050602002810190620007559190620024a7565b604001602081019062000769919062001cea565b6040516020016200077c92919062002111565b604051602081830303815290604052805190602001209050848483818110620007ce577f4e487b7100000000000000000000000000000000000000000000000000000000600052603260045260246000fd5b9050602002810190620007e29190620024a7565b60126000838152602001908152602001600020818162000803919062002f60565b9050506000600260009054906101000a900473ffffffffffffffffffffffffffffffffffffffff1686868581811062000865577f4e487b7100000000000000000000000000000000000000000000000000000000600052603260045260246000fd5b9050602002810190620008799190620024a7565b60800135878786818110620008b7577f4e487b7100000000000000000000000000000000000000000000000000000000600052603260045260246000fd5b9050602002810190620008cb9190620024a7565b6040016020810190620008df919062001cea565b604051620008ed9062001c05565b620008fb93929190620022b6565b604051809103906000f08015801562000918573d6000803e3d6000fd5b509050806012600084815260200190815260200160002060030160006101000a81548173ffffffffffffffffffffffffffffffffffffffff021916908373ffffffffffffffffffffffffffffffffffffffff160217905550600160036000828254620009859190620025d4565b92505081905550600080600160009054906101000a900473ffffffffffffffffffffffffffffffffffffffff1673ffffffffffffffffffffffffffffffffffffffff1688888781811062000a02577f4e487b7100000000000000000000000000000000000000000000000000000000600052603260045260246000fd5b905060200281019062000a169190620024a7565b60405160240162000a289190620023ef565b6040516020818303038152906040527ee0bbd6000000000000000000000000000000000000000000000000000000007bffffffffffffffffffffffffffffffffffffffffffffffffffffffff19166020820180517bffffffffffffffffffffffffffffffffffffffffffffffffffffffff838183161783525050505060405162000ab39190620020f8565b6000604051808303816000865af19150503d806000811462000af2576040519150601f19603f3d011682016040523d82523d6000602084013e62000af7565b606091505b50915091508162000b0757600080fd5b87878681811062000b41577f4e487b7100000000000000000000000000000000000000000000000000000000600052603260045260246000fd5b905060200281019062000b559190620024a7565b604001602081019062000b69919062001cea565b600886600a811062000ba4577f4e487b7100000000000000000000000000000000000000000000000000000000600052603260045260246000fd5b0160006101000a81548173ffffffffffffffffffffffffffffffffffffffff021916908373ffffffffffffffffffffffffffffffffffffffff16021790555050505050808062000bf49062002acf565b915050620005cd565b506064811462000c44576040517f08c379a000000000000000000000000000000000000000000000000000000000815260040162000c3b9062002389565b60405180910390fd5b7f0b6d6ffbef9e34206247fccb3ee5ac6346aea764c4dbdf8a8e4a39b4a6232e7a60405160405180910390a1505050565b60008054906101000a900473ffffffffffffffffffffffffffffffffffffffff1673ffffffffffffffffffffffffffffffffffffffff163373ffffffffffffffffffffffffffffffffffffffff161462000cce57600080fd5b60008060009054906101000a900473ffffffffffffffffffffffffffffffffffffffff1673ffffffffffffffffffffffffffffffffffffffff166108fc839081150290604051600060405180830381858888f1935050505090508062000d6b576040517f08c379a000000000000000000000000000000000000000000000000000000000815260040162000d6290620023cd565b60405180910390fd5b7f30112c78349a4e44c6aaf4caae9efa4a92a54a17c56db6f1c7a6787bf849f7cf8260405162000d9c919062002413565b60405180910390a15050565b60008054906101000a900473ffffffffffffffffffffffffffffffffffffffff1673ffffffffffffffffffffffffffffffffffffffff163373ffffffffffffffffffffffffffffffffffffffff161462000e0157600080fd5b6000600260009054906101000a900473ffffffffffffffffffffffffffffffffffffffff1673ffffffffffffffffffffffffffffffffffffffff166370a08231306040518263ffffffff1660e01b815260040162000e60919062002141565b60206040518083038186803b15801562000e7957600080fd5b505afa15801562000e8e573d6000803e3d6000fd5b505050506040513d601f19601f8201168201806040525081019062000eb4919062001de3565b90508082111562000efc576040517f08c379a000000000000000000000000000000000000000000000000000000000815260040162000ef39062002367565b60405180910390fd5b6000600260009054906101000a900473ffffffffffffffffffffffffffffffffffffffff1673ffffffffffffffffffffffffffffffffffffffff1663a9059cbb60008054906101000a900473ffffffffffffffffffffffffffffffffffffffff16856040518363ffffffff1660e01b815260040162000f7d929190620021b8565b602060405180830381600087803b15801562000f9857600080fd5b505af115801562000fad573d6000803e3d6000fd5b505050506040513d601f19601f8201168201806040525081019062000fd3919062001d5f565b90508062001018576040517f08c379a00000000000000000000000000000000000000000000000000000000081526004016200100f90620023cd565b60405180910390fd5b82600660008282546200102c9190620026ca565b925050819055507fa1b70b2da8e7a04aca7f4ac1fb6eb27021e952fd8aa19f5d5b245b5f2bdb74878360405162001064919062002413565b60405180910390a1505050565b60055481565b60065481565b6000600760009054906101000a900463ffffffff1633604051602001620010a692919062002111565b6040516020818303038152906040528051906020012090506000601260008381526020019081526020016000206001015411620010e257600080fd5b7f4f2513b5e936b68be23cb71b4fdcd6a014d2fa846affc4e2ac3caf4876da7da73360126000848152602001908152602001600020600101546040516200112b92919062002212565b60405180910390a160006012600083815260200190815260200160002060030160009054906101000a900473ffffffffffffffffffffffffffffffffffffffff16905060008190506012600084815260200190815260200160002060050160009054906101000a900460ff161562001234577f28c0b4699f02b30aed7da1df0eec405d3ae698fc885158ff77a3db6662628e9560405160405180910390a18073ffffffffffffffffffffffffffffffffffffffff16633ccfd60b6040518163ffffffff1660e01b8152600401600060405180830381600087803b1580156200121257600080fd5b505af115801562001227573d6000803e3d6000fd5b50505050505050620014bd565b42600554600454620012479190620025d4565b106200125257600080fd5b6000601260008581526020019081526020016000206001015460646006546200127c919062002631565b62001288919062002669565b90507f66494a70baf38d5e38c56e9f3a85f134cee1018b8246783591741f5497463539838247604051620012bf939291906200223f565b60405180910390a1600260009054906101000a900473ffffffffffffffffffffffffffffffffffffffff1673ffffffffffffffffffffffffffffffffffffffff1663095ea7b384836040518363ffffffff1660e01b81526004016200132692919062002212565b602060405180830381600087803b1580156200134157600080fd5b505af115801562001356573d6000803e3d6000fd5b505050506040513d601f19601f820116820180604052508101906200137c919062001d5f565b508173ffffffffffffffffffffffffffffffffffffffff1663743e0c9b826040518263ffffffff1660e01b8152600401620013b8919062002413565b600060405180830381600087803b158015620013d357600080fd5b505af1158015620013e8573d6000803e3d6000fd5b5050505060016012600086815260200190815260200160002060050160006101000a81548160ff0219169083151502179055507f5ac9dfc3f57c826f2dec73a1c81f01956366fd1078a8fc9a2d0fe3bce84571db83826040516200144e92919062002212565b60405180910390a18173ffffffffffffffffffffffffffffffffffffffff16633ccfd60b6040518163ffffffff1660e01b8152600401600060405180830381600087803b1580156200149f57600080fd5b505af1158015620014b4573d6000803e3d6000fd5b50505050505050505b565b6012602052806000526040600020600091509050806000018054620014e49062002a7b565b80601f0160208091040260200160405190810160405280929190818152602001828054620015129062002a7b565b8015620015635780601f10620015375761010080835404028352916020019162001563565b820191906000526020600020905b8154815290600101906020018083116200154557829003601f168201915b5050505050908060010154908060020160009054906101000a900473ffffffffffffffffffffffffffffffffffffffff16908060030160009054906101000a900473ffffffffffffffffffffffffffffffffffffffff16908060040154908060050160009054906101000a900460ff16905086565b60008054906101000a900473ffffffffffffffffffffffffffffffffffffffff1673ffffffffffffffffffffffffffffffffffffffff163373ffffffffffffffffffffffffffffffffffffffff16146200163157600080fd5b8060058190555050565b60035481565b60008060009054906101000a900473ffffffffffffffffffffffffffffffffffffffff1673ffffffffffffffffffffffffffffffffffffffff163373ffffffffffffffffffffffffffffffffffffffff16146200169d57600080fd5b600454905090565b60008054906101000a900473ffffffffffffffffffffffffffffffffffffffff1673ffffffffffffffffffffffffffffffffffffffff163373ffffffffffffffffffffffffffffffffffffffff1614620016fe57600080fd5b7f4d6ce1e535dbade1c23defba91e23b8f791ce5edc0cc320257a2b364e4e38426346040516200172f919062002413565b60405180910390a1565b600760009054906101000a900463ffffffff1681565b60008054906101000a900473ffffffffffffffffffffffffffffffffffffffff1673ffffffffffffffffffffffffffffffffffffffff163373ffffffffffffffffffffffffffffffffffffffff1614620017a857600080fd5b42600481905550565b60008054906101000a900473ffffffffffffffffffffffffffffffffffffffff1673ffffffffffffffffffffffffffffffffffffffff163373ffffffffffffffffffffffffffffffffffffffff16146200180a57600080fd5b6000600260009054906101000a900473ffffffffffffffffffffffffffffffffffffffff1673ffffffffffffffffffffffffffffffffffffffff166370a0823160008054906101000a900473ffffffffffffffffffffffffffffffffffffffff166040518263ffffffff1660e01b81526004016200188991906200215e565b60206040518083038186803b158015620018a257600080fd5b505afa158015620018b7573d6000803e3d6000fd5b505050506040513d601f19601f82011682018060405250810190620018dd919062001de3565b90508082111562001925576040517f08c379a00000000000000000000000000000000000000000000000000000000081526004016200191c9062002367565b60405180910390fd5b6000600260009054906101000a900473ffffffffffffffffffffffffffffffffffffffff1673ffffffffffffffffffffffffffffffffffffffff166323b872dd60008054906101000a900473ffffffffffffffffffffffffffffffffffffffff1630866040518463ffffffff1660e01b8152600401620019a8939291906200217b565b602060405180830381600087803b158015620019c357600080fd5b505af1158015620019d8573d6000803e3d6000fd5b505050506040513d601f19601f82011682018060405250810190620019fe919062001d5f565b90508062001a43576040517f08c379a000000000000000000000000000000000000000000000000000000000815260040162001a3a90620023ab565b60405180910390fd5b826006600082825462001a579190620025d4565b925050819055507ff1b3be8dace0fecfbdb6fb0fa1cc014c612bcb1b46db027c1ece5fc11fff09d68360405162001a8f919062002413565b60405180910390a1505050565b600080600760009054906101000a900463ffffffff163360405160200162001ac692919062002111565b604051602081830303815290604052805190602001209050600060126000838152602001908152602001600020600101541191505090565b6001601360003373ffffffffffffffffffffffffffffffffffffffff1673ffffffffffffffffffffffffffffffffffffffff16815260200190815260200160002060006101000a81548160ff0219169083151502179055507fd7852850994579617e77cd65a3e665534f352cefb60af8fa1c892900176611a433601360003373ffffffffffffffffffffffffffffffffffffffff1673ffffffffffffffffffffffffffffffffffffffff16815260200190815260200160002060009054906101000a900460ff1660405162001bd5929190620021e5565b60405180910390a1565b600260009054906101000a900473ffffffffffffffffffffffffffffffffffffffff1681565b610ce0806200303283390190565b60008135905062001c248162002fc4565b92915050565b60008083601f84011262001c3d57600080fd5b8235905067ffffffffffffffff81111562001c5757600080fd5b60208301915083602082028301111562001c7057600080fd5b9250929050565b60008135905062001c888162002fde565b92915050565b60008151905062001c9f8162002fde565b92915050565b60008135905062001cb68162002ff8565b92915050565b60008135905062001ccd8162003012565b92915050565b60008151905062001ce48162003012565b92915050565b60006020828403121562001cfd57600080fd5b600062001d0d8482850162001c13565b91505092915050565b6000806020838503121562001d2a57600080fd5b600083013567ffffffffffffffff81111562001d4557600080fd5b62001d538582860162001c2a565b92509250509250929050565b60006020828403121562001d7257600080fd5b600062001d828482850162001c8e565b91505092915050565b60006020828403121562001d9e57600080fd5b600062001dae8482850162001ca5565b91505092915050565b60006020828403121562001dca57600080fd5b600062001dda8482850162001cbc565b91505092915050565b60006020828403121562001df657600080fd5b600062001e068482850162001cd3565b91505092915050565b62001e1a8162002790565b82525050565b62001e2b8162002705565b82525050565b62001e3c8162002705565b82525050565b62001e5762001e518262002705565b62002b4f565b82525050565b62001e688162002719565b82525050565b62001e798162002719565b82525050565b600062001e8c82620024e1565b62001e98818562002502565b935062001eaa81856020860162002963565b80840191505092915050565b62001ec181620027cc565b82525050565b600062001ed583856200250d565b935062001ee483858462002954565b62001eef8362002ccd565b840190509392505050565b600062001f0782620024f7565b62001f1381856200251e565b935062001f2581856020860162002963565b62001f308162002ccd565b840191505092915050565b600062001f4a6014836200251e565b915062001f578262002d3b565b602082019050919050565b600062001f716024836200251e565b915062001f7e8262002d64565b604082019050919050565b600062001f986015836200251e565b915062001fa58262002db3565b602082019050919050565b600062001fbf6015836200251e565b915062001fcc8262002ddc565b602082019050919050565b600060c0830162001fec600084018462002561565b85830360008701526200200183828462001ec7565b92505050620020146020840184620025bb565b620020236020860182620020aa565b506200203360408401846200252f565b62002042604086018262001e20565b506200205260608401846200252f565b62002061606086018262001e20565b50620020716080840184620025bb565b620020806080860182620020aa565b506200209060a084018462002548565b6200209f60a086018262001e5d565b508091505092915050565b620020b5816200274f565b82525050565b620020c6816200274f565b82525050565b620020d78162002759565b82525050565b620020f2620020ec8262002759565b62002b77565b82525050565b600062002106828462001e7f565b915081905092915050565b60006200211f8285620020dd565b60048201915062002131828462001e42565b6014820191508190509392505050565b600060208201905062002158600083018462001e31565b92915050565b600060208201905062002175600083018462001e0f565b92915050565b600060608201905062002192600083018662001e0f565b620021a1602083018562001e31565b620021b06040830184620020bb565b949350505050565b6000604082019050620021cf600083018562001e0f565b620021de6020830184620020bb565b9392505050565b6000604082019050620021fc600083018562001e31565b6200220b602083018462001e6e565b9392505050565b600060408201905062002229600083018562001e31565b620022386020830184620020bb565b9392505050565b600060608201905062002256600083018662001e31565b620022656020830185620020bb565b620022746040830184620020bb565b949350505050565b600060208201905062002293600083018462001e6e565b92915050565b6000602082019050620022b0600083018462001eb6565b92915050565b6000606082019050620022cd600083018662001eb6565b620022dc6020830185620020bb565b620022eb604083018462001e31565b949350505050565b600060c08201905081810360008301526200230f818962001efa565b9050620023206020830188620020bb565b6200232f604083018762001e31565b6200233e606083018662001e31565b6200234d6080830185620020bb565b6200235c60a083018462001e6e565b979650505050505050565b60006020820190508181036000830152620023828162001f3b565b9050919050565b60006020820190508181036000830152620023a48162001f62565b9050919050565b60006020820190508181036000830152620023c68162001f89565b9050919050565b60006020820190508181036000830152620023e88162001fb0565b9050919050565b600060208201905081810360008301526200240b818462001fd7565b905092915050565b60006020820190506200242a6000830184620020bb565b92915050565b6000602082019050620024476000830184620020cc565b92915050565b600080833560016020038436030381126200246757600080fd5b80840192508235915067ffffffffffffffff8211156200248657600080fd5b6020830192506001820236038313156200249f57600080fd5b509250929050565b60008235600160c003833603038112620024c057600080fd5b80830191505092915050565b60008190508160005260206000209050919050565b600081519050919050565b600082905092915050565b600081519050919050565b600081905092915050565b600082825260208201905092915050565b600082825260208201905092915050565b600062002540602084018462001c13565b905092915050565b600062002559602084018462001c77565b905092915050565b600080833560016020038436030381126200257b57600080fd5b83810192508235915060208301925067ffffffffffffffff821115620025a057600080fd5b600182023603841315620025b357600080fd5b509250929050565b6000620025cc602084018462001cbc565b905092915050565b6000620025e1826200274f565b9150620025ee836200274f565b9250827fffffffffffffffffffffffffffffffffffffffffffffffffffffffffffffffff0382111562002626576200262562002bab565b5b828201905092915050565b60006200263e826200274f565b91506200264b836200274f565b9250826200265e576200265d62002bda565b5b828204905092915050565b600062002676826200274f565b915062002683836200274f565b9250817fffffffffffffffffffffffffffffffffffffffffffffffffffffffffffffffff0483118215151615620026bf57620026be62002bab565b5b828202905092915050565b6000620026d7826200274f565b9150620026e4836200274f565b925082821015620026fa57620026f962002bab565b5b828203905092915050565b600062002712826200272f565b9050919050565b60008115159050919050565b6000819050919050565b600073ffffffffffffffffffffffffffffffffffffffff82169050919050565b6000819050919050565b600063ffffffff82169050919050565b5b818110156200278c576200278060008262002d1f565b6001810190506200276a565b5050565b60006200279d82620027f4565b9050919050565b6000620027b182620027f4565b9050919050565b6000620027c58262002719565b9050919050565b6000620027d982620027e0565b9050919050565b6000620027ed826200272f565b9050919050565b6000620028018262002808565b9050919050565b600062002815826200272f565b9050919050565b600062002829826200274f565b9050919050565b6200283c8383620024ec565b67ffffffffffffffff81111562002858576200285762002c38565b5b62002864825462002a7b565b600080601f8411601f8411171562002884576200288185620024cc565b90505b601f831115620028bb576020601f85010481016020851015620028a5578190505b620028b96020601f86010483018262002769565b505b601f841160018114620028ed5760008515620028d8578388013590505b620028e4868262002ab1565b8755506200294a565b601f1985168260005b828110156200291d57858a01358255600182019150602086019550602081019050620028f6565b878310156200293d57858a013562002939601f8a168262002b8b565b8355505b6001600289020189555050505b5050505050505050565b82818337600083830152505050565b60005b838110156200298357808201518184015260208101905062002966565b8381111562002993576000848401525b50505050565b6000810160008301620029ad81856200244d565b620029ba81838662002f4e565b50505050600181016020830180620029d28162002cb5565b9050620029e0818462002f70565b505050600281016040830180620029f78162002c85565b905062002a05818462002efc565b50505060038101606083018062002a1c8162002c85565b905062002a2a818462002efc565b50505060048101608083018062002a418162002cb5565b905062002a4f818462002f70565b5050506005810160a083018062002a668162002c9d565b905062002a74818462002f25565b5050505050565b6000600282049050600182168062002a9457607f821691505b6020821081141562002aab5762002aaa62002c09565b5b50919050565b600062002abf838362002b8b565b9150826002028217905092915050565b600062002adc826200274f565b91507fffffffffffffffffffffffffffffffffffffffffffffffffffffffffffffffff82141562002b125762002b1162002bab565b5b600182019050919050565b600062002b2a8262002759565b915063ffffffff82141562002b445762002b4362002bab565b5b600182019050919050565b600062002b5c8262002b63565b9050919050565b600062002b708262002cf8565b9050919050565b600062002b848262002ceb565b9050919050565b600062002b9e6000198460080262002d12565b1980831691505092915050565b7f4e487b7100000000000000000000000000000000000000000000000000000000600052601160045260246000fd5b7f4e487b7100000000000000000000000000000000000000000000000000000000600052601260045260246000fd5b7f4e487b7100000000000000000000000000000000000000000000000000000000600052602260045260246000fd5b7f4e487b7100000000000000000000000000000000000000000000000000000000600052604160045260246000fd5b6000819050919050565b6000819050919050565b6000819050919050565b6000813562002c948162002fc4565b80915050919050565b6000813562002cac8162002fde565b80915050919050565b6000813562002cc48162003012565b80915050919050565b6000601f19601f8301169050919050565b60008160001b9050919050565b60008160e01b9050919050565b60008160601b9050919050565b600082821b905092915050565b600082821c905092915050565b62002d296200302c565b62002d3681848462002f99565b505050565b7f496e73756666696369656e742062616c616e6365000000000000000000000000600082015250565b7f73756d206f66207368617265732073686f756c6420626520657175616c20746f60008201527f2031303000000000000000000000000000000000000000000000000000000000602082015250565b7f4661696c656420746f2073656e6420746f6b656e730000000000000000000000600082015250565b7f4661696c656420746f2073656e7420746f6b656e730000000000000000000000600082015250565b600060ff62002e148462002cde565b9350801983169250808416831791505092915050565b600073ffffffffffffffffffffffffffffffffffffffff62002e4c8462002cde565b9350801983169250808416831791505092915050565b60007fffffffffffffffffffffffffffffffffffffffffffffffffffffffffffffffff62002e908462002cde565b9350801983169250808416831791505092915050565b60006008830262002ed87fffffffffffffffffffffffffffffffffffffffffffffffffffffffffffffffff8262002d05565b62002ee4868362002d05565b95508019841693508086168417925050509392505050565b62002f0782620027a4565b62002f1e62002f168262002c67565b835462002e2a565b8255505050565b62002f3082620027b8565b62002f4762002f3f8262002c71565b835462002e05565b8255505050565b62002f5b83838362002830565b505050565b62002f6c828262002999565b5050565b62002f7b826200281c565b62002f9262002f8a8262002c7b565b835462002e62565b8255505050565b62002fa4836200281c565b62002fbc62002fb38262002c7b565b84845462002ea6565b825550505050565b62002fcf8162002705565b811462002fdb57600080fd5b50565b62002fe98162002719565b811462002ff557600080fd5b50565b620030038162002725565b81146200300f57600080fd5b50565b6200301d816200274f565b81146200302957600080fd5b50565b60009056fe60806040523480156200001157600080fd5b5060405162000ce038038062000ce083398181016040528101906200003791906200015f565b33600260006101000a81548173ffffffffffffffffffffffffffffffffffffffff021916908373ffffffffffffffffffffffffffffffffffffffff16021790555081600081905550600060058190555080600360006101000a81548173ffffffffffffffffffffffffffffffffffffffff021916908373ffffffffffffffffffffffffffffffffffffffff160217905550600060018190555082600460006101000a81548173ffffffffffffffffffffffffffffffffffffffff021916908373ffffffffffffffffffffffffffffffffffffffff16021790555050505062000255565b6000815190506200012b8162000207565b92915050565b600081519050620001428162000221565b92915050565b60008151905062000159816200023b565b92915050565b6000806000606084860312156200017557600080fd5b6000620001858682870162000131565b9350506020620001988682870162000148565b9250506040620001ab868287016200011a565b9150509250925092565b6000620001c282620001dd565b9050919050565b6000620001d682620001b5565b9050919050565b600073ffffffffffffffffffffffffffffffffffffffff82169050919050565b6000819050919050565b6200021281620001b5565b81146200021e57600080fd5b50565b6200022c81620001c9565b81146200023857600080fd5b50565b6200024681620001fd565b81146200025257600080fd5b50565b610a7b80620002656000396000f3fe608060405234801561001057600080fd5b50600436106100575760003560e01c806334a014dc1461005c5780633ccfd60b1461007a578063743e0c9b14610084578063b69ef8a8146100a0578063b74126cc146100be575b600080fd5b6100646100dc565b6040516100719190610898565b60405180910390f35b6100826100e2565b005b61009e60048036038101906100999190610727565b6103d9565b005b6100a86106b3565b6040516100b59190610898565b60405180910390f35b6100c66106b9565b6040516100d39190610898565b60405180910390f35b60055481565b600260009054906101000a900473ffffffffffffffffffffffffffffffffffffffff1673ffffffffffffffffffffffffffffffffffffffff163373ffffffffffffffffffffffffffffffffffffffff161461013c57600080fd5b6000600460009054906101000a900473ffffffffffffffffffffffffffffffffffffffff1673ffffffffffffffffffffffffffffffffffffffff166370a08231306040518263ffffffff1660e01b815260040161019991906107dd565b60206040518083038186803b1580156101b157600080fd5b505afa1580156101c5573d6000803e3d6000fd5b505050506040513d601f19601f820116820180604052508101906101e99190610750565b9050600081116101f857600080fd5b62278d0060055461020991906108c4565b421161021457600080fd5b600081600054106102255781610229565b6000545b90506000600460009054906101000a900473ffffffffffffffffffffffffffffffffffffffff1673ffffffffffffffffffffffffffffffffffffffff1663a9059cbb600360009054906101000a900473ffffffffffffffffffffffffffffffffffffffff16846040518363ffffffff1660e01b81526004016102ac92919061082f565b602060405180830381600087803b1580156102c657600080fd5b505af11580156102da573d6000803e3d6000fd5b505050506040513d601f19601f820116820180604052508101906102fe91906106fe565b905080610340576040517f08c379a000000000000000000000000000000000000000000000000000000000815260040161033790610878565b60405180910390fd5b7f3bfe81dec3f91b4f148acb63cf0044cf5f14ec020bf957f38b377e854293ebe4600360009054906101000a900473ffffffffffffffffffffffffffffffffffffffff168360405161039392919061082f565b60405180910390a181600660008282546103ad91906108c4565b925050819055504260058190555081600160008282546103cd919061091a565b92505081905550505050565b600260009054906101000a900473ffffffffffffffffffffffffffffffffffffffff1673ffffffffffffffffffffffffffffffffffffffff163373ffffffffffffffffffffffffffffffffffffffff161461043357600080fd5b6000600460009054906101000a900473ffffffffffffffffffffffffffffffffffffffff1673ffffffffffffffffffffffffffffffffffffffff166370a08231600260009054906101000a900473ffffffffffffffffffffffffffffffffffffffff166040518263ffffffff1660e01b81526004016104b291906107dd565b60206040518083038186803b1580156104ca57600080fd5b505afa1580156104de573d6000803e3d6000fd5b505050506040513d601f19601f820116820180604052508101906105029190610750565b905080821115610547576040517f08c379a000000000000000000000000000000000000000000000000000000000815260040161053e90610858565b60405180910390fd5b6000600460009054906101000a900473ffffffffffffffffffffffffffffffffffffffff1673ffffffffffffffffffffffffffffffffffffffff166323b872dd600260009054906101000a900473ffffffffffffffffffffffffffffffffffffffff1630866040518463ffffffff1660e01b81526004016105ca939291906107f8565b602060405180830381600087803b1580156105e457600080fd5b505af11580156105f8573d6000803e3d6000fd5b505050506040513d601f19601f8201168201806040525081019061061c91906106fe565b90508061065e576040517f08c379a000000000000000000000000000000000000000000000000000000000815260040161065590610878565b60405180910390fd5b826001600082825461067091906108c4565b925050819055507fbcdc7071c1beb6dcf2744621e0b29a2f2432ee20812d9ca5e3d5e8f9308d93a3836040516106a69190610898565b60405180910390a1505050565b60015481565b60065481565b6000815190506106ce81610a17565b92915050565b6000813590506106e381610a2e565b92915050565b6000815190506106f881610a2e565b92915050565b60006020828403121561071057600080fd5b600061071e848285016106bf565b91505092915050565b60006020828403121561073957600080fd5b6000610747848285016106d4565b91505092915050565b60006020828403121561076257600080fd5b6000610770848285016106e9565b91505092915050565b6107828161094e565b82525050565b60006107956012836108b3565b91506107a0826109c5565b602082019050919050565b60006107b86015836108b3565b91506107c3826109ee565b602082019050919050565b6107d78161098c565b82525050565b60006020820190506107f26000830184610779565b92915050565b600060608201905061080d6000830186610779565b61081a6020830185610779565b61082760408301846107ce565b949350505050565b60006040820190506108446000830185610779565b61085160208301846107ce565b9392505050565b6000602082019050818103600083015261087181610788565b9050919050565b60006020820190508181036000830152610891816107ab565b9050919050565b60006020820190506108ad60008301846107ce565b92915050565b600082825260208201905092915050565b60006108cf8261098c565b91506108da8361098c565b9250827fffffffffffffffffffffffffffffffffffffffffffffffffffffffffffffffff0382111561090f5761090e610996565b5b828201905092915050565b60006109258261098c565b91506109308361098c565b92508282101561094357610942610996565b5b828203905092915050565b60006109598261096c565b9050919050565b60008115159050919050565b600073ffffffffffffffffffffffffffffffffffffffff82169050919050565b6000819050919050565b7f4e487b7100000000000000000000000000000000000000000000000000000000600052601160045260246000fd5b7f496e73756666696369656e742066756e64730000000000000000000000000000600082015250565b7f4661696c656420746f2073656e6420746f6b656e730000000000000000000000600082015250565b610a2081610960565b8114610a2b57600080fd5b50565b610a378161098c565b8114610a4257600080fd5b5056fea2646970667358221220a4f28f2a852dd983e397dc183bb2a83fba2e38f53debd8f152b352d4401838e164736f6c63430008040033a2646970667358221220978a3ff95fc23a61258f3bdc3689542a4e027278e7fe4516d605cd2f541747b864736f6c63430008040033",
  "immutableReferences": {},
  "source": "// SPDX-License-Identifier: MIT\npragma solidity >=0.8.4 <0.9.0;\n\nimport \"@openzeppelin/contracts/token/ERC20/utils/SafeERC20.sol\";\nimport \"./Dispenser.sol\";\n\nstruct Successor {\n  string name;\n  uint256 share;\n  address wallet;\n  address dispenser;\n  uint256 maxPerMonth;\n  bool fundsBeenReleased;\n}\n\nstruct TestData {\n  string name;\n  uint256 number;\n}\n\ncontract Heritage {\n  address payable owner;\n  address parentFactory;\n  IERC20 public token;\n  uint public numberOfSuccessors;\n  uint lastPingTime;\n  uint public maxPeriodOfSilense;\n  uint public totalVolume;\n  uint32 public successorsListVersion;\n  address[10] public listOfSuccessors;\n  mapping(bytes32 => Successor) public successors;\n  mapping(address => bool) public potentialSuccessors;\n\n  event Deposit(uint amount);\n  event Withdrowal(uint amount);\n  event TokenDeposit(uint amount);\n  event TokenWithdrowal(uint amount);\n  event RegisterSuccessor(address successor, bool isRegistered);\n  event InvalidSuccessor(address successor);\n  event SetSuccessors();\n  event SuccessorClaimingShare(address successor, uint share);\n  event ReleasingFunds(address dispenser, uint amount, uint balance);\n  event FundsTransfered(address successor, uint amount);\n  event DelegateCallToDispenser();\n\n  constructor(uint unlockTimeline, address tokenAddress, address creator, address parent) {\n    owner = payable(creator);\n    token = IERC20(tokenAddress);\n    numberOfSuccessors = 0;\n    successorsListVersion = 0;\n    lastPingTime = block.timestamp;\n    maxPeriodOfSilense = unlockTimeline;\n    parentFactory = parent;\n  }\n\n  modifier onlyOwner {\n    require(msg.sender == owner);\n    _;\n  }\n\n  function deposit() public payable onlyOwner {\n    emit Deposit(msg.value);\n  }\n\n  function withdraw(uint amount) public onlyOwner {\n    bool sent = owner.send(amount);\n    require(sent, \"Failed to sent tokens\");\n    emit Withdrowal(amount);\n  }\n\n  function depositTokens(uint amount) public onlyOwner {\n    uint256 erc20balance = token.balanceOf(owner);\n    require(amount <= erc20balance, \"Insufficient balance\");\n    bool sent = token.transferFrom(owner, address(this), amount);\n    require(sent, \"Failed to send tokens\");\n    totalVolume += amount;\n    emit TokenDeposit(amount);\n  }\n\n  function withdrawTokens(uint amount) public onlyOwner {\n    uint256 erc20balance = token.balanceOf(address(this));\n    require(amount <= erc20balance, \"Insufficient balance\");\n    bool sent = token.transfer(owner, amount);\n    require(sent, \"Failed to sent tokens\");\n    totalVolume -= amount;\n    emit TokenWithdrowal(amount);\n  }\n\n  function updateMaxPeriodOfSilence(uint holdingPeriod) public onlyOwner {\n    maxPeriodOfSilense = holdingPeriod;\n  }\n\n\n  function setSuccessors(Successor[] calldata newSuccessors) public onlyOwner {\n    emit InvalidSuccessor(msg.sender);\n    uint total = 0;\n    successorsListVersion++;\n    numberOfSuccessors = 0;\n    for (uint i=0; i<newSuccessors.length; i++) {\n      require(potentialSuccessors[newSuccessors[i].wallet]);\n      total += newSuccessors[i].share;\n      bytes32 key = keccak256(abi.encodePacked(successorsListVersion, newSuccessors[i].wallet));\n      successors[key] = newSuccessors[i];\n      Dispenser dispenser = new Dispenser(token, newSuccessors[i].maxPerMonth, newSuccessors[i].wallet);\n      successors[key].dispenser = address(dispenser);\n      numberOfSuccessors += 1;\n\n      (bool success, bytes memory data) = parentFactory.call(\n        abi.encodeWithSignature(\"setSuccessor((string,uint256,address,address,uint256,bool))\", newSuccessors[i])\n      );\n      require(success);\n      listOfSuccessors[i] = newSuccessors[i].wallet;\n    }\n    require(total == 100, \"sum of shares should be equal to 100\");\n    emit SetSuccessors();\n  }\n\n  function checkIfImSuccessor() public view returns (bool){\n    bytes32 key = keccak256(abi.encodePacked(successorsListVersion, msg.sender));\n    return successors[key].share > 0;\n  }\n\n  function registerSuccessorApplicant() public {\n    potentialSuccessors[msg.sender] = true;\n    emit RegisterSuccessor(msg.sender, potentialSuccessors[msg.sender]);\n  }\n\n  function resetCountdownTimer() public onlyOwner {\n    lastPingTime = block.timestamp;\n  }\n\n  function getCountdownValue() public onlyOwner view returns (uint) {\n    return lastPingTime;\n  }\n\n  function claimHeritage() public {\n    bytes32 key = keccak256(abi.encodePacked(successorsListVersion, msg.sender));\n    require(successors[key].share > 0);\n    emit SuccessorClaimingShare(msg.sender, successors[key].share);\n    address dispenserAddress = successors[key].dispenser;\n    Dispenser dispenser = Dispenser(dispenserAddress);\n    if (successors[key].fundsBeenReleased) {\n      emit DelegateCallToDispenser();\n      dispenser.withdraw();\n      return;\n    }\n    require((lastPingTime + maxPeriodOfSilense) < block.timestamp);\n    uint amount = totalVolume / 100 * successors[key].share;\n    emit ReleasingFunds(dispenserAddress, amount, address(this).balance);\n    token.approve(dispenserAddress, amount);\n    dispenser.receiveTokens(amount);\n    successors[key].fundsBeenReleased = true;\n    emit FundsTransfered(dispenserAddress, amount);\n    dispenser.withdraw();\n  }\n\n}\n",
  "sourcePath": "/Users/kovalas/Solidity/Legacy/contracts/Heritage.sol",
  "compiler": {
    "name": "solc",
    "version": "0.8.4+commit.c7e474f2.Emscripten.clang"
  },
  "schemaVersion": "3.4.9",
  "updatedAt": "2022-09-18T04:05:44.453Z",
  "networkType": "ethereum",
  "devdoc": {
    "kind": "dev",
    "methods": {},
    "version": 1
  },
  "userdoc": {
    "kind": "user",
    "methods": {},
    "version": 1
  }
}