{
  "contractName": "Heritage",
  "abi": [
    {
      "inputs": [
        {
          "internalType": "uint256",
          "name": "unlockTimeline",
          "type": "uint256"
        },
        {
          "internalType": "address",
          "name": "tokenAddress",
          "type": "address"
        },
        {
          "internalType": "address",
          "name": "creator",
          "type": "address"
        },
        {
          "internalType": "address",
          "name": "parent",
          "type": "address"
        }
      ],
      "stateMutability": "nonpayable",
      "type": "constructor"
    },
    {
      "anonymous": false,
      "inputs": [],
      "name": "DelegateCallToDispenser",
      "type": "event"
    },
    {
      "anonymous": false,
      "inputs": [
        {
          "indexed": false,
          "internalType": "uint256",
          "name": "amount",
          "type": "uint256"
        }
      ],
      "name": "Deposit",
      "type": "event"
    },
    {
      "anonymous": false,
      "inputs": [
        {
          "indexed": false,
          "internalType": "address",
          "name": "successor",
          "type": "address"
        },
        {
          "indexed": false,
          "internalType": "uint256",
          "name": "amount",
          "type": "uint256"
        }
      ],
      "name": "FundsTransfered",
      "type": "event"
    },
    {
      "anonymous": false,
      "inputs": [
        {
          "indexed": false,
          "internalType": "address",
          "name": "successor",
          "type": "address"
        }
      ],
      "name": "InvalidSuccessor",
      "type": "event"
    },
    {
      "anonymous": false,
      "inputs": [
        {
          "indexed": false,
          "internalType": "address",
          "name": "successor",
          "type": "address"
        },
        {
          "indexed": false,
          "internalType": "bool",
          "name": "isRegistered",
          "type": "bool"
        }
      ],
      "name": "RegisterSuccessor",
      "type": "event"
    },
    {
      "anonymous": false,
      "inputs": [
        {
          "indexed": false,
          "internalType": "address",
          "name": "dispenser",
          "type": "address"
        },
        {
          "indexed": false,
          "internalType": "uint256",
          "name": "amount",
          "type": "uint256"
        },
        {
          "indexed": false,
          "internalType": "uint256",
          "name": "balance",
          "type": "uint256"
        }
      ],
      "name": "ReleasingFunds",
      "type": "event"
    },
    {
      "anonymous": false,
      "inputs": [],
      "name": "SetSuccessors",
      "type": "event"
    },
    {
      "anonymous": false,
      "inputs": [
        {
          "indexed": false,
          "internalType": "address",
          "name": "successor",
          "type": "address"
        },
        {
          "indexed": false,
          "internalType": "uint256",
          "name": "share",
          "type": "uint256"
        }
      ],
      "name": "SuccessorClaimingShare",
      "type": "event"
    },
    {
      "anonymous": false,
      "inputs": [
        {
          "indexed": false,
          "internalType": "uint256",
          "name": "amount",
          "type": "uint256"
        }
      ],
      "name": "TokenDeposit",
      "type": "event"
    },
    {
      "anonymous": false,
      "inputs": [
        {
          "indexed": false,
          "internalType": "uint256",
          "name": "amount",
          "type": "uint256"
        }
      ],
      "name": "TokenWithdrowal",
      "type": "event"
    },
    {
      "anonymous": false,
      "inputs": [
        {
          "indexed": false,
          "internalType": "uint256",
          "name": "amount",
          "type": "uint256"
        }
      ],
      "name": "Withdrowal",
      "type": "event"
    },
    {
      "inputs": [],
      "name": "maxPeriodOfSilense",
      "outputs": [
        {
          "internalType": "uint256",
          "name": "",
          "type": "uint256"
        }
      ],
      "stateMutability": "view",
      "type": "function"
    },
    {
      "inputs": [],
      "name": "numberOfSuccessors",
      "outputs": [
        {
          "internalType": "uint256",
          "name": "",
          "type": "uint256"
        }
      ],
      "stateMutability": "view",
      "type": "function"
    },
    {
      "inputs": [
        {
          "internalType": "address",
          "name": "",
          "type": "address"
        }
      ],
      "name": "potentialSuccessors",
      "outputs": [
        {
          "internalType": "bool",
          "name": "",
          "type": "bool"
        }
      ],
      "stateMutability": "view",
      "type": "function"
    },
    {
      "inputs": [
        {
          "internalType": "bytes32",
          "name": "",
          "type": "bytes32"
        }
      ],
      "name": "successors",
      "outputs": [
        {
          "internalType": "string",
          "name": "name",
          "type": "string"
        },
        {
          "internalType": "uint256",
          "name": "share",
          "type": "uint256"
        },
        {
          "internalType": "address",
          "name": "wallet",
          "type": "address"
        },
        {
          "internalType": "address",
          "name": "dispenser",
          "type": "address"
        },
        {
          "internalType": "uint256",
          "name": "maxPerMonth",
          "type": "uint256"
        },
        {
          "internalType": "bool",
          "name": "fundsBeenReleased",
          "type": "bool"
        }
      ],
      "stateMutability": "view",
      "type": "function"
    },
    {
      "inputs": [],
      "name": "token",
      "outputs": [
        {
          "internalType": "contract IERC20",
          "name": "",
          "type": "address"
        }
      ],
      "stateMutability": "view",
      "type": "function"
    },
    {
      "inputs": [],
      "name": "totalVolume",
      "outputs": [
        {
          "internalType": "uint256",
          "name": "",
          "type": "uint256"
        }
      ],
      "stateMutability": "view",
      "type": "function"
    },
    {
      "inputs": [],
      "name": "deposit",
      "outputs": [],
      "stateMutability": "payable",
      "type": "function"
    },
    {
      "inputs": [
        {
          "internalType": "uint256",
          "name": "amount",
          "type": "uint256"
        }
      ],
      "name": "withdraw",
      "outputs": [],
      "stateMutability": "nonpayable",
      "type": "function"
    },
    {
      "inputs": [
        {
          "internalType": "uint256",
          "name": "amount",
          "type": "uint256"
        }
      ],
      "name": "depositTokens",
      "outputs": [],
      "stateMutability": "nonpayable",
      "type": "function"
    },
    {
      "inputs": [
        {
          "internalType": "uint256",
          "name": "amount",
          "type": "uint256"
        }
      ],
      "name": "withdrawTokens",
      "outputs": [],
      "stateMutability": "nonpayable",
      "type": "function"
    },
    {
      "inputs": [
        {
          "internalType": "uint256",
          "name": "holdingPeriod",
          "type": "uint256"
        }
      ],
      "name": "updateMaxPeriodOfSilence",
      "outputs": [],
      "stateMutability": "nonpayable",
      "type": "function"
    },
    {
      "inputs": [
        {
          "components": [
            {
              "internalType": "string",
              "name": "name",
              "type": "string"
            },
            {
              "internalType": "uint256",
              "name": "share",
              "type": "uint256"
            },
            {
              "internalType": "address",
              "name": "wallet",
              "type": "address"
            },
            {
              "internalType": "address",
              "name": "dispenser",
              "type": "address"
            },
            {
              "internalType": "uint256",
              "name": "maxPerMonth",
              "type": "uint256"
            },
            {
              "internalType": "bool",
              "name": "fundsBeenReleased",
              "type": "bool"
            }
          ],
          "internalType": "struct Successor[]",
          "name": "newSuccessors",
          "type": "tuple[]"
        }
      ],
      "name": "setSuccessors",
      "outputs": [],
      "stateMutability": "nonpayable",
      "type": "function"
    },
    {
      "inputs": [],
      "name": "checkIfImSuccessor",
      "outputs": [
        {
          "internalType": "bool",
          "name": "",
          "type": "bool"
        }
      ],
      "stateMutability": "view",
      "type": "function"
    },
    {
      "inputs": [],
      "name": "registerSuccessorApplicant",
      "outputs": [],
      "stateMutability": "nonpayable",
      "type": "function"
    },
    {
      "inputs": [],
      "name": "resetCountdownTimer",
      "outputs": [],
      "stateMutability": "nonpayable",
      "type": "function"
    },
    {
      "inputs": [],
      "name": "getCountdownValue",
      "outputs": [
        {
          "internalType": "uint256",
          "name": "",
          "type": "uint256"
        }
      ],
      "stateMutability": "view",
      "type": "function"
    },
    {
      "inputs": [],
      "name": "claimHeritage",
      "outputs": [],
      "stateMutability": "nonpayable",
      "type": "function"
    }
  ],
  "bytecode": "0x60806040523480156200001157600080fd5b5060405162003e4d38038062003e4d833981810160405281019062000037919062000169565b816000806101000a81548173ffffffffffffffffffffffffffffffffffffffff021916908373ffffffffffffffffffffffffffffffffffffffff16021790555082600260006101000a81548173ffffffffffffffffffffffffffffffffffffffff021916908373ffffffffffffffffffffffffffffffffffffffff16021790555060006003819055506000600760006101000a81548163ffffffff021916908363ffffffff160217905550426004819055508360058190555080600160006101000a81548173ffffffffffffffffffffffffffffffffffffffff021916908373ffffffffffffffffffffffffffffffffffffffff1602179055505050505062000247565b6000815190506200014c8162000213565b92915050565b60008151905062000163816200022d565b92915050565b600080600080608085870312156200018057600080fd5b6000620001908782880162000152565b9450506020620001a3878288016200013b565b9350506040620001b6878288016200013b565b9250506060620001c9878288016200013b565b91505092959194509250565b6000620001e282620001e9565b9050919050565b600073ffffffffffffffffffffffffffffffffffffffff82169050919050565b6000819050919050565b6200021e81620001d5565b81146200022a57600080fd5b50565b620002388162000209565b81146200024457600080fd5b50565b613bf680620002576000396000f3fe608060405260043610620001165760003560e01c80639640b69b11620000a3578063dc33a841116200006d578063dc33a8411462000346578063dd49756e1462000360578063e60a74e9146200038e578063f9f8c7d714620003be578063fc0c546a14620003d85762000116565b80639640b69b14620002ac578063c5e6971414620002da578063cefd35bc146200030a578063d0e30db0146200033a5762000116565b80635e93bdbe11620000e55780635e93bdbe14620001e95780635f81a57c1462000219578063733a798c146200024957806386d9c9a814620002635762000116565b806312167bf4146200011b578063146eb615146200015f5780632e1a7d4d146200018d578063315a095d14620001bb575b600080fd5b3480156200012857600080fd5b5062000147600480360381019062000141919062001bc7565b62000408565b60405162000156919062002148565b60405180910390f35b3480156200016c57600080fd5b506200018b600480360381019062000185919062001bf3565b62000428565b005b3480156200019a57600080fd5b50620001b96004803603810190620001b3919062001c94565b62000b68565b005b348015620001c857600080fd5b50620001e76004803603810190620001e1919062001c94565b62000c9b565b005b348015620001f657600080fd5b506200020162000f64565b604051620002109190620022df565b60405180910390f35b3480156200022657600080fd5b506200023162000f6a565b604051620002409190620022df565b60405180910390f35b3480156200025657600080fd5b506200026162000f70565b005b3480156200027057600080fd5b506200028f600480360381019062000289919062001c68565b620013b2565b604051620002a396959493929190620021bf565b60405180910390f35b348015620002b957600080fd5b50620002d86004803603810190620002d2919062001c94565b620014cb565b005b348015620002e757600080fd5b50620002f26200152e565b604051620003019190620022df565b60405180910390f35b3480156200031757600080fd5b506200032262001534565b604051620003319190620022df565b60405180910390f35b6200034462001598565b005b3480156200035357600080fd5b506200035e6200162c565b005b3480156200036d57600080fd5b506200038c600480360381019062000386919062001c94565b6200168e565b005b3480156200039b57600080fd5b50620003a662001979565b604051620003b5919062002148565b60405180910390f35b348015620003cb57600080fd5b50620003d6620019db565b005b348015620003e557600080fd5b50620003f062001abc565b604051620003ff919062002165565b60405180910390f35b60096020528060005260406000206000915054906101000a900460ff1681565b60008054906101000a900473ffffffffffffffffffffffffffffffffffffffff1673ffffffffffffffffffffffffffffffffffffffff163373ffffffffffffffffffffffffffffffffffffffff16146200048157600080fd5b7fc96e55fa8d403a1baa49c74451272db833044a289a3908e137c665f58a85d6ea33604051620004b291906200200d565b60405180910390a160006007600081819054906101000a900463ffffffff1680929190620004e090620029cc565b91906101000a81548163ffffffff021916908363ffffffff1602179055505060005b8383905081101562000af0577fc96e55fa8d403a1baa49c74451272db833044a289a3908e137c665f58a85d6ea84848381811062000569577f4e487b7100000000000000000000000000000000000000000000000000000000600052603260045260246000fd5b90506020028101906200057d919062002356565b604001602081019062000591919062001bc7565b604051620005a091906200200d565b60405180910390a160096000858584818110620005e6577f4e487b7100000000000000000000000000000000000000000000000000000000600052603260045260246000fd5b9050602002810190620005fa919062002356565b60400160208101906200060e919062001bc7565b73ffffffffffffffffffffffffffffffffffffffff1673ffffffffffffffffffffffffffffffffffffffff16815260200190815260200160002060009054906101000a900460ff166200066057600080fd5b8383828181106200069a577f4e487b7100000000000000000000000000000000000000000000000000000000600052603260045260246000fd5b9050602002810190620006ae919062002356565b6020013582620006bf919062002483565b91506000600760009054906101000a900463ffffffff1685858481811062000710577f4e487b7100000000000000000000000000000000000000000000000000000000600052603260045260246000fd5b905060200281019062000724919062002356565b604001602081019062000738919062001bc7565b6040516020016200074b92919062001fdd565b6040516020818303038152906040528051906020012090508484838181106200079d577f4e487b7100000000000000000000000000000000000000000000000000000000600052603260045260246000fd5b9050602002810190620007b1919062002356565b600860008381526020019081526020016000208181620007d2919062002e0f565b9050506000600260009054906101000a900473ffffffffffffffffffffffffffffffffffffffff1686868581811062000834577f4e487b7100000000000000000000000000000000000000000000000000000000600052603260045260246000fd5b905060200281019062000848919062002356565b6080013587878681811062000886577f4e487b7100000000000000000000000000000000000000000000000000000000600052603260045260246000fd5b90506020028101906200089a919062002356565b6040016020810190620008ae919062001bc7565b604051620008bc9062001ae2565b620008ca9392919062002182565b604051809103906000f080158015620008e7573d6000803e3d6000fd5b509050806008600084815260200190815260200160002060030160006101000a81548173ffffffffffffffffffffffffffffffffffffffff021916908373ffffffffffffffffffffffffffffffffffffffff16021790555060016003600082825462000954919062002483565b92505081905550600080600160009054906101000a900473ffffffffffffffffffffffffffffffffffffffff1673ffffffffffffffffffffffffffffffffffffffff16888887818110620009d1577f4e487b7100000000000000000000000000000000000000000000000000000000600052603260045260246000fd5b9050602002810190620009e5919062002356565b604051602401620009f79190620022bb565b6040516020818303038152906040527ee0bbd6000000000000000000000000000000000000000000000000000000007bffffffffffffffffffffffffffffffffffffffffffffffffffffffff19166020820180517bffffffffffffffffffffffffffffffffffffffffffffffffffffffff838183161783525050505060405162000a82919062001fc4565b6000604051808303816000865af19150503d806000811462000ac1576040519150601f19603f3d011682016040523d82523d6000602084013e62000ac6565b606091505b50915091508162000ad657600080fd5b50505050808062000ae7906200297e565b91505062000502565b506064811462000b37576040517f08c379a000000000000000000000000000000000000000000000000000000000815260040162000b2e9062002255565b60405180910390fd5b7f0b6d6ffbef9e34206247fccb3ee5ac6346aea764c4dbdf8a8e4a39b4a6232e7a60405160405180910390a1505050565b60008054906101000a900473ffffffffffffffffffffffffffffffffffffffff1673ffffffffffffffffffffffffffffffffffffffff163373ffffffffffffffffffffffffffffffffffffffff161462000bc157600080fd5b60008060009054906101000a900473ffffffffffffffffffffffffffffffffffffffff1673ffffffffffffffffffffffffffffffffffffffff166108fc839081150290604051600060405180830381858888f1935050505090508062000c5e576040517f08c379a000000000000000000000000000000000000000000000000000000000815260040162000c559062002299565b60405180910390fd5b7f30112c78349a4e44c6aaf4caae9efa4a92a54a17c56db6f1c7a6787bf849f7cf8260405162000c8f9190620022df565b60405180910390a15050565b60008054906101000a900473ffffffffffffffffffffffffffffffffffffffff1673ffffffffffffffffffffffffffffffffffffffff163373ffffffffffffffffffffffffffffffffffffffff161462000cf457600080fd5b6000600260009054906101000a900473ffffffffffffffffffffffffffffffffffffffff1673ffffffffffffffffffffffffffffffffffffffff166370a08231306040518263ffffffff1660e01b815260040162000d5391906200200d565b60206040518083038186803b15801562000d6c57600080fd5b505afa15801562000d81573d6000803e3d6000fd5b505050506040513d601f19601f8201168201806040525081019062000da7919062001cc0565b90508082111562000def576040517f08c379a000000000000000000000000000000000000000000000000000000000815260040162000de69062002233565b60405180910390fd5b6000600260009054906101000a900473ffffffffffffffffffffffffffffffffffffffff1673ffffffffffffffffffffffffffffffffffffffff1663a9059cbb60008054906101000a900473ffffffffffffffffffffffffffffffffffffffff16856040518363ffffffff1660e01b815260040162000e7092919062002084565b602060405180830381600087803b15801562000e8b57600080fd5b505af115801562000ea0573d6000803e3d6000fd5b505050506040513d601f19601f8201168201806040525081019062000ec6919062001c3c565b90508062000f0b576040517f08c379a000000000000000000000000000000000000000000000000000000000815260040162000f029062002299565b60405180910390fd5b826006600082825462000f1f919062002579565b925050819055507fa1b70b2da8e7a04aca7f4ac1fb6eb27021e952fd8aa19f5d5b245b5f2bdb74878360405162000f579190620022df565b60405180910390a1505050565b60055481565b60065481565b6000600760009054906101000a900463ffffffff163360405160200162000f9992919062001fdd565b604051602081830303815290604052805190602001209050600060086000838152602001908152602001600020600101541162000fd557600080fd5b7f4f2513b5e936b68be23cb71b4fdcd6a014d2fa846affc4e2ac3caf4876da7da73360086000848152602001908152602001600020600101546040516200101e929190620020de565b60405180910390a160006008600083815260200190815260200160002060030160009054906101000a900473ffffffffffffffffffffffffffffffffffffffff16905060008190506008600084815260200190815260200160002060050160009054906101000a900460ff161562001127577f28c0b4699f02b30aed7da1df0eec405d3ae698fc885158ff77a3db6662628e9560405160405180910390a18073ffffffffffffffffffffffffffffffffffffffff16633ccfd60b6040518163ffffffff1660e01b8152600401600060405180830381600087803b1580156200110557600080fd5b505af11580156200111a573d6000803e3d6000fd5b50505050505050620013b0565b426005546004546200113a919062002483565b106200114557600080fd5b6000600860008581526020019081526020016000206001015460646006546200116f9190620024e0565b6200117b919062002518565b90507f66494a70baf38d5e38c56e9f3a85f134cee1018b8246783591741f5497463539838247604051620011b2939291906200210b565b60405180910390a1600260009054906101000a900473ffffffffffffffffffffffffffffffffffffffff1673ffffffffffffffffffffffffffffffffffffffff1663095ea7b384836040518363ffffffff1660e01b815260040162001219929190620020de565b602060405180830381600087803b1580156200123457600080fd5b505af115801562001249573d6000803e3d6000fd5b505050506040513d601f19601f820116820180604052508101906200126f919062001c3c565b508173ffffffffffffffffffffffffffffffffffffffff1663743e0c9b826040518263ffffffff1660e01b8152600401620012ab9190620022df565b600060405180830381600087803b158015620012c657600080fd5b505af1158015620012db573d6000803e3d6000fd5b5050505060016008600086815260200190815260200160002060050160006101000a81548160ff0219169083151502179055507f5ac9dfc3f57c826f2dec73a1c81f01956366fd1078a8fc9a2d0fe3bce84571db838260405162001341929190620020de565b60405180910390a18173ffffffffffffffffffffffffffffffffffffffff16633ccfd60b6040518163ffffffff1660e01b8152600401600060405180830381600087803b1580156200139257600080fd5b505af1158015620013a7573d6000803e3d6000fd5b50505050505050505b565b6008602052806000526040600020600091509050806000018054620013d7906200292a565b80601f016020809104026020016040519081016040528092919081815260200182805462001405906200292a565b8015620014565780601f106200142a5761010080835404028352916020019162001456565b820191906000526020600020905b8154815290600101906020018083116200143857829003601f168201915b5050505050908060010154908060020160009054906101000a900473ffffffffffffffffffffffffffffffffffffffff16908060030160009054906101000a900473ffffffffffffffffffffffffffffffffffffffff16908060040154908060050160009054906101000a900460ff16905086565b60008054906101000a900473ffffffffffffffffffffffffffffffffffffffff1673ffffffffffffffffffffffffffffffffffffffff163373ffffffffffffffffffffffffffffffffffffffff16146200152457600080fd5b8060058190555050565b60035481565b60008060009054906101000a900473ffffffffffffffffffffffffffffffffffffffff1673ffffffffffffffffffffffffffffffffffffffff163373ffffffffffffffffffffffffffffffffffffffff16146200159057600080fd5b600454905090565b60008054906101000a900473ffffffffffffffffffffffffffffffffffffffff1673ffffffffffffffffffffffffffffffffffffffff163373ffffffffffffffffffffffffffffffffffffffff1614620015f157600080fd5b7f4d6ce1e535dbade1c23defba91e23b8f791ce5edc0cc320257a2b364e4e3842634604051620016229190620022df565b60405180910390a1565b60008054906101000a900473ffffffffffffffffffffffffffffffffffffffff1673ffffffffffffffffffffffffffffffffffffffff163373ffffffffffffffffffffffffffffffffffffffff16146200168557600080fd5b42600481905550565b60008054906101000a900473ffffffffffffffffffffffffffffffffffffffff1673ffffffffffffffffffffffffffffffffffffffff163373ffffffffffffffffffffffffffffffffffffffff1614620016e757600080fd5b6000600260009054906101000a900473ffffffffffffffffffffffffffffffffffffffff1673ffffffffffffffffffffffffffffffffffffffff166370a0823160008054906101000a900473ffffffffffffffffffffffffffffffffffffffff166040518263ffffffff1660e01b81526004016200176691906200202a565b60206040518083038186803b1580156200177f57600080fd5b505afa15801562001794573d6000803e3d6000fd5b505050506040513d601f19601f82011682018060405250810190620017ba919062001cc0565b90508082111562001802576040517f08c379a0000000000000000000000000000000000000000000000000000000008152600401620017f99062002233565b60405180910390fd5b6000600260009054906101000a900473ffffffffffffffffffffffffffffffffffffffff1673ffffffffffffffffffffffffffffffffffffffff166323b872dd60008054906101000a900473ffffffffffffffffffffffffffffffffffffffff1630866040518463ffffffff1660e01b8152600401620018859392919062002047565b602060405180830381600087803b158015620018a057600080fd5b505af1158015620018b5573d6000803e3d6000fd5b505050506040513d601f19601f82011682018060405250810190620018db919062001c3c565b90508062001920576040517f08c379a0000000000000000000000000000000000000000000000000000000008152600401620019179062002277565b60405180910390fd5b826006600082825462001934919062002483565b925050819055507ff1b3be8dace0fecfbdb6fb0fa1cc014c612bcb1b46db027c1ece5fc11fff09d6836040516200196c9190620022df565b60405180910390a1505050565b600080600760009054906101000a900463ffffffff1633604051602001620019a392919062001fdd565b604051602081830303815290604052805190602001209050600060086000838152602001908152602001600020600101541191505090565b6001600960003373ffffffffffffffffffffffffffffffffffffffff1673ffffffffffffffffffffffffffffffffffffffff16815260200190815260200160002060006101000a81548160ff0219169083151502179055507fd7852850994579617e77cd65a3e665534f352cefb60af8fa1c892900176611a433600960003373ffffffffffffffffffffffffffffffffffffffff1673ffffffffffffffffffffffffffffffffffffffff16815260200190815260200160002060009054906101000a900460ff1660405162001ab2929190620020b1565b60405180910390a1565b600260009054906101000a900473ffffffffffffffffffffffffffffffffffffffff1681565b610ce08062002ee183390190565b60008135905062001b018162002e73565b92915050565b60008083601f84011262001b1a57600080fd5b8235905067ffffffffffffffff81111562001b3457600080fd5b60208301915083602082028301111562001b4d57600080fd5b9250929050565b60008135905062001b658162002e8d565b92915050565b60008151905062001b7c8162002e8d565b92915050565b60008135905062001b938162002ea7565b92915050565b60008135905062001baa8162002ec1565b92915050565b60008151905062001bc18162002ec1565b92915050565b60006020828403121562001bda57600080fd5b600062001bea8482850162001af0565b91505092915050565b6000806020838503121562001c0757600080fd5b600083013567ffffffffffffffff81111562001c2257600080fd5b62001c308582860162001b07565b92509250509250929050565b60006020828403121562001c4f57600080fd5b600062001c5f8482850162001b6b565b91505092915050565b60006020828403121562001c7b57600080fd5b600062001c8b8482850162001b82565b91505092915050565b60006020828403121562001ca757600080fd5b600062001cb78482850162001b99565b91505092915050565b60006020828403121562001cd357600080fd5b600062001ce38482850162001bb0565b91505092915050565b62001cf7816200263f565b82525050565b62001d0881620025b4565b82525050565b62001d1981620025b4565b82525050565b62001d3462001d2e82620025b4565b620029fe565b82525050565b62001d4581620025c8565b82525050565b62001d5681620025c8565b82525050565b600062001d698262002390565b62001d758185620023b1565b935062001d8781856020860162002812565b80840191505092915050565b62001d9e816200267b565b82525050565b600062001db28385620023bc565b935062001dc183858462002803565b62001dcc8362002b7c565b840190509392505050565b600062001de482620023a6565b62001df08185620023cd565b935062001e0281856020860162002812565b62001e0d8162002b7c565b840191505092915050565b600062001e27601483620023cd565b915062001e348262002bea565b602082019050919050565b600062001e4e602483620023cd565b915062001e5b8262002c13565b604082019050919050565b600062001e75601583620023cd565b915062001e828262002c62565b602082019050919050565b600062001e9c601583620023cd565b915062001ea98262002c8b565b602082019050919050565b600060c0830162001ec9600084018462002410565b858303600087015262001ede83828462001da4565b9250505062001ef160208401846200246a565b62001f00602086018262001f87565b5062001f106040840184620023de565b62001f1f604086018262001cfd565b5062001f2f6060840184620023de565b62001f3e606086018262001cfd565b5062001f4e60808401846200246a565b62001f5d608086018262001f87565b5062001f6d60a0840184620023f7565b62001f7c60a086018262001d3a565b508091505092915050565b62001f9281620025fe565b82525050565b62001fa381620025fe565b82525050565b62001fbe62001fb88262002608565b62002a26565b82525050565b600062001fd2828462001d5c565b915081905092915050565b600062001feb828562001fa9565b60048201915062001ffd828462001d1f565b6014820191508190509392505050565b600060208201905062002024600083018462001d0e565b92915050565b600060208201905062002041600083018462001cec565b92915050565b60006060820190506200205e600083018662001cec565b6200206d602083018562001d0e565b6200207c604083018462001f98565b949350505050565b60006040820190506200209b600083018562001cec565b620020aa602083018462001f98565b9392505050565b6000604082019050620020c8600083018562001d0e565b620020d7602083018462001d4b565b9392505050565b6000604082019050620020f5600083018562001d0e565b62002104602083018462001f98565b9392505050565b600060608201905062002122600083018662001d0e565b62002131602083018562001f98565b62002140604083018462001f98565b949350505050565b60006020820190506200215f600083018462001d4b565b92915050565b60006020820190506200217c600083018462001d93565b92915050565b600060608201905062002199600083018662001d93565b620021a8602083018562001f98565b620021b7604083018462001d0e565b949350505050565b600060c0820190508181036000830152620021db818962001dd7565b9050620021ec602083018862001f98565b620021fb604083018762001d0e565b6200220a606083018662001d0e565b62002219608083018562001f98565b6200222860a083018462001d4b565b979650505050505050565b600060208201905081810360008301526200224e8162001e18565b9050919050565b60006020820190508181036000830152620022708162001e3f565b9050919050565b60006020820190508181036000830152620022928162001e66565b9050919050565b60006020820190508181036000830152620022b48162001e8d565b9050919050565b60006020820190508181036000830152620022d7818462001eb4565b905092915050565b6000602082019050620022f6600083018462001f98565b92915050565b600080833560016020038436030381126200231657600080fd5b80840192508235915067ffffffffffffffff8211156200233557600080fd5b6020830192506001820236038313156200234e57600080fd5b509250929050565b60008235600160c0038336030381126200236f57600080fd5b80830191505092915050565b60008190508160005260206000209050919050565b600081519050919050565b600082905092915050565b600081519050919050565b600081905092915050565b600082825260208201905092915050565b600082825260208201905092915050565b6000620023ef602084018462001af0565b905092915050565b600062002408602084018462001b54565b905092915050565b600080833560016020038436030381126200242a57600080fd5b83810192508235915060208301925067ffffffffffffffff8211156200244f57600080fd5b6001820236038413156200246257600080fd5b509250929050565b60006200247b602084018462001b99565b905092915050565b60006200249082620025fe565b91506200249d83620025fe565b9250827fffffffffffffffffffffffffffffffffffffffffffffffffffffffffffffffff03821115620024d557620024d462002a5a565b5b828201905092915050565b6000620024ed82620025fe565b9150620024fa83620025fe565b9250826200250d576200250c62002a89565b5b828204905092915050565b60006200252582620025fe565b91506200253283620025fe565b9250817fffffffffffffffffffffffffffffffffffffffffffffffffffffffffffffffff04831182151516156200256e576200256d62002a5a565b5b828202905092915050565b60006200258682620025fe565b91506200259383620025fe565b925082821015620025a957620025a862002a5a565b5b828203905092915050565b6000620025c182620025de565b9050919050565b60008115159050919050565b6000819050919050565b600073ffffffffffffffffffffffffffffffffffffffff82169050919050565b6000819050919050565b600063ffffffff82169050919050565b5b818110156200263b576200262f60008262002bce565b60018101905062002619565b5050565b60006200264c82620026a3565b9050919050565b60006200266082620026a3565b9050919050565b60006200267482620025c8565b9050919050565b600062002688826200268f565b9050919050565b60006200269c82620025de565b9050919050565b6000620026b082620026b7565b9050919050565b6000620026c482620025de565b9050919050565b6000620026d882620025fe565b9050919050565b620026eb83836200239b565b67ffffffffffffffff81111562002707576200270662002ae7565b5b6200271382546200292a565b600080601f8411601f84111715620027335762002730856200237b565b90505b601f8311156200276a576020601f8501048101602085101562002754578190505b620027686020601f86010483018262002618565b505b601f8411600181146200279c576000851562002787578388013590505b62002793868262002960565b875550620027f9565b601f1985168260005b82811015620027cc57858a01358255600182019150602086019550602081019050620027a5565b87831015620027ec57858a0135620027e8601f8a168262002a3a565b8355505b6001600289020189555050505b5050505050505050565b82818337600083830152505050565b60005b838110156200283257808201518184015260208101905062002815565b8381111562002842576000848401525b50505050565b60008101600083016200285c8185620022fc565b6200286981838662002dfd565b50505050600181016020830180620028818162002b64565b90506200288f818462002e1f565b505050600281016040830180620028a68162002b34565b9050620028b4818462002dab565b505050600381016060830180620028cb8162002b34565b9050620028d9818462002dab565b505050600481016080830180620028f08162002b64565b9050620028fe818462002e1f565b5050506005810160a0830180620029158162002b4c565b905062002923818462002dd4565b5050505050565b600060028204905060018216806200294357607f821691505b602082108114156200295a576200295962002ab8565b5b50919050565b60006200296e838362002a3a565b9150826002028217905092915050565b60006200298b82620025fe565b91507fffffffffffffffffffffffffffffffffffffffffffffffffffffffffffffffff821415620029c157620029c062002a5a565b5b600182019050919050565b6000620029d98262002608565b915063ffffffff821415620029f357620029f262002a5a565b5b600182019050919050565b600062002a0b8262002a12565b9050919050565b600062002a1f8262002ba7565b9050919050565b600062002a338262002b9a565b9050919050565b600062002a4d6000198460080262002bc1565b1980831691505092915050565b7f4e487b7100000000000000000000000000000000000000000000000000000000600052601160045260246000fd5b7f4e487b7100000000000000000000000000000000000000000000000000000000600052601260045260246000fd5b7f4e487b7100000000000000000000000000000000000000000000000000000000600052602260045260246000fd5b7f4e487b7100000000000000000000000000000000000000000000000000000000600052604160045260246000fd5b6000819050919050565b6000819050919050565b6000819050919050565b6000813562002b438162002e73565b80915050919050565b6000813562002b5b8162002e8d565b80915050919050565b6000813562002b738162002ec1565b80915050919050565b6000601f19601f8301169050919050565b60008160001b9050919050565b60008160e01b9050919050565b60008160601b9050919050565b600082821b905092915050565b600082821c905092915050565b62002bd862002edb565b62002be581848462002e48565b505050565b7f496e73756666696369656e742062616c616e6365000000000000000000000000600082015250565b7f73756d206f66207368617265732073686f756c6420626520657175616c20746f60008201527f2031303000000000000000000000000000000000000000000000000000000000602082015250565b7f4661696c656420746f2073656e6420746f6b656e730000000000000000000000600082015250565b7f4661696c656420746f2073656e7420746f6b656e730000000000000000000000600082015250565b600060ff62002cc38462002b8d565b9350801983169250808416831791505092915050565b600073ffffffffffffffffffffffffffffffffffffffff62002cfb8462002b8d565b9350801983169250808416831791505092915050565b60007fffffffffffffffffffffffffffffffffffffffffffffffffffffffffffffffff62002d3f8462002b8d565b9350801983169250808416831791505092915050565b60006008830262002d877fffffffffffffffffffffffffffffffffffffffffffffffffffffffffffffffff8262002bb4565b62002d93868362002bb4565b95508019841693508086168417925050509392505050565b62002db68262002653565b62002dcd62002dc58262002b16565b835462002cd9565b8255505050565b62002ddf8262002667565b62002df662002dee8262002b20565b835462002cb4565b8255505050565b62002e0a838383620026df565b505050565b62002e1b828262002848565b5050565b62002e2a82620026cb565b62002e4162002e398262002b2a565b835462002d11565b8255505050565b62002e5383620026cb565b62002e6b62002e628262002b2a565b84845462002d55565b825550505050565b62002e7e81620025b4565b811462002e8a57600080fd5b50565b62002e9881620025c8565b811462002ea457600080fd5b50565b62002eb281620025d4565b811462002ebe57600080fd5b50565b62002ecc81620025fe565b811462002ed857600080fd5b50565b60009056fe60806040523480156200001157600080fd5b5060405162000ce038038062000ce083398181016040528101906200003791906200015f565b33600260006101000a81548173ffffffffffffffffffffffffffffffffffffffff021916908373ffffffffffffffffffffffffffffffffffffffff16021790555081600081905550600060058190555080600360006101000a81548173ffffffffffffffffffffffffffffffffffffffff021916908373ffffffffffffffffffffffffffffffffffffffff160217905550600060018190555082600460006101000a81548173ffffffffffffffffffffffffffffffffffffffff021916908373ffffffffffffffffffffffffffffffffffffffff16021790555050505062000255565b6000815190506200012b8162000207565b92915050565b600081519050620001428162000221565b92915050565b60008151905062000159816200023b565b92915050565b6000806000606084860312156200017557600080fd5b6000620001858682870162000131565b9350506020620001988682870162000148565b9250506040620001ab868287016200011a565b9150509250925092565b6000620001c282620001dd565b9050919050565b6000620001d682620001b5565b9050919050565b600073ffffffffffffffffffffffffffffffffffffffff82169050919050565b6000819050919050565b6200021281620001b5565b81146200021e57600080fd5b50565b6200022c81620001c9565b81146200023857600080fd5b50565b6200024681620001fd565b81146200025257600080fd5b50565b610a7b80620002656000396000f3fe608060405234801561001057600080fd5b50600436106100575760003560e01c806334a014dc1461005c5780633ccfd60b1461007a578063743e0c9b14610084578063b69ef8a8146100a0578063b74126cc146100be575b600080fd5b6100646100dc565b6040516100719190610898565b60405180910390f35b6100826100e2565b005b61009e60048036038101906100999190610727565b6103d9565b005b6100a86106b3565b6040516100b59190610898565b60405180910390f35b6100c66106b9565b6040516100d39190610898565b60405180910390f35b60055481565b600260009054906101000a900473ffffffffffffffffffffffffffffffffffffffff1673ffffffffffffffffffffffffffffffffffffffff163373ffffffffffffffffffffffffffffffffffffffff161461013c57600080fd5b6000600460009054906101000a900473ffffffffffffffffffffffffffffffffffffffff1673ffffffffffffffffffffffffffffffffffffffff166370a08231306040518263ffffffff1660e01b815260040161019991906107dd565b60206040518083038186803b1580156101b157600080fd5b505afa1580156101c5573d6000803e3d6000fd5b505050506040513d601f19601f820116820180604052508101906101e99190610750565b9050600081116101f857600080fd5b62278d0060055461020991906108c4565b421161021457600080fd5b600081600054106102255781610229565b6000545b90506000600460009054906101000a900473ffffffffffffffffffffffffffffffffffffffff1673ffffffffffffffffffffffffffffffffffffffff1663a9059cbb600360009054906101000a900473ffffffffffffffffffffffffffffffffffffffff16846040518363ffffffff1660e01b81526004016102ac92919061082f565b602060405180830381600087803b1580156102c657600080fd5b505af11580156102da573d6000803e3d6000fd5b505050506040513d601f19601f820116820180604052508101906102fe91906106fe565b905080610340576040517f08c379a000000000000000000000000000000000000000000000000000000000815260040161033790610878565b60405180910390fd5b7f3bfe81dec3f91b4f148acb63cf0044cf5f14ec020bf957f38b377e854293ebe4600360009054906101000a900473ffffffffffffffffffffffffffffffffffffffff168360405161039392919061082f565b60405180910390a181600660008282546103ad91906108c4565b925050819055504260058190555081600160008282546103cd919061091a565b92505081905550505050565b600260009054906101000a900473ffffffffffffffffffffffffffffffffffffffff1673ffffffffffffffffffffffffffffffffffffffff163373ffffffffffffffffffffffffffffffffffffffff161461043357600080fd5b6000600460009054906101000a900473ffffffffffffffffffffffffffffffffffffffff1673ffffffffffffffffffffffffffffffffffffffff166370a08231600260009054906101000a900473ffffffffffffffffffffffffffffffffffffffff166040518263ffffffff1660e01b81526004016104b291906107dd565b60206040518083038186803b1580156104ca57600080fd5b505afa1580156104de573d6000803e3d6000fd5b505050506040513d601f19601f820116820180604052508101906105029190610750565b905080821115610547576040517f08c379a000000000000000000000000000000000000000000000000000000000815260040161053e90610858565b60405180910390fd5b6000600460009054906101000a900473ffffffffffffffffffffffffffffffffffffffff1673ffffffffffffffffffffffffffffffffffffffff166323b872dd600260009054906101000a900473ffffffffffffffffffffffffffffffffffffffff1630866040518463ffffffff1660e01b81526004016105ca939291906107f8565b602060405180830381600087803b1580156105e457600080fd5b505af11580156105f8573d6000803e3d6000fd5b505050506040513d601f19601f8201168201806040525081019061061c91906106fe565b90508061065e576040517f08c379a000000000000000000000000000000000000000000000000000000000815260040161065590610878565b60405180910390fd5b826001600082825461067091906108c4565b925050819055507fbcdc7071c1beb6dcf2744621e0b29a2f2432ee20812d9ca5e3d5e8f9308d93a3836040516106a69190610898565b60405180910390a1505050565b60015481565b60065481565b6000815190506106ce81610a17565b92915050565b6000813590506106e381610a2e565b92915050565b6000815190506106f881610a2e565b92915050565b60006020828403121561071057600080fd5b600061071e848285016106bf565b91505092915050565b60006020828403121561073957600080fd5b6000610747848285016106d4565b91505092915050565b60006020828403121561076257600080fd5b6000610770848285016106e9565b91505092915050565b6107828161094e565b82525050565b60006107956012836108b3565b91506107a0826109c5565b602082019050919050565b60006107b86015836108b3565b91506107c3826109ee565b602082019050919050565b6107d78161098c565b82525050565b60006020820190506107f26000830184610779565b92915050565b600060608201905061080d6000830186610779565b61081a6020830185610779565b61082760408301846107ce565b949350505050565b60006040820190506108446000830185610779565b61085160208301846107ce565b9392505050565b6000602082019050818103600083015261087181610788565b9050919050565b60006020820190508181036000830152610891816107ab565b9050919050565b60006020820190506108ad60008301846107ce565b92915050565b600082825260208201905092915050565b60006108cf8261098c565b91506108da8361098c565b9250827fffffffffffffffffffffffffffffffffffffffffffffffffffffffffffffffff0382111561090f5761090e610996565b5b828201905092915050565b60006109258261098c565b91506109308361098c565b92508282101561094357610942610996565b5b828203905092915050565b60006109598261096c565b9050919050565b60008115159050919050565b600073ffffffffffffffffffffffffffffffffffffffff82169050919050565b6000819050919050565b7f4e487b7100000000000000000000000000000000000000000000000000000000600052601160045260246000fd5b7f496e73756666696369656e742066756e64730000000000000000000000000000600082015250565b7f4661696c656420746f2073656e6420746f6b656e730000000000000000000000600082015250565b610a2081610960565b8114610a2b57600080fd5b50565b610a378161098c565b8114610a4257600080fd5b5056fea2646970667358221220a4f28f2a852dd983e397dc183bb2a83fba2e38f53debd8f152b352d4401838e164736f6c63430008040033a2646970667358221220a389cace081ee30c091345bc2a875c0a7f30fea8c89c946f2659504c6552e5e264736f6c63430008040033",
  "immutableReferences": {},
  "source": "// SPDX-License-Identifier: MIT\npragma solidity >=0.8.4 <0.9.0;\n\nimport \"@openzeppelin/contracts/token/ERC20/utils/SafeERC20.sol\";\nimport \"./Dispenser.sol\";\n\nstruct Successor {\n  string name;\n  uint256 share;\n  address wallet;\n  address dispenser;\n  uint256 maxPerMonth;\n  bool fundsBeenReleased;\n}\n\nstruct TestData {\n  string name;\n  uint256 number;\n}\n\ncontract Heritage {\n  address payable owner;\n  address parentFactory;\n  IERC20 public token;\n  uint public numberOfSuccessors;\n  uint lastPingTime;\n  uint public maxPeriodOfSilense;\n  uint public totalVolume;\n  uint32 successorsListVersion;\n  mapping(bytes32 => Successor) public successors;\n  mapping(address => bool) public potentialSuccessors;\n\n  event Deposit(uint amount);\n  event Withdrowal(uint amount);\n  event TokenDeposit(uint amount);\n  event TokenWithdrowal(uint amount);\n  event RegisterSuccessor(address successor, bool isRegistered);\n  event InvalidSuccessor(address successor);\n  event SetSuccessors();\n  event SuccessorClaimingShare(address successor, uint share);\n  event ReleasingFunds(address dispenser, uint amount, uint balance);\n  event FundsTransfered(address successor, uint amount);\n  event DelegateCallToDispenser();\n\n  constructor(uint unlockTimeline, address tokenAddress, address creator, address parent) {\n    owner = payable(creator);\n    token = IERC20(tokenAddress);\n    numberOfSuccessors = 0;\n    successorsListVersion = 0;\n    lastPingTime = block.timestamp;\n    maxPeriodOfSilense = unlockTimeline;\n    parentFactory = parent;\n  }\n\n  modifier onlyOwner {\n    require(msg.sender == owner);\n    _;\n  }\n\n  function deposit() public payable onlyOwner {\n    emit Deposit(msg.value);\n  }\n\n  function withdraw(uint amount) public onlyOwner {\n    bool sent = owner.send(amount);\n    require(sent, \"Failed to sent tokens\");\n    emit Withdrowal(amount);\n  }\n\n  function depositTokens(uint amount) public onlyOwner {\n    uint256 erc20balance = token.balanceOf(owner);\n    require(amount <= erc20balance, \"Insufficient balance\");\n    bool sent = token.transferFrom(owner, address(this), amount);\n    require(sent, \"Failed to send tokens\");\n    totalVolume += amount;\n    emit TokenDeposit(amount);\n  }\n\n  function withdrawTokens(uint amount) public onlyOwner {\n    uint256 erc20balance = token.balanceOf(address(this));\n    require(amount <= erc20balance, \"Insufficient balance\");\n    bool sent = token.transfer(owner, amount);\n    require(sent, \"Failed to sent tokens\");\n    totalVolume -= amount;\n    emit TokenWithdrowal(amount);\n  }\n\n  function updateMaxPeriodOfSilence(uint holdingPeriod) public onlyOwner {\n    maxPeriodOfSilense = holdingPeriod;\n  }\n\n\n  function setSuccessors(Successor[] calldata newSuccessors) public onlyOwner {\n    emit InvalidSuccessor(msg.sender);\n    uint total = 0;\n    successorsListVersion++;\n    for (uint i=0; i<newSuccessors.length; i++) {\n      emit InvalidSuccessor(newSuccessors[i].wallet);\n      require(potentialSuccessors[newSuccessors[i].wallet]);\n      total += newSuccessors[i].share;\n      bytes32 key = keccak256(abi.encodePacked(successorsListVersion, newSuccessors[i].wallet));\n      successors[key] = newSuccessors[i];\n      Dispenser dispenser = new Dispenser(token, newSuccessors[i].maxPerMonth, newSuccessors[i].wallet);\n      successors[key].dispenser = address(dispenser);\n      numberOfSuccessors += 1;\n\n      (bool success, bytes memory data) = parentFactory.call(\n        abi.encodeWithSignature(\"setSuccessor((string,uint256,address,address,uint256,bool))\", newSuccessors[i])\n      );\n      require(success);\n    }\n    require(total == 100, \"sum of shares should be equal to 100\");\n    emit SetSuccessors();\n  }\n\n  function checkIfImSuccessor() public view returns (bool){\n    bytes32 key = keccak256(abi.encodePacked(successorsListVersion, msg.sender));\n    return successors[key].share > 0;\n  }\n\n  function registerSuccessorApplicant() public {\n    potentialSuccessors[msg.sender] = true;\n    emit RegisterSuccessor(msg.sender, potentialSuccessors[msg.sender]);\n  }\n\n  function resetCountdownTimer() public onlyOwner {\n    lastPingTime = block.timestamp;\n  }\n\n  function getCountdownValue() public onlyOwner view returns (uint) {\n    return lastPingTime;\n  }\n\n  function claimHeritage() public {\n    bytes32 key = keccak256(abi.encodePacked(successorsListVersion, msg.sender));\n    require(successors[key].share > 0);\n    emit SuccessorClaimingShare(msg.sender, successors[key].share);\n    address dispenserAddress = successors[key].dispenser;\n    Dispenser dispenser = Dispenser(dispenserAddress);\n    if (successors[key].fundsBeenReleased) {\n      emit DelegateCallToDispenser();\n      dispenser.withdraw();\n      return;\n    }\n    require((lastPingTime + maxPeriodOfSilense) < block.timestamp);\n    uint amount = totalVolume / 100 * successors[key].share;\n    emit ReleasingFunds(dispenserAddress, amount, address(this).balance);\n    token.approve(dispenserAddress, amount);\n    dispenser.receiveTokens(amount);\n    successors[key].fundsBeenReleased = true;\n    emit FundsTransfered(dispenserAddress, amount);\n    dispenser.withdraw();\n  }\n\n}\n",
  "sourcePath": "/Users/kovalas/Solidity/Legacy/contracts/Heritage.sol",
  "compiler": {
    "name": "solc",
    "version": "0.8.4+commit.c7e474f2.Emscripten.clang"
  },
  "schemaVersion": "3.4.7",
  "updatedAt": "2022-09-05T01:59:49.101Z",
  "networkType": "ethereum",
  "devdoc": {
    "kind": "dev",
    "methods": {},
    "version": 1
  },
  "userdoc": {
    "kind": "user",
    "methods": {},
    "version": 1
  }
}