{
  "contractName": "Heritage",
  "abi": [
    {
      "inputs": [
        {
          "internalType": "uint256",
          "name": "unlockTimeline",
          "type": "uint256"
        },
        {
          "internalType": "address",
          "name": "tokenAddress",
          "type": "address"
        },
        {
          "internalType": "address",
          "name": "creator",
          "type": "address"
        },
        {
          "internalType": "address",
          "name": "parent",
          "type": "address"
        }
      ],
      "stateMutability": "nonpayable",
      "type": "constructor"
    },
    {
      "anonymous": false,
      "inputs": [],
      "name": "DelegateCallToDispenser",
      "type": "event"
    },
    {
      "anonymous": false,
      "inputs": [
        {
          "indexed": false,
          "internalType": "uint256",
          "name": "amount",
          "type": "uint256"
        }
      ],
      "name": "Deposit",
      "type": "event"
    },
    {
      "anonymous": false,
      "inputs": [
        {
          "indexed": false,
          "internalType": "address",
          "name": "successor",
          "type": "address"
        },
        {
          "indexed": false,
          "internalType": "uint256",
          "name": "amount",
          "type": "uint256"
        }
      ],
      "name": "FundsTransfered",
      "type": "event"
    },
    {
      "anonymous": false,
      "inputs": [
        {
          "indexed": false,
          "internalType": "address",
          "name": "successor",
          "type": "address"
        }
      ],
      "name": "InvalidSuccessor",
      "type": "event"
    },
    {
      "anonymous": false,
      "inputs": [
        {
          "indexed": false,
          "internalType": "address",
          "name": "successor",
          "type": "address"
        },
        {
          "indexed": false,
          "internalType": "bool",
          "name": "isRegistered",
          "type": "bool"
        }
      ],
      "name": "RegisterSuccessor",
      "type": "event"
    },
    {
      "anonymous": false,
      "inputs": [
        {
          "indexed": false,
          "internalType": "address",
          "name": "dispenser",
          "type": "address"
        },
        {
          "indexed": false,
          "internalType": "uint256",
          "name": "amount",
          "type": "uint256"
        },
        {
          "indexed": false,
          "internalType": "uint256",
          "name": "balance",
          "type": "uint256"
        }
      ],
      "name": "ReleasingFunds",
      "type": "event"
    },
    {
      "anonymous": false,
      "inputs": [],
      "name": "SetSuccessors",
      "type": "event"
    },
    {
      "anonymous": false,
      "inputs": [
        {
          "indexed": false,
          "internalType": "address",
          "name": "successor",
          "type": "address"
        },
        {
          "indexed": false,
          "internalType": "uint256",
          "name": "share",
          "type": "uint256"
        }
      ],
      "name": "SuccessorClaimingShare",
      "type": "event"
    },
    {
      "anonymous": false,
      "inputs": [
        {
          "indexed": false,
          "internalType": "uint256",
          "name": "amount",
          "type": "uint256"
        }
      ],
      "name": "TokenDeposit",
      "type": "event"
    },
    {
      "anonymous": false,
      "inputs": [
        {
          "indexed": false,
          "internalType": "uint256",
          "name": "amount",
          "type": "uint256"
        }
      ],
      "name": "TokenWithdrowal",
      "type": "event"
    },
    {
      "anonymous": false,
      "inputs": [
        {
          "indexed": false,
          "internalType": "uint256",
          "name": "amount",
          "type": "uint256"
        }
      ],
      "name": "Withdrowal",
      "type": "event"
    },
    {
      "inputs": [
        {
          "internalType": "uint256",
          "name": "",
          "type": "uint256"
        }
      ],
      "name": "listOfSuccessors",
      "outputs": [
        {
          "internalType": "address",
          "name": "",
          "type": "address"
        }
      ],
      "stateMutability": "view",
      "type": "function"
    },
    {
      "inputs": [],
      "name": "maxPeriodOfSilense",
      "outputs": [
        {
          "internalType": "uint256",
          "name": "",
          "type": "uint256"
        }
      ],
      "stateMutability": "view",
      "type": "function"
    },
    {
      "inputs": [],
      "name": "numberOfSuccessors",
      "outputs": [
        {
          "internalType": "uint256",
          "name": "",
          "type": "uint256"
        }
      ],
      "stateMutability": "view",
      "type": "function"
    },
    {
      "inputs": [
        {
          "internalType": "address",
          "name": "",
          "type": "address"
        }
      ],
      "name": "potentialSuccessors",
      "outputs": [
        {
          "internalType": "bool",
          "name": "",
          "type": "bool"
        }
      ],
      "stateMutability": "view",
      "type": "function"
    },
    {
      "inputs": [
        {
          "internalType": "bytes32",
          "name": "",
          "type": "bytes32"
        }
      ],
      "name": "successors",
      "outputs": [
        {
          "internalType": "string",
          "name": "name",
          "type": "string"
        },
        {
          "internalType": "uint256",
          "name": "share",
          "type": "uint256"
        },
        {
          "internalType": "address",
          "name": "wallet",
          "type": "address"
        },
        {
          "internalType": "address",
          "name": "dispenser",
          "type": "address"
        },
        {
          "internalType": "uint256",
          "name": "maxPerMonth",
          "type": "uint256"
        },
        {
          "internalType": "bool",
          "name": "fundsBeenReleased",
          "type": "bool"
        }
      ],
      "stateMutability": "view",
      "type": "function"
    },
    {
      "inputs": [],
      "name": "successorsListVersion",
      "outputs": [
        {
          "internalType": "uint32",
          "name": "",
          "type": "uint32"
        }
      ],
      "stateMutability": "view",
      "type": "function"
    },
    {
      "inputs": [],
      "name": "token",
      "outputs": [
        {
          "internalType": "contract IERC20",
          "name": "",
          "type": "address"
        }
      ],
      "stateMutability": "view",
      "type": "function"
    },
    {
      "inputs": [],
      "name": "totalVolume",
      "outputs": [
        {
          "internalType": "uint256",
          "name": "",
          "type": "uint256"
        }
      ],
      "stateMutability": "view",
      "type": "function"
    },
    {
      "inputs": [],
      "name": "deposit",
      "outputs": [],
      "stateMutability": "payable",
      "type": "function"
    },
    {
      "inputs": [
        {
          "internalType": "uint256",
          "name": "amount",
          "type": "uint256"
        }
      ],
      "name": "withdraw",
      "outputs": [],
      "stateMutability": "nonpayable",
      "type": "function"
    },
    {
      "inputs": [
        {
          "internalType": "uint256",
          "name": "amount",
          "type": "uint256"
        }
      ],
      "name": "depositTokens",
      "outputs": [],
      "stateMutability": "nonpayable",
      "type": "function"
    },
    {
      "inputs": [
        {
          "internalType": "uint256",
          "name": "amount",
          "type": "uint256"
        }
      ],
      "name": "withdrawTokens",
      "outputs": [],
      "stateMutability": "nonpayable",
      "type": "function"
    },
    {
      "inputs": [
        {
          "internalType": "uint256",
          "name": "holdingPeriod",
          "type": "uint256"
        }
      ],
      "name": "updateMaxPeriodOfSilence",
      "outputs": [],
      "stateMutability": "nonpayable",
      "type": "function"
    },
    {
      "inputs": [
        {
          "components": [
            {
              "internalType": "string",
              "name": "name",
              "type": "string"
            },
            {
              "internalType": "uint256",
              "name": "share",
              "type": "uint256"
            },
            {
              "internalType": "address",
              "name": "wallet",
              "type": "address"
            },
            {
              "internalType": "address",
              "name": "dispenser",
              "type": "address"
            },
            {
              "internalType": "uint256",
              "name": "maxPerMonth",
              "type": "uint256"
            },
            {
              "internalType": "bool",
              "name": "fundsBeenReleased",
              "type": "bool"
            }
          ],
          "internalType": "struct Successor[]",
          "name": "newSuccessors",
          "type": "tuple[]"
        }
      ],
      "name": "setSuccessors",
      "outputs": [],
      "stateMutability": "nonpayable",
      "type": "function"
    },
    {
      "inputs": [],
      "name": "checkIfImSuccessor",
      "outputs": [
        {
          "internalType": "bool",
          "name": "",
          "type": "bool"
        }
      ],
      "stateMutability": "view",
      "type": "function"
    },
    {
      "inputs": [],
      "name": "registerSuccessorApplicant",
      "outputs": [],
      "stateMutability": "nonpayable",
      "type": "function"
    },
    {
      "inputs": [],
      "name": "resetCountdownTimer",
      "outputs": [],
      "stateMutability": "nonpayable",
      "type": "function"
    },
    {
      "inputs": [],
      "name": "getCountdownValue",
      "outputs": [
        {
          "internalType": "uint256",
          "name": "",
          "type": "uint256"
        }
      ],
      "stateMutability": "view",
      "type": "function"
    },
    {
      "inputs": [],
      "name": "isFundsReleaseAvailible",
      "outputs": [
        {
          "internalType": "bool",
          "name": "",
          "type": "bool"
        }
      ],
      "stateMutability": "view",
      "type": "function"
    },
    {
      "inputs": [],
      "name": "claimHeritage",
      "outputs": [],
      "stateMutability": "nonpayable",
      "type": "function"
    }
  ],
  "bytecode": "0x60806040523480156200001157600080fd5b5060405162003ff538038062003ff5833981810160405281019062000037919062000169565b816000806101000a81548173ffffffffffffffffffffffffffffffffffffffff021916908373ffffffffffffffffffffffffffffffffffffffff16021790555082600260006101000a81548173ffffffffffffffffffffffffffffffffffffffff021916908373ffffffffffffffffffffffffffffffffffffffff16021790555060006003819055506000600760006101000a81548163ffffffff021916908363ffffffff160217905550426004819055508360058190555080600160006101000a81548173ffffffffffffffffffffffffffffffffffffffff021916908373ffffffffffffffffffffffffffffffffffffffff1602179055505050505062000247565b6000815190506200014c8162000213565b92915050565b60008151905062000163816200022d565b92915050565b600080600080608085870312156200018057600080fd5b6000620001908782880162000152565b9450506020620001a3878288016200013b565b9350506040620001b6878288016200013b565b9250506060620001c9878288016200013b565b91505092959194509250565b6000620001e282620001e9565b9050919050565b600073ffffffffffffffffffffffffffffffffffffffff82169050919050565b6000819050919050565b6200021e81620001d5565b81146200022a57600080fd5b50565b620002388162000209565b81146200024457600080fd5b50565b613d9e80620002576000396000f3fe6080604052600436106200013a5760003560e01c8063c55de79711620000af578063dc33a841116200006d578063dc33a841146200040e578063dd49756e1462000428578063e60a74e91462000456578063f9f8c7d71462000486578063fc0c546a14620004a0576200013a565b8063c55de7971462000342578063c5e697141462000372578063cefd35bc14620003a2578063d0e30db014620003d2578063d55aa5dc14620003de576200013a565b80635e93bdbe11620000fd5780635e93bdbe14620002515780635f81a57c1462000281578063733a798c14620002b157806386d9c9a814620002cb5780639640b69b1462000314576200013a565b806304ddc620146200013f57806312167bf41462000183578063146eb61514620001c75780632e1a7d4d14620001f5578063315a095d1462000223575b600080fd5b3480156200014c57600080fd5b506200016b600480360381019062000165919062001e0e565b620004d0565b6040516200017a919062002198565b60405180910390f35b3480156200019057600080fd5b50620001af6004803603810190620001a9919062001d41565b62000507565b604051620001be9190620022d3565b60405180910390f35b348015620001d457600080fd5b50620001f36004803603810190620001ed919062001d6d565b62000527565b005b3480156200020257600080fd5b506200022160048036038101906200021b919062001e0e565b62000cb1565b005b3480156200023057600080fd5b506200024f600480360381019062000249919062001e0e565b62000de4565b005b3480156200025e57600080fd5b5062000269620010ad565b6040516200027891906200246a565b60405180910390f35b3480156200028e57600080fd5b5062000299620010b3565b604051620002a891906200246a565b60405180910390f35b348015620002be57600080fd5b50620002c9620010b9565b005b348015620002d857600080fd5b50620002f76004803603810190620002f1919062001de2565b620014fb565b6040516200030b969594939291906200234a565b60405180910390f35b3480156200032157600080fd5b506200034060048036038101906200033a919062001e0e565b62001614565b005b3480156200034f57600080fd5b506200035a62001677565b604051620003699190620022d3565b60405180910390f35b3480156200037f57600080fd5b506200038a62001692565b6040516200039991906200246a565b60405180910390f35b348015620003af57600080fd5b50620003ba62001698565b604051620003c991906200246a565b60405180910390f35b620003dc620016fc565b005b348015620003eb57600080fd5b50620003f662001790565b60405162000405919062002487565b60405180910390f35b3480156200041b57600080fd5b5062000426620017a6565b005b3480156200043557600080fd5b506200045460048036038101906200044e919062001e0e565b62001808565b005b3480156200046357600080fd5b506200046e62001af3565b6040516200047d9190620022d3565b60405180910390f35b3480156200049357600080fd5b506200049e62001b55565b005b348015620004ad57600080fd5b50620004b862001c36565b604051620004c79190620022f0565b60405180910390f35b600881600a8110620004e157600080fd5b016000915054906101000a900473ffffffffffffffffffffffffffffffffffffffff1681565b60136020528060005260406000206000915054906101000a900460ff1681565b60008054906101000a900473ffffffffffffffffffffffffffffffffffffffff1673ffffffffffffffffffffffffffffffffffffffff163373ffffffffffffffffffffffffffffffffffffffff16146200058057600080fd5b7fc96e55fa8d403a1baa49c74451272db833044a289a3908e137c665f58a85d6ea33604051620005b1919062002198565b60405180910390a160006007600081819054906101000a900463ffffffff1680929190620005df9062002b74565b91906101000a81548163ffffffff021916908363ffffffff16021790555050600060038190555060005b8383905081101562000c39576013600085858481811062000653577f4e487b7100000000000000000000000000000000000000000000000000000000600052603260045260246000fd5b9050602002810190620006679190620024fe565b60400160208101906200067b919062001d41565b73ffffffffffffffffffffffffffffffffffffffff1673ffffffffffffffffffffffffffffffffffffffff16815260200190815260200160002060009054906101000a900460ff16620006cd57600080fd5b83838281811062000707577f4e487b7100000000000000000000000000000000000000000000000000000000600052603260045260246000fd5b90506020028101906200071b9190620024fe565b60200135826200072c91906200262b565b91506000600760009054906101000a900463ffffffff168585848181106200077d577f4e487b7100000000000000000000000000000000000000000000000000000000600052603260045260246000fd5b9050602002810190620007919190620024fe565b6040016020810190620007a5919062001d41565b604051602001620007b892919062002168565b6040516020818303038152906040528051906020012090508484838181106200080a577f4e487b7100000000000000000000000000000000000000000000000000000000600052603260045260246000fd5b90506020028101906200081e9190620024fe565b6012600083815260200190815260200160002081816200083f919062002fb7565b9050506000600260009054906101000a900473ffffffffffffffffffffffffffffffffffffffff16868685818110620008a1577f4e487b7100000000000000000000000000000000000000000000000000000000600052603260045260246000fd5b9050602002810190620008b59190620024fe565b60800135878786818110620008f3577f4e487b7100000000000000000000000000000000000000000000000000000000600052603260045260246000fd5b9050602002810190620009079190620024fe565b60400160208101906200091b919062001d41565b604051620009299062001c5c565b62000937939291906200230d565b604051809103906000f08015801562000954573d6000803e3d6000fd5b509050806012600084815260200190815260200160002060030160006101000a81548173ffffffffffffffffffffffffffffffffffffffff021916908373ffffffffffffffffffffffffffffffffffffffff160217905550600160036000828254620009c191906200262b565b92505081905550600080600160009054906101000a900473ffffffffffffffffffffffffffffffffffffffff1673ffffffffffffffffffffffffffffffffffffffff1688888781811062000a3e577f4e487b7100000000000000000000000000000000000000000000000000000000600052603260045260246000fd5b905060200281019062000a529190620024fe565b60405160240162000a64919062002446565b6040516020818303038152906040527ee0bbd6000000000000000000000000000000000000000000000000000000007bffffffffffffffffffffffffffffffffffffffffffffffffffffffff19166020820180517bffffffffffffffffffffffffffffffffffffffffffffffffffffffff838183161783525050505060405162000aef91906200214f565b6000604051808303816000865af19150503d806000811462000b2e576040519150601f19603f3d011682016040523d82523d6000602084013e62000b33565b606091505b50915091508162000b4357600080fd5b87878681811062000b7d577f4e487b7100000000000000000000000000000000000000000000000000000000600052603260045260246000fd5b905060200281019062000b919190620024fe565b604001602081019062000ba5919062001d41565b600886600a811062000be0577f4e487b7100000000000000000000000000000000000000000000000000000000600052603260045260246000fd5b0160006101000a81548173ffffffffffffffffffffffffffffffffffffffff021916908373ffffffffffffffffffffffffffffffffffffffff16021790555050505050808062000c309062002b26565b91505062000609565b506064811462000c80576040517f08c379a000000000000000000000000000000000000000000000000000000000815260040162000c7790620023e0565b60405180910390fd5b7f0b6d6ffbef9e34206247fccb3ee5ac6346aea764c4dbdf8a8e4a39b4a6232e7a60405160405180910390a1505050565b60008054906101000a900473ffffffffffffffffffffffffffffffffffffffff1673ffffffffffffffffffffffffffffffffffffffff163373ffffffffffffffffffffffffffffffffffffffff161462000d0a57600080fd5b60008060009054906101000a900473ffffffffffffffffffffffffffffffffffffffff1673ffffffffffffffffffffffffffffffffffffffff166108fc839081150290604051600060405180830381858888f1935050505090508062000da7576040517f08c379a000000000000000000000000000000000000000000000000000000000815260040162000d9e9062002424565b60405180910390fd5b7f30112c78349a4e44c6aaf4caae9efa4a92a54a17c56db6f1c7a6787bf849f7cf8260405162000dd891906200246a565b60405180910390a15050565b60008054906101000a900473ffffffffffffffffffffffffffffffffffffffff1673ffffffffffffffffffffffffffffffffffffffff163373ffffffffffffffffffffffffffffffffffffffff161462000e3d57600080fd5b6000600260009054906101000a900473ffffffffffffffffffffffffffffffffffffffff1673ffffffffffffffffffffffffffffffffffffffff166370a08231306040518263ffffffff1660e01b815260040162000e9c919062002198565b60206040518083038186803b15801562000eb557600080fd5b505afa15801562000eca573d6000803e3d6000fd5b505050506040513d601f19601f8201168201806040525081019062000ef0919062001e3a565b90508082111562000f38576040517f08c379a000000000000000000000000000000000000000000000000000000000815260040162000f2f90620023be565b60405180910390fd5b6000600260009054906101000a900473ffffffffffffffffffffffffffffffffffffffff1673ffffffffffffffffffffffffffffffffffffffff1663a9059cbb60008054906101000a900473ffffffffffffffffffffffffffffffffffffffff16856040518363ffffffff1660e01b815260040162000fb99291906200220f565b602060405180830381600087803b15801562000fd457600080fd5b505af115801562000fe9573d6000803e3d6000fd5b505050506040513d601f19601f820116820180604052508101906200100f919062001db6565b90508062001054576040517f08c379a00000000000000000000000000000000000000000000000000000000081526004016200104b9062002424565b60405180910390fd5b826006600082825462001068919062002721565b925050819055507fa1b70b2da8e7a04aca7f4ac1fb6eb27021e952fd8aa19f5d5b245b5f2bdb748783604051620010a091906200246a565b60405180910390a1505050565b60055481565b60065481565b6000600760009054906101000a900463ffffffff1633604051602001620010e292919062002168565b60405160208183030381529060405280519060200120905060006012600083815260200190815260200160002060010154116200111e57600080fd5b7f4f2513b5e936b68be23cb71b4fdcd6a014d2fa846affc4e2ac3caf4876da7da73360126000848152602001908152602001600020600101546040516200116792919062002269565b60405180910390a160006012600083815260200190815260200160002060030160009054906101000a900473ffffffffffffffffffffffffffffffffffffffff16905060008190506012600084815260200190815260200160002060050160009054906101000a900460ff161562001270577f28c0b4699f02b30aed7da1df0eec405d3ae698fc885158ff77a3db6662628e9560405160405180910390a18073ffffffffffffffffffffffffffffffffffffffff16633ccfd60b6040518163ffffffff1660e01b8152600401600060405180830381600087803b1580156200124e57600080fd5b505af115801562001263573d6000803e3d6000fd5b50505050505050620014f9565b426005546004546200128391906200262b565b106200128e57600080fd5b600060126000858152602001908152602001600020600101546064600654620012b8919062002688565b620012c49190620026c0565b90507f66494a70baf38d5e38c56e9f3a85f134cee1018b8246783591741f5497463539838247604051620012fb9392919062002296565b60405180910390a1600260009054906101000a900473ffffffffffffffffffffffffffffffffffffffff1673ffffffffffffffffffffffffffffffffffffffff1663095ea7b384836040518363ffffffff1660e01b81526004016200136292919062002269565b602060405180830381600087803b1580156200137d57600080fd5b505af115801562001392573d6000803e3d6000fd5b505050506040513d601f19601f82011682018060405250810190620013b8919062001db6565b508173ffffffffffffffffffffffffffffffffffffffff1663743e0c9b826040518263ffffffff1660e01b8152600401620013f491906200246a565b600060405180830381600087803b1580156200140f57600080fd5b505af115801562001424573d6000803e3d6000fd5b5050505060016012600086815260200190815260200160002060050160006101000a81548160ff0219169083151502179055507f5ac9dfc3f57c826f2dec73a1c81f01956366fd1078a8fc9a2d0fe3bce84571db83826040516200148a92919062002269565b60405180910390a18173ffffffffffffffffffffffffffffffffffffffff16633ccfd60b6040518163ffffffff1660e01b8152600401600060405180830381600087803b158015620014db57600080fd5b505af1158015620014f0573d6000803e3d6000fd5b50505050505050505b565b6012602052806000526040600020600091509050806000018054620015209062002ad2565b80601f01602080910402602001604051908101604052809291908181526020018280546200154e9062002ad2565b80156200159f5780601f1062001573576101008083540402835291602001916200159f565b820191906000526020600020905b8154815290600101906020018083116200158157829003601f168201915b5050505050908060010154908060020160009054906101000a900473ffffffffffffffffffffffffffffffffffffffff16908060030160009054906101000a900473ffffffffffffffffffffffffffffffffffffffff16908060040154908060050160009054906101000a900460ff16905086565b60008054906101000a900473ffffffffffffffffffffffffffffffffffffffff1673ffffffffffffffffffffffffffffffffffffffff163373ffffffffffffffffffffffffffffffffffffffff16146200166d57600080fd5b8060058190555050565b6000426005546004546200168c91906200262b565b10905090565b60035481565b60008060009054906101000a900473ffffffffffffffffffffffffffffffffffffffff1673ffffffffffffffffffffffffffffffffffffffff163373ffffffffffffffffffffffffffffffffffffffff1614620016f457600080fd5b600454905090565b60008054906101000a900473ffffffffffffffffffffffffffffffffffffffff1673ffffffffffffffffffffffffffffffffffffffff163373ffffffffffffffffffffffffffffffffffffffff16146200175557600080fd5b7f4d6ce1e535dbade1c23defba91e23b8f791ce5edc0cc320257a2b364e4e38426346040516200178691906200246a565b60405180910390a1565b600760009054906101000a900463ffffffff1681565b60008054906101000a900473ffffffffffffffffffffffffffffffffffffffff1673ffffffffffffffffffffffffffffffffffffffff163373ffffffffffffffffffffffffffffffffffffffff1614620017ff57600080fd5b42600481905550565b60008054906101000a900473ffffffffffffffffffffffffffffffffffffffff1673ffffffffffffffffffffffffffffffffffffffff163373ffffffffffffffffffffffffffffffffffffffff16146200186157600080fd5b6000600260009054906101000a900473ffffffffffffffffffffffffffffffffffffffff1673ffffffffffffffffffffffffffffffffffffffff166370a0823160008054906101000a900473ffffffffffffffffffffffffffffffffffffffff166040518263ffffffff1660e01b8152600401620018e09190620021b5565b60206040518083038186803b158015620018f957600080fd5b505afa1580156200190e573d6000803e3d6000fd5b505050506040513d601f19601f8201168201806040525081019062001934919062001e3a565b9050808211156200197c576040517f08c379a00000000000000000000000000000000000000000000000000000000081526004016200197390620023be565b60405180910390fd5b6000600260009054906101000a900473ffffffffffffffffffffffffffffffffffffffff1673ffffffffffffffffffffffffffffffffffffffff166323b872dd60008054906101000a900473ffffffffffffffffffffffffffffffffffffffff1630866040518463ffffffff1660e01b8152600401620019ff93929190620021d2565b602060405180830381600087803b15801562001a1a57600080fd5b505af115801562001a2f573d6000803e3d6000fd5b505050506040513d601f19601f8201168201806040525081019062001a55919062001db6565b90508062001a9a576040517f08c379a000000000000000000000000000000000000000000000000000000000815260040162001a919062002402565b60405180910390fd5b826006600082825462001aae91906200262b565b925050819055507ff1b3be8dace0fecfbdb6fb0fa1cc014c612bcb1b46db027c1ece5fc11fff09d68360405162001ae691906200246a565b60405180910390a1505050565b600080600760009054906101000a900463ffffffff163360405160200162001b1d92919062002168565b604051602081830303815290604052805190602001209050600060126000838152602001908152602001600020600101541191505090565b6001601360003373ffffffffffffffffffffffffffffffffffffffff1673ffffffffffffffffffffffffffffffffffffffff16815260200190815260200160002060006101000a81548160ff0219169083151502179055507fd7852850994579617e77cd65a3e665534f352cefb60af8fa1c892900176611a433601360003373ffffffffffffffffffffffffffffffffffffffff1673ffffffffffffffffffffffffffffffffffffffff16815260200190815260200160002060009054906101000a900460ff1660405162001c2c9291906200223c565b60405180910390a1565b600260009054906101000a900473ffffffffffffffffffffffffffffffffffffffff1681565b610ce0806200308983390190565b60008135905062001c7b816200301b565b92915050565b60008083601f84011262001c9457600080fd5b8235905067ffffffffffffffff81111562001cae57600080fd5b60208301915083602082028301111562001cc757600080fd5b9250929050565b60008135905062001cdf8162003035565b92915050565b60008151905062001cf68162003035565b92915050565b60008135905062001d0d816200304f565b92915050565b60008135905062001d248162003069565b92915050565b60008151905062001d3b8162003069565b92915050565b60006020828403121562001d5457600080fd5b600062001d648482850162001c6a565b91505092915050565b6000806020838503121562001d8157600080fd5b600083013567ffffffffffffffff81111562001d9c57600080fd5b62001daa8582860162001c81565b92509250509250929050565b60006020828403121562001dc957600080fd5b600062001dd98482850162001ce5565b91505092915050565b60006020828403121562001df557600080fd5b600062001e058482850162001cfc565b91505092915050565b60006020828403121562001e2157600080fd5b600062001e318482850162001d13565b91505092915050565b60006020828403121562001e4d57600080fd5b600062001e5d8482850162001d2a565b91505092915050565b62001e7181620027e7565b82525050565b62001e82816200275c565b82525050565b62001e93816200275c565b82525050565b62001eae62001ea8826200275c565b62002ba6565b82525050565b62001ebf8162002770565b82525050565b62001ed08162002770565b82525050565b600062001ee38262002538565b62001eef818562002559565b935062001f01818560208601620029ba565b80840191505092915050565b62001f188162002823565b82525050565b600062001f2c838562002564565b935062001f3b838584620029ab565b62001f468362002d24565b840190509392505050565b600062001f5e826200254e565b62001f6a818562002575565b935062001f7c818560208601620029ba565b62001f878162002d24565b840191505092915050565b600062001fa160148362002575565b915062001fae8262002d92565b602082019050919050565b600062001fc860248362002575565b915062001fd58262002dbb565b604082019050919050565b600062001fef60158362002575565b915062001ffc8262002e0a565b602082019050919050565b60006200201660158362002575565b9150620020238262002e33565b602082019050919050565b600060c08301620020436000840184620025b8565b85830360008701526200205883828462001f1e565b925050506200206b602084018462002612565b6200207a602086018262002101565b506200208a604084018462002586565b62002099604086018262001e77565b50620020a9606084018462002586565b620020b8606086018262001e77565b50620020c8608084018462002612565b620020d7608086018262002101565b50620020e760a08401846200259f565b620020f660a086018262001eb4565b508091505092915050565b6200210c81620027a6565b82525050565b6200211d81620027a6565b82525050565b6200212e81620027b0565b82525050565b620021496200214382620027b0565b62002bce565b82525050565b60006200215d828462001ed6565b915081905092915050565b600062002176828562002134565b60048201915062002188828462001e99565b6014820191508190509392505050565b6000602082019050620021af600083018462001e88565b92915050565b6000602082019050620021cc600083018462001e66565b92915050565b6000606082019050620021e9600083018662001e66565b620021f8602083018562001e88565b62002207604083018462002112565b949350505050565b600060408201905062002226600083018562001e66565b62002235602083018462002112565b9392505050565b600060408201905062002253600083018562001e88565b62002262602083018462001ec5565b9392505050565b600060408201905062002280600083018562001e88565b6200228f602083018462002112565b9392505050565b6000606082019050620022ad600083018662001e88565b620022bc602083018562002112565b620022cb604083018462002112565b949350505050565b6000602082019050620022ea600083018462001ec5565b92915050565b600060208201905062002307600083018462001f0d565b92915050565b600060608201905062002324600083018662001f0d565b62002333602083018562002112565b62002342604083018462001e88565b949350505050565b600060c082019050818103600083015262002366818962001f51565b905062002377602083018862002112565b62002386604083018762001e88565b62002395606083018662001e88565b620023a4608083018562002112565b620023b360a083018462001ec5565b979650505050505050565b60006020820190508181036000830152620023d98162001f92565b9050919050565b60006020820190508181036000830152620023fb8162001fb9565b9050919050565b600060208201905081810360008301526200241d8162001fe0565b9050919050565b600060208201905081810360008301526200243f8162002007565b9050919050565b600060208201905081810360008301526200246281846200202e565b905092915050565b600060208201905062002481600083018462002112565b92915050565b60006020820190506200249e600083018462002123565b92915050565b60008083356001602003843603038112620024be57600080fd5b80840192508235915067ffffffffffffffff821115620024dd57600080fd5b602083019250600182023603831315620024f657600080fd5b509250929050565b60008235600160c0038336030381126200251757600080fd5b80830191505092915050565b60008190508160005260206000209050919050565b600081519050919050565b600082905092915050565b600081519050919050565b600081905092915050565b600082825260208201905092915050565b600082825260208201905092915050565b600062002597602084018462001c6a565b905092915050565b6000620025b0602084018462001cce565b905092915050565b60008083356001602003843603038112620025d257600080fd5b83810192508235915060208301925067ffffffffffffffff821115620025f757600080fd5b6001820236038413156200260a57600080fd5b509250929050565b600062002623602084018462001d13565b905092915050565b60006200263882620027a6565b91506200264583620027a6565b9250827fffffffffffffffffffffffffffffffffffffffffffffffffffffffffffffffff038211156200267d576200267c62002c02565b5b828201905092915050565b60006200269582620027a6565b9150620026a283620027a6565b925082620026b557620026b462002c31565b5b828204905092915050565b6000620026cd82620027a6565b9150620026da83620027a6565b9250817fffffffffffffffffffffffffffffffffffffffffffffffffffffffffffffffff048311821515161562002716576200271562002c02565b5b828202905092915050565b60006200272e82620027a6565b91506200273b83620027a6565b92508282101562002751576200275062002c02565b5b828203905092915050565b6000620027698262002786565b9050919050565b60008115159050919050565b6000819050919050565b600073ffffffffffffffffffffffffffffffffffffffff82169050919050565b6000819050919050565b600063ffffffff82169050919050565b5b81811015620027e357620027d760008262002d76565b600181019050620027c1565b5050565b6000620027f4826200284b565b9050919050565b600062002808826200284b565b9050919050565b60006200281c8262002770565b9050919050565b6000620028308262002837565b9050919050565b6000620028448262002786565b9050919050565b600062002858826200285f565b9050919050565b60006200286c8262002786565b9050919050565b60006200288082620027a6565b9050919050565b62002893838362002543565b67ffffffffffffffff811115620028af57620028ae62002c8f565b5b620028bb825462002ad2565b600080601f8411601f84111715620028db57620028d88562002523565b90505b601f83111562002912576020601f85010481016020851015620028fc578190505b620029106020601f860104830182620027c0565b505b601f8411600181146200294457600085156200292f578388013590505b6200293b868262002b08565b875550620029a1565b601f1985168260005b828110156200297457858a013582556001820191506020860195506020810190506200294d565b878310156200299457858a013562002990601f8a168262002be2565b8355505b6001600289020189555050505b5050505050505050565b82818337600083830152505050565b60005b83811015620029da578082015181840152602081019050620029bd565b83811115620029ea576000848401525b50505050565b600081016000830162002a048185620024a4565b62002a1181838662002fa5565b5050505060018101602083018062002a298162002d0c565b905062002a37818462002fc7565b50505060028101604083018062002a4e8162002cdc565b905062002a5c818462002f53565b50505060038101606083018062002a738162002cdc565b905062002a81818462002f53565b50505060048101608083018062002a988162002d0c565b905062002aa6818462002fc7565b5050506005810160a083018062002abd8162002cf4565b905062002acb818462002f7c565b5050505050565b6000600282049050600182168062002aeb57607f821691505b6020821081141562002b025762002b0162002c60565b5b50919050565b600062002b16838362002be2565b9150826002028217905092915050565b600062002b3382620027a6565b91507fffffffffffffffffffffffffffffffffffffffffffffffffffffffffffffffff82141562002b695762002b6862002c02565b5b600182019050919050565b600062002b8182620027b0565b915063ffffffff82141562002b9b5762002b9a62002c02565b5b600182019050919050565b600062002bb38262002bba565b9050919050565b600062002bc78262002d4f565b9050919050565b600062002bdb8262002d42565b9050919050565b600062002bf56000198460080262002d69565b1980831691505092915050565b7f4e487b7100000000000000000000000000000000000000000000000000000000600052601160045260246000fd5b7f4e487b7100000000000000000000000000000000000000000000000000000000600052601260045260246000fd5b7f4e487b7100000000000000000000000000000000000000000000000000000000600052602260045260246000fd5b7f4e487b7100000000000000000000000000000000000000000000000000000000600052604160045260246000fd5b6000819050919050565b6000819050919050565b6000819050919050565b6000813562002ceb816200301b565b80915050919050565b6000813562002d038162003035565b80915050919050565b6000813562002d1b8162003069565b80915050919050565b6000601f19601f8301169050919050565b60008160001b9050919050565b60008160e01b9050919050565b60008160601b9050919050565b600082821b905092915050565b600082821c905092915050565b62002d8062003083565b62002d8d81848462002ff0565b505050565b7f496e73756666696369656e742062616c616e6365000000000000000000000000600082015250565b7f73756d206f66207368617265732073686f756c6420626520657175616c20746f60008201527f2031303000000000000000000000000000000000000000000000000000000000602082015250565b7f4661696c656420746f2073656e6420746f6b656e730000000000000000000000600082015250565b7f4661696c656420746f2073656e7420746f6b656e730000000000000000000000600082015250565b600060ff62002e6b8462002d35565b9350801983169250808416831791505092915050565b600073ffffffffffffffffffffffffffffffffffffffff62002ea38462002d35565b9350801983169250808416831791505092915050565b60007fffffffffffffffffffffffffffffffffffffffffffffffffffffffffffffffff62002ee78462002d35565b9350801983169250808416831791505092915050565b60006008830262002f2f7fffffffffffffffffffffffffffffffffffffffffffffffffffffffffffffffff8262002d5c565b62002f3b868362002d5c565b95508019841693508086168417925050509392505050565b62002f5e82620027fb565b62002f7562002f6d8262002cbe565b835462002e81565b8255505050565b62002f87826200280f565b62002f9e62002f968262002cc8565b835462002e5c565b8255505050565b62002fb283838362002887565b505050565b62002fc38282620029f0565b5050565b62002fd28262002873565b62002fe962002fe18262002cd2565b835462002eb9565b8255505050565b62002ffb8362002873565b620030136200300a8262002cd2565b84845462002efd565b825550505050565b62003026816200275c565b81146200303257600080fd5b50565b620030408162002770565b81146200304c57600080fd5b50565b6200305a816200277c565b81146200306657600080fd5b50565b6200307481620027a6565b81146200308057600080fd5b50565b60009056fe60806040523480156200001157600080fd5b5060405162000ce038038062000ce083398181016040528101906200003791906200015f565b33600260006101000a81548173ffffffffffffffffffffffffffffffffffffffff021916908373ffffffffffffffffffffffffffffffffffffffff16021790555081600081905550600060058190555080600360006101000a81548173ffffffffffffffffffffffffffffffffffffffff021916908373ffffffffffffffffffffffffffffffffffffffff160217905550600060018190555082600460006101000a81548173ffffffffffffffffffffffffffffffffffffffff021916908373ffffffffffffffffffffffffffffffffffffffff16021790555050505062000255565b6000815190506200012b8162000207565b92915050565b600081519050620001428162000221565b92915050565b60008151905062000159816200023b565b92915050565b6000806000606084860312156200017557600080fd5b6000620001858682870162000131565b9350506020620001988682870162000148565b9250506040620001ab868287016200011a565b9150509250925092565b6000620001c282620001dd565b9050919050565b6000620001d682620001b5565b9050919050565b600073ffffffffffffffffffffffffffffffffffffffff82169050919050565b6000819050919050565b6200021281620001b5565b81146200021e57600080fd5b50565b6200022c81620001c9565b81146200023857600080fd5b50565b6200024681620001fd565b81146200025257600080fd5b50565b610a7b80620002656000396000f3fe608060405234801561001057600080fd5b50600436106100575760003560e01c806334a014dc1461005c5780633ccfd60b1461007a578063743e0c9b14610084578063b69ef8a8146100a0578063b74126cc146100be575b600080fd5b6100646100dc565b6040516100719190610898565b60405180910390f35b6100826100e2565b005b61009e60048036038101906100999190610727565b6103d9565b005b6100a86106b3565b6040516100b59190610898565b60405180910390f35b6100c66106b9565b6040516100d39190610898565b60405180910390f35b60055481565b600260009054906101000a900473ffffffffffffffffffffffffffffffffffffffff1673ffffffffffffffffffffffffffffffffffffffff163373ffffffffffffffffffffffffffffffffffffffff161461013c57600080fd5b6000600460009054906101000a900473ffffffffffffffffffffffffffffffffffffffff1673ffffffffffffffffffffffffffffffffffffffff166370a08231306040518263ffffffff1660e01b815260040161019991906107dd565b60206040518083038186803b1580156101b157600080fd5b505afa1580156101c5573d6000803e3d6000fd5b505050506040513d601f19601f820116820180604052508101906101e99190610750565b9050600081116101f857600080fd5b62278d0060055461020991906108c4565b421161021457600080fd5b600081600054106102255781610229565b6000545b90506000600460009054906101000a900473ffffffffffffffffffffffffffffffffffffffff1673ffffffffffffffffffffffffffffffffffffffff1663a9059cbb600360009054906101000a900473ffffffffffffffffffffffffffffffffffffffff16846040518363ffffffff1660e01b81526004016102ac92919061082f565b602060405180830381600087803b1580156102c657600080fd5b505af11580156102da573d6000803e3d6000fd5b505050506040513d601f19601f820116820180604052508101906102fe91906106fe565b905080610340576040517f08c379a000000000000000000000000000000000000000000000000000000000815260040161033790610878565b60405180910390fd5b7f3bfe81dec3f91b4f148acb63cf0044cf5f14ec020bf957f38b377e854293ebe4600360009054906101000a900473ffffffffffffffffffffffffffffffffffffffff168360405161039392919061082f565b60405180910390a181600660008282546103ad91906108c4565b925050819055504260058190555081600160008282546103cd919061091a565b92505081905550505050565b600260009054906101000a900473ffffffffffffffffffffffffffffffffffffffff1673ffffffffffffffffffffffffffffffffffffffff163373ffffffffffffffffffffffffffffffffffffffff161461043357600080fd5b6000600460009054906101000a900473ffffffffffffffffffffffffffffffffffffffff1673ffffffffffffffffffffffffffffffffffffffff166370a08231600260009054906101000a900473ffffffffffffffffffffffffffffffffffffffff166040518263ffffffff1660e01b81526004016104b291906107dd565b60206040518083038186803b1580156104ca57600080fd5b505afa1580156104de573d6000803e3d6000fd5b505050506040513d601f19601f820116820180604052508101906105029190610750565b905080821115610547576040517f08c379a000000000000000000000000000000000000000000000000000000000815260040161053e90610858565b60405180910390fd5b6000600460009054906101000a900473ffffffffffffffffffffffffffffffffffffffff1673ffffffffffffffffffffffffffffffffffffffff166323b872dd600260009054906101000a900473ffffffffffffffffffffffffffffffffffffffff1630866040518463ffffffff1660e01b81526004016105ca939291906107f8565b602060405180830381600087803b1580156105e457600080fd5b505af11580156105f8573d6000803e3d6000fd5b505050506040513d601f19601f8201168201806040525081019061061c91906106fe565b90508061065e576040517f08c379a000000000000000000000000000000000000000000000000000000000815260040161065590610878565b60405180910390fd5b826001600082825461067091906108c4565b925050819055507fbcdc7071c1beb6dcf2744621e0b29a2f2432ee20812d9ca5e3d5e8f9308d93a3836040516106a69190610898565b60405180910390a1505050565b60015481565b60065481565b6000815190506106ce81610a17565b92915050565b6000813590506106e381610a2e565b92915050565b6000815190506106f881610a2e565b92915050565b60006020828403121561071057600080fd5b600061071e848285016106bf565b91505092915050565b60006020828403121561073957600080fd5b6000610747848285016106d4565b91505092915050565b60006020828403121561076257600080fd5b6000610770848285016106e9565b91505092915050565b6107828161094e565b82525050565b60006107956012836108b3565b91506107a0826109c5565b602082019050919050565b60006107b86015836108b3565b91506107c3826109ee565b602082019050919050565b6107d78161098c565b82525050565b60006020820190506107f26000830184610779565b92915050565b600060608201905061080d6000830186610779565b61081a6020830185610779565b61082760408301846107ce565b949350505050565b60006040820190506108446000830185610779565b61085160208301846107ce565b9392505050565b6000602082019050818103600083015261087181610788565b9050919050565b60006020820190508181036000830152610891816107ab565b9050919050565b60006020820190506108ad60008301846107ce565b92915050565b600082825260208201905092915050565b60006108cf8261098c565b91506108da8361098c565b9250827fffffffffffffffffffffffffffffffffffffffffffffffffffffffffffffffff0382111561090f5761090e610996565b5b828201905092915050565b60006109258261098c565b91506109308361098c565b92508282101561094357610942610996565b5b828203905092915050565b60006109598261096c565b9050919050565b60008115159050919050565b600073ffffffffffffffffffffffffffffffffffffffff82169050919050565b6000819050919050565b7f4e487b7100000000000000000000000000000000000000000000000000000000600052601160045260246000fd5b7f496e73756666696369656e742066756e64730000000000000000000000000000600082015250565b7f4661696c656420746f2073656e6420746f6b656e730000000000000000000000600082015250565b610a2081610960565b8114610a2b57600080fd5b50565b610a378161098c565b8114610a4257600080fd5b5056fea2646970667358221220a4f28f2a852dd983e397dc183bb2a83fba2e38f53debd8f152b352d4401838e164736f6c63430008040033a2646970667358221220fe5aa1a6c1c75937a82e6ef8e0cd65f522a1664ade7630712b28405f29a51fb864736f6c63430008040033",
  "immutableReferences": {},
  "source": "// SPDX-License-Identifier: MIT\npragma solidity >=0.8.4 <0.9.0;\n\nimport \"@openzeppelin/contracts/token/ERC20/utils/SafeERC20.sol\";\nimport \"./Dispenser.sol\";\n\nstruct Successor {\n  string name;\n  uint256 share;\n  address wallet;\n  address dispenser;\n  uint256 maxPerMonth;\n  bool fundsBeenReleased;\n}\n\nstruct TestData {\n  string name;\n  uint256 number;\n}\n\ncontract Heritage {\n  address payable owner;\n  address parentFactory;\n  IERC20 public token;\n  uint public numberOfSuccessors;\n  uint lastPingTime;\n  uint public maxPeriodOfSilense;\n  uint public totalVolume;\n  uint32 public successorsListVersion;\n  address[10] public listOfSuccessors;\n  mapping(bytes32 => Successor) public successors;\n  mapping(address => bool) public potentialSuccessors;\n\n  event Deposit(uint amount);\n  event Withdrowal(uint amount);\n  event TokenDeposit(uint amount);\n  event TokenWithdrowal(uint amount);\n  event RegisterSuccessor(address successor, bool isRegistered);\n  event InvalidSuccessor(address successor);\n  event SetSuccessors();\n  event SuccessorClaimingShare(address successor, uint share);\n  event ReleasingFunds(address dispenser, uint amount, uint balance);\n  event FundsTransfered(address successor, uint amount);\n  event DelegateCallToDispenser();\n\n  constructor(uint unlockTimeline, address tokenAddress, address creator, address parent) {\n    owner = payable(creator);\n    token = IERC20(tokenAddress);\n    numberOfSuccessors = 0;\n    successorsListVersion = 0;\n    lastPingTime = block.timestamp;\n    maxPeriodOfSilense = unlockTimeline;\n    parentFactory = parent;\n  }\n\n  modifier onlyOwner {\n    require(msg.sender == owner);\n    _;\n  }\n\n  function deposit() public payable onlyOwner {\n    emit Deposit(msg.value);\n  }\n\n  function withdraw(uint amount) public onlyOwner {\n    bool sent = owner.send(amount);\n    require(sent, \"Failed to sent tokens\");\n    emit Withdrowal(amount);\n  }\n\n  function depositTokens(uint amount) public onlyOwner {\n    uint256 erc20balance = token.balanceOf(owner);\n    require(amount <= erc20balance, \"Insufficient balance\");\n    bool sent = token.transferFrom(owner, address(this), amount);\n    require(sent, \"Failed to send tokens\");\n    totalVolume += amount;\n    emit TokenDeposit(amount);\n  }\n\n  function withdrawTokens(uint amount) public onlyOwner {\n    uint256 erc20balance = token.balanceOf(address(this));\n    require(amount <= erc20balance, \"Insufficient balance\");\n    bool sent = token.transfer(owner, amount);\n    require(sent, \"Failed to sent tokens\");\n    totalVolume -= amount;\n    emit TokenWithdrowal(amount);\n  }\n\n  function updateMaxPeriodOfSilence(uint holdingPeriod) public onlyOwner {\n    maxPeriodOfSilense = holdingPeriod;\n  }\n\n\n  function setSuccessors(Successor[] calldata newSuccessors) public onlyOwner {\n    emit InvalidSuccessor(msg.sender);\n    uint total = 0;\n    successorsListVersion++;\n    numberOfSuccessors = 0;\n    for (uint i=0; i<newSuccessors.length; i++) {\n      require(potentialSuccessors[newSuccessors[i].wallet]);\n      total += newSuccessors[i].share;\n      bytes32 key = keccak256(abi.encodePacked(successorsListVersion, newSuccessors[i].wallet));\n      successors[key] = newSuccessors[i];\n      Dispenser dispenser = new Dispenser(token, newSuccessors[i].maxPerMonth, newSuccessors[i].wallet);\n      successors[key].dispenser = address(dispenser);\n      numberOfSuccessors += 1;\n\n      (bool success, bytes memory data) = parentFactory.call(\n        abi.encodeWithSignature(\"setSuccessor((string,uint256,address,address,uint256,bool))\", newSuccessors[i])\n      );\n      require(success);\n      listOfSuccessors[i] = newSuccessors[i].wallet;\n    }\n    require(total == 100, \"sum of shares should be equal to 100\");\n    emit SetSuccessors();\n  }\n\n  function checkIfImSuccessor() public view returns (bool){\n    bytes32 key = keccak256(abi.encodePacked(successorsListVersion, msg.sender));\n    return successors[key].share > 0;\n  }\n\n  function registerSuccessorApplicant() public {\n    potentialSuccessors[msg.sender] = true;\n    emit RegisterSuccessor(msg.sender, potentialSuccessors[msg.sender]);\n  }\n\n  function resetCountdownTimer() public onlyOwner {\n    lastPingTime = block.timestamp;\n  }\n\n  function getCountdownValue() public onlyOwner view returns (uint) {\n    return lastPingTime;\n  }\n\n  function isFundsReleaseAvailible() public view returns (bool) {\n    return (lastPingTime + maxPeriodOfSilense) < block.timestamp;\n  }\n\n  function claimHeritage() public {\n    bytes32 key = keccak256(abi.encodePacked(successorsListVersion, msg.sender));\n    require(successors[key].share > 0);\n    emit SuccessorClaimingShare(msg.sender, successors[key].share);\n    address dispenserAddress = successors[key].dispenser;\n    Dispenser dispenser = Dispenser(dispenserAddress);\n    if (successors[key].fundsBeenReleased) {\n      emit DelegateCallToDispenser();\n      dispenser.withdraw();\n      return;\n    }\n    require((lastPingTime + maxPeriodOfSilense) < block.timestamp);\n    uint amount = totalVolume / 100 * successors[key].share;\n    emit ReleasingFunds(dispenserAddress, amount, address(this).balance);\n    token.approve(dispenserAddress, amount);\n    dispenser.receiveTokens(amount);\n    successors[key].fundsBeenReleased = true;\n    emit FundsTransfered(dispenserAddress, amount);\n    dispenser.withdraw();\n  }\n\n}\n",
  "sourcePath": "/Users/kovalas/Solidity/Legacy/contracts/Heritage.sol",
  "compiler": {
    "name": "solc",
    "version": "0.8.4+commit.c7e474f2.Emscripten.clang"
  },
  "schemaVersion": "3.4.9",
  "updatedAt": "2022-10-16T00:50:43.990Z",
  "networkType": "ethereum",
  "devdoc": {
    "kind": "dev",
    "methods": {},
    "version": 1
  },
  "userdoc": {
    "kind": "user",
    "methods": {},
    "version": 1
  }
}