{
  "contractName": "Heritage",
  "abi": [
    {
      "inputs": [
        {
          "internalType": "uint256",
          "name": "unlockTimeline",
          "type": "uint256"
        },
        {
          "internalType": "address",
          "name": "tokenAddress",
          "type": "address"
        },
        {
          "internalType": "address",
          "name": "creator",
          "type": "address"
        },
        {
          "internalType": "address",
          "name": "parent",
          "type": "address"
        }
      ],
      "stateMutability": "nonpayable",
      "type": "constructor"
    },
    {
      "anonymous": false,
      "inputs": [],
      "name": "DelegateCallToDispenser",
      "type": "event"
    },
    {
      "anonymous": false,
      "inputs": [
        {
          "indexed": false,
          "internalType": "uint256",
          "name": "amount",
          "type": "uint256"
        }
      ],
      "name": "Deposit",
      "type": "event"
    },
    {
      "anonymous": false,
      "inputs": [],
      "name": "Destruction",
      "type": "event"
    },
    {
      "anonymous": false,
      "inputs": [
        {
          "indexed": false,
          "internalType": "address",
          "name": "successor",
          "type": "address"
        },
        {
          "indexed": false,
          "internalType": "uint256",
          "name": "amount",
          "type": "uint256"
        }
      ],
      "name": "FundsTransfered",
      "type": "event"
    },
    {
      "anonymous": false,
      "inputs": [
        {
          "indexed": false,
          "internalType": "address",
          "name": "successor",
          "type": "address"
        }
      ],
      "name": "InvalidSuccessor",
      "type": "event"
    },
    {
      "anonymous": false,
      "inputs": [
        {
          "indexed": false,
          "internalType": "address",
          "name": "successor",
          "type": "address"
        },
        {
          "indexed": false,
          "internalType": "bool",
          "name": "isRegistered",
          "type": "bool"
        }
      ],
      "name": "RegisterSuccessor",
      "type": "event"
    },
    {
      "anonymous": false,
      "inputs": [
        {
          "indexed": false,
          "internalType": "address",
          "name": "dispenser",
          "type": "address"
        },
        {
          "indexed": false,
          "internalType": "uint256",
          "name": "amount",
          "type": "uint256"
        },
        {
          "indexed": false,
          "internalType": "uint256",
          "name": "balance",
          "type": "uint256"
        }
      ],
      "name": "ReleasingFunds",
      "type": "event"
    },
    {
      "anonymous": false,
      "inputs": [],
      "name": "SetSuccessors",
      "type": "event"
    },
    {
      "anonymous": false,
      "inputs": [
        {
          "indexed": false,
          "internalType": "address",
          "name": "successor",
          "type": "address"
        },
        {
          "indexed": false,
          "internalType": "uint256",
          "name": "share",
          "type": "uint256"
        }
      ],
      "name": "SuccessorClaimingShare",
      "type": "event"
    },
    {
      "anonymous": false,
      "inputs": [
        {
          "indexed": false,
          "internalType": "uint256",
          "name": "amount",
          "type": "uint256"
        }
      ],
      "name": "TokenDeposit",
      "type": "event"
    },
    {
      "anonymous": false,
      "inputs": [
        {
          "indexed": false,
          "internalType": "uint256",
          "name": "amount",
          "type": "uint256"
        }
      ],
      "name": "TokenWithdrowal",
      "type": "event"
    },
    {
      "anonymous": false,
      "inputs": [
        {
          "indexed": false,
          "internalType": "uint256",
          "name": "amount",
          "type": "uint256"
        }
      ],
      "name": "Withdrowal",
      "type": "event"
    },
    {
      "inputs": [
        {
          "internalType": "uint256",
          "name": "",
          "type": "uint256"
        }
      ],
      "name": "listOfSuccessors",
      "outputs": [
        {
          "internalType": "address",
          "name": "",
          "type": "address"
        }
      ],
      "stateMutability": "view",
      "type": "function"
    },
    {
      "inputs": [],
      "name": "maxPeriodOfSilense",
      "outputs": [
        {
          "internalType": "uint256",
          "name": "",
          "type": "uint256"
        }
      ],
      "stateMutability": "view",
      "type": "function"
    },
    {
      "inputs": [],
      "name": "numberOfSuccessors",
      "outputs": [
        {
          "internalType": "uint256",
          "name": "",
          "type": "uint256"
        }
      ],
      "stateMutability": "view",
      "type": "function"
    },
    {
      "inputs": [
        {
          "internalType": "address",
          "name": "",
          "type": "address"
        }
      ],
      "name": "potentialSuccessors",
      "outputs": [
        {
          "internalType": "bool",
          "name": "",
          "type": "bool"
        }
      ],
      "stateMutability": "view",
      "type": "function"
    },
    {
      "inputs": [
        {
          "internalType": "bytes32",
          "name": "",
          "type": "bytes32"
        }
      ],
      "name": "successors",
      "outputs": [
        {
          "internalType": "string",
          "name": "name",
          "type": "string"
        },
        {
          "internalType": "uint256",
          "name": "share",
          "type": "uint256"
        },
        {
          "internalType": "address",
          "name": "wallet",
          "type": "address"
        },
        {
          "internalType": "address",
          "name": "dispenser",
          "type": "address"
        },
        {
          "internalType": "uint256",
          "name": "maxPerMonth",
          "type": "uint256"
        },
        {
          "internalType": "bool",
          "name": "fundsBeenReleased",
          "type": "bool"
        }
      ],
      "stateMutability": "view",
      "type": "function"
    },
    {
      "inputs": [],
      "name": "successorsListVersion",
      "outputs": [
        {
          "internalType": "uint32",
          "name": "",
          "type": "uint32"
        }
      ],
      "stateMutability": "view",
      "type": "function"
    },
    {
      "inputs": [],
      "name": "token",
      "outputs": [
        {
          "internalType": "contract IERC20",
          "name": "",
          "type": "address"
        }
      ],
      "stateMutability": "view",
      "type": "function"
    },
    {
      "inputs": [],
      "name": "totalVolume",
      "outputs": [
        {
          "internalType": "uint256",
          "name": "",
          "type": "uint256"
        }
      ],
      "stateMutability": "view",
      "type": "function"
    },
    {
      "inputs": [],
      "name": "kill",
      "outputs": [],
      "stateMutability": "nonpayable",
      "type": "function"
    },
    {
      "inputs": [],
      "name": "deposit",
      "outputs": [],
      "stateMutability": "payable",
      "type": "function"
    },
    {
      "inputs": [
        {
          "internalType": "uint256",
          "name": "amount",
          "type": "uint256"
        }
      ],
      "name": "withdraw",
      "outputs": [],
      "stateMutability": "nonpayable",
      "type": "function"
    },
    {
      "inputs": [
        {
          "internalType": "uint256",
          "name": "amount",
          "type": "uint256"
        }
      ],
      "name": "depositTokens",
      "outputs": [],
      "stateMutability": "nonpayable",
      "type": "function"
    },
    {
      "inputs": [
        {
          "internalType": "uint256",
          "name": "amount",
          "type": "uint256"
        }
      ],
      "name": "withdrawTokens",
      "outputs": [],
      "stateMutability": "nonpayable",
      "type": "function"
    },
    {
      "inputs": [
        {
          "internalType": "uint256",
          "name": "holdingPeriod",
          "type": "uint256"
        }
      ],
      "name": "updateMaxPeriodOfSilence",
      "outputs": [],
      "stateMutability": "nonpayable",
      "type": "function"
    },
    {
      "inputs": [
        {
          "components": [
            {
              "internalType": "string",
              "name": "name",
              "type": "string"
            },
            {
              "internalType": "uint256",
              "name": "share",
              "type": "uint256"
            },
            {
              "internalType": "address",
              "name": "wallet",
              "type": "address"
            },
            {
              "internalType": "address",
              "name": "dispenser",
              "type": "address"
            },
            {
              "internalType": "uint256",
              "name": "maxPerMonth",
              "type": "uint256"
            },
            {
              "internalType": "bool",
              "name": "fundsBeenReleased",
              "type": "bool"
            }
          ],
          "internalType": "struct Successor[]",
          "name": "newSuccessors",
          "type": "tuple[]"
        }
      ],
      "name": "setSuccessors",
      "outputs": [],
      "stateMutability": "nonpayable",
      "type": "function"
    },
    {
      "inputs": [],
      "name": "checkIfImSuccessor",
      "outputs": [
        {
          "internalType": "bool",
          "name": "",
          "type": "bool"
        }
      ],
      "stateMutability": "view",
      "type": "function"
    },
    {
      "inputs": [],
      "name": "registerSuccessorApplicant",
      "outputs": [],
      "stateMutability": "nonpayable",
      "type": "function"
    },
    {
      "inputs": [],
      "name": "resetCountdownTimer",
      "outputs": [],
      "stateMutability": "nonpayable",
      "type": "function"
    },
    {
      "inputs": [],
      "name": "getCountdownValue",
      "outputs": [
        {
          "internalType": "uint256",
          "name": "",
          "type": "uint256"
        }
      ],
      "stateMutability": "view",
      "type": "function"
    },
    {
      "inputs": [],
      "name": "isFundsReleaseAvailible",
      "outputs": [
        {
          "internalType": "bool",
          "name": "",
          "type": "bool"
        }
      ],
      "stateMutability": "view",
      "type": "function"
    },
    {
      "inputs": [],
      "name": "claimHeritage",
      "outputs": [],
      "stateMutability": "nonpayable",
      "type": "function"
    }
  ],
  "bytecode": "0x60806040523480156200001157600080fd5b506040516200429938038062004299833981810160405281019062000037919062000169565b816000806101000a81548173ffffffffffffffffffffffffffffffffffffffff021916908373ffffffffffffffffffffffffffffffffffffffff16021790555082600260006101000a81548173ffffffffffffffffffffffffffffffffffffffff021916908373ffffffffffffffffffffffffffffffffffffffff16021790555060006003819055506000600760006101000a81548163ffffffff021916908363ffffffff160217905550426004819055508360058190555080600160006101000a81548173ffffffffffffffffffffffffffffffffffffffff021916908373ffffffffffffffffffffffffffffffffffffffff1602179055505050505062000247565b6000815190506200014c8162000213565b92915050565b60008151905062000163816200022d565b92915050565b600080600080608085870312156200018057600080fd5b6000620001908782880162000152565b9450506020620001a3878288016200013b565b9350506040620001b6878288016200013b565b9250506060620001c9878288016200013b565b91505092959194509250565b6000620001e282620001e9565b9050919050565b600073ffffffffffffffffffffffffffffffffffffffff82169050919050565b6000819050919050565b6200021e81620001d5565b81146200022a57600080fd5b50565b620002388162000209565b81146200024457600080fd5b50565b61404280620002576000396000f3fe608060405260043610620001465760003560e01c80639640b69b11620000bb578063d55aa5dc1162000079578063d55aa5dc1462000404578063dc33a8411462000434578063dd49756e146200044e578063e60a74e9146200047c578063f9f8c7d714620004ac578063fc0c546a14620004c65762000146565b80639640b69b146200033a578063c55de7971462000368578063c5e697141462000398578063cefd35bc14620003c8578063d0e30db014620003f85762000146565b806341c0e1b5116200010957806341c0e1b5146200025d5780635e93bdbe14620002775780635f81a57c14620002a7578063733a798c14620002d757806386d9c9a814620002f15762000146565b806304ddc620146200014b57806312167bf4146200018f578063146eb61514620001d35780632e1a7d4d1462000201578063315a095d146200022f575b600080fd5b3480156200015857600080fd5b50620001776004803603810190620001719190620020b2565b620004f6565b6040516200018691906200243c565b60405180910390f35b3480156200019c57600080fd5b50620001bb6004803603810190620001b5919062001fe5565b6200052d565b604051620001ca919062002577565b60405180910390f35b348015620001e057600080fd5b50620001ff6004803603810190620001f9919062002011565b6200054d565b005b3480156200020e57600080fd5b506200022d6004803603810190620002279190620020b2565b62000cd7565b005b3480156200023c57600080fd5b506200025b6004803603810190620002559190620020b2565b62000e0a565b005b3480156200026a57600080fd5b5062000275620010d3565b005b3480156200028457600080fd5b506200028f62001336565b6040516200029e91906200270e565b60405180910390f35b348015620002b457600080fd5b50620002bf6200133c565b604051620002ce91906200270e565b60405180910390f35b348015620002e457600080fd5b50620002ef62001342565b005b348015620002fe57600080fd5b506200031d600480360381019062000317919062002086565b6200179f565b6040516200033196959493929190620025ee565b60405180910390f35b3480156200034757600080fd5b50620003666004803603810190620003609190620020b2565b620018b8565b005b3480156200037557600080fd5b50620003806200191b565b6040516200038f919062002577565b60405180910390f35b348015620003a557600080fd5b50620003b062001936565b604051620003bf91906200270e565b60405180910390f35b348015620003d557600080fd5b50620003e06200193c565b604051620003ef91906200270e565b60405180910390f35b62000402620019a0565b005b3480156200041157600080fd5b506200041c62001a34565b6040516200042b91906200272b565b60405180910390f35b3480156200044157600080fd5b506200044c62001a4a565b005b3480156200045b57600080fd5b506200047a6004803603810190620004749190620020b2565b62001aac565b005b3480156200048957600080fd5b506200049462001d97565b604051620004a3919062002577565b60405180910390f35b348015620004b957600080fd5b50620004c462001df9565b005b348015620004d357600080fd5b50620004de62001eda565b604051620004ed919062002594565b60405180910390f35b600881600a81106200050757600080fd5b016000915054906101000a900473ffffffffffffffffffffffffffffffffffffffff1681565b60136020528060005260406000206000915054906101000a900460ff1681565b60008054906101000a900473ffffffffffffffffffffffffffffffffffffffff1673ffffffffffffffffffffffffffffffffffffffff163373ffffffffffffffffffffffffffffffffffffffff1614620005a657600080fd5b7fc96e55fa8d403a1baa49c74451272db833044a289a3908e137c665f58a85d6ea33604051620005d791906200243c565b60405180910390a160006007600081819054906101000a900463ffffffff1680929190620006059062002e18565b91906101000a81548163ffffffff021916908363ffffffff16021790555050600060038190555060005b8383905081101562000c5f576013600085858481811062000679577f4e487b7100000000000000000000000000000000000000000000000000000000600052603260045260246000fd5b90506020028101906200068d9190620027a2565b6040016020810190620006a1919062001fe5565b73ffffffffffffffffffffffffffffffffffffffff1673ffffffffffffffffffffffffffffffffffffffff16815260200190815260200160002060009054906101000a900460ff16620006f357600080fd5b8383828181106200072d577f4e487b7100000000000000000000000000000000000000000000000000000000600052603260045260246000fd5b9050602002810190620007419190620027a2565b6020013582620007529190620028cf565b91506000600760009054906101000a900463ffffffff16858584818110620007a3577f4e487b7100000000000000000000000000000000000000000000000000000000600052603260045260246000fd5b9050602002810190620007b79190620027a2565b6040016020810190620007cb919062001fe5565b604051602001620007de9291906200240c565b60405160208183030381529060405280519060200120905084848381811062000830577f4e487b7100000000000000000000000000000000000000000000000000000000600052603260045260246000fd5b9050602002810190620008449190620027a2565b6012600083815260200190815260200160002081816200086591906200325b565b9050506000600260009054906101000a900473ffffffffffffffffffffffffffffffffffffffff16868685818110620008c7577f4e487b7100000000000000000000000000000000000000000000000000000000600052603260045260246000fd5b9050602002810190620008db9190620027a2565b6080013587878681811062000919577f4e487b7100000000000000000000000000000000000000000000000000000000600052603260045260246000fd5b90506020028101906200092d9190620027a2565b604001602081019062000941919062001fe5565b6040516200094f9062001f00565b6200095d93929190620025b1565b604051809103906000f0801580156200097a573d6000803e3d6000fd5b509050806012600084815260200190815260200160002060030160006101000a81548173ffffffffffffffffffffffffffffffffffffffff021916908373ffffffffffffffffffffffffffffffffffffffff160217905550600160036000828254620009e79190620028cf565b92505081905550600080600160009054906101000a900473ffffffffffffffffffffffffffffffffffffffff1673ffffffffffffffffffffffffffffffffffffffff1688888781811062000a64577f4e487b7100000000000000000000000000000000000000000000000000000000600052603260045260246000fd5b905060200281019062000a789190620027a2565b60405160240162000a8a9190620026ea565b6040516020818303038152906040527ee0bbd6000000000000000000000000000000000000000000000000000000007bffffffffffffffffffffffffffffffffffffffffffffffffffffffff19166020820180517bffffffffffffffffffffffffffffffffffffffffffffffffffffffff838183161783525050505060405162000b159190620023f3565b6000604051808303816000865af19150503d806000811462000b54576040519150601f19603f3d011682016040523d82523d6000602084013e62000b59565b606091505b50915091508162000b6957600080fd5b87878681811062000ba3577f4e487b7100000000000000000000000000000000000000000000000000000000600052603260045260246000fd5b905060200281019062000bb79190620027a2565b604001602081019062000bcb919062001fe5565b600886600a811062000c06577f4e487b7100000000000000000000000000000000000000000000000000000000600052603260045260246000fd5b0160006101000a81548173ffffffffffffffffffffffffffffffffffffffff021916908373ffffffffffffffffffffffffffffffffffffffff16021790555050505050808062000c569062002dca565b9150506200062f565b506064811462000ca6576040517f08c379a000000000000000000000000000000000000000000000000000000000815260040162000c9d9062002684565b60405180910390fd5b7f0b6d6ffbef9e34206247fccb3ee5ac6346aea764c4dbdf8a8e4a39b4a6232e7a60405160405180910390a1505050565b60008054906101000a900473ffffffffffffffffffffffffffffffffffffffff1673ffffffffffffffffffffffffffffffffffffffff163373ffffffffffffffffffffffffffffffffffffffff161462000d3057600080fd5b60008060009054906101000a900473ffffffffffffffffffffffffffffffffffffffff1673ffffffffffffffffffffffffffffffffffffffff166108fc839081150290604051600060405180830381858888f1935050505090508062000dcd576040517f08c379a000000000000000000000000000000000000000000000000000000000815260040162000dc490620026c8565b60405180910390fd5b7f30112c78349a4e44c6aaf4caae9efa4a92a54a17c56db6f1c7a6787bf849f7cf8260405162000dfe91906200270e565b60405180910390a15050565b60008054906101000a900473ffffffffffffffffffffffffffffffffffffffff1673ffffffffffffffffffffffffffffffffffffffff163373ffffffffffffffffffffffffffffffffffffffff161462000e6357600080fd5b6000600260009054906101000a900473ffffffffffffffffffffffffffffffffffffffff1673ffffffffffffffffffffffffffffffffffffffff166370a08231306040518263ffffffff1660e01b815260040162000ec291906200243c565b60206040518083038186803b15801562000edb57600080fd5b505afa15801562000ef0573d6000803e3d6000fd5b505050506040513d601f19601f8201168201806040525081019062000f169190620020de565b90508082111562000f5e576040517f08c379a000000000000000000000000000000000000000000000000000000000815260040162000f559062002662565b60405180910390fd5b6000600260009054906101000a900473ffffffffffffffffffffffffffffffffffffffff1673ffffffffffffffffffffffffffffffffffffffff1663a9059cbb60008054906101000a900473ffffffffffffffffffffffffffffffffffffffff16856040518363ffffffff1660e01b815260040162000fdf929190620024b3565b602060405180830381600087803b15801562000ffa57600080fd5b505af11580156200100f573d6000803e3d6000fd5b505050506040513d601f19601f820116820180604052508101906200103591906200205a565b9050806200107a576040517f08c379a00000000000000000000000000000000000000000000000000000000081526004016200107190620026c8565b60405180910390fd5b82600660008282546200108e9190620029c5565b925050819055507fa1b70b2da8e7a04aca7f4ac1fb6eb27021e952fd8aa19f5d5b245b5f2bdb748783604051620010c691906200270e565b60405180910390a1505050565b60008054906101000a900473ffffffffffffffffffffffffffffffffffffffff1673ffffffffffffffffffffffffffffffffffffffff163373ffffffffffffffffffffffffffffffffffffffff16146200112c57600080fd5b6000600260009054906101000a900473ffffffffffffffffffffffffffffffffffffffff1673ffffffffffffffffffffffffffffffffffffffff166370a08231306040518263ffffffff1660e01b81526004016200118b91906200243c565b60206040518083038186803b158015620011a457600080fd5b505afa158015620011b9573d6000803e3d6000fd5b505050506040513d601f19601f82011682018060405250810190620011df9190620020de565b90506000600260009054906101000a900473ffffffffffffffffffffffffffffffffffffffff1673ffffffffffffffffffffffffffffffffffffffff1663a9059cbb60008054906101000a900473ffffffffffffffffffffffffffffffffffffffff16846040518363ffffffff1660e01b815260040162001262929190620024b3565b602060405180830381600087803b1580156200127d57600080fd5b505af115801562001292573d6000803e3d6000fd5b505050506040513d601f19601f82011682018060405250810190620012b891906200205a565b905080620012fd576040517f08c379a0000000000000000000000000000000000000000000000000000000008152600401620012f490620026c8565b60405180910390fd5b60008054906101000a900473ffffffffffffffffffffffffffffffffffffffff1673ffffffffffffffffffffffffffffffffffffffff16ff5b60055481565b60065481565b6000600760009054906101000a900463ffffffff16336040516020016200136b9291906200240c565b6040516020818303038152906040528051906020012090506000601260008381526020019081526020016000206001015411620013a757600080fd5b7f4f2513b5e936b68be23cb71b4fdcd6a014d2fa846affc4e2ac3caf4876da7da7336012600084815260200190815260200160002060010154604051620013f09291906200250d565b60405180910390a160006012600083815260200190815260200160002060030160009054906101000a900473ffffffffffffffffffffffffffffffffffffffff16905060008190506012600084815260200190815260200160002060050160009054906101000a900460ff1615620014f9577f28c0b4699f02b30aed7da1df0eec405d3ae698fc885158ff77a3db6662628e9560405160405180910390a18073ffffffffffffffffffffffffffffffffffffffff16633ccfd60b6040518163ffffffff1660e01b8152600401600060405180830381600087803b158015620014d757600080fd5b505af1158015620014ec573d6000803e3d6000fd5b505050505050506200179d565b426005546004546200150c9190620028cf565b106200151757600080fd5b6000601260008581526020019081526020016000206001015460646006546200154191906200292c565b6200154d919062002964565b90507f66494a70baf38d5e38c56e9f3a85f134cee1018b8246783591741f549746353983824760405162001584939291906200253a565b60405180910390a1600260009054906101000a900473ffffffffffffffffffffffffffffffffffffffff1673ffffffffffffffffffffffffffffffffffffffff1663095ea7b384836040518363ffffffff1660e01b8152600401620015eb9291906200250d565b602060405180830381600087803b1580156200160657600080fd5b505af11580156200161b573d6000803e3d6000fd5b505050506040513d601f19601f820116820180604052508101906200164191906200205a565b508173ffffffffffffffffffffffffffffffffffffffff1663743e0c9b826040518263ffffffff1660e01b81526004016200167d91906200270e565b600060405180830381600087803b1580156200169857600080fd5b505af1158015620016ad573d6000803e3d6000fd5b5050505060016012600086815260200190815260200160002060050160006101000a81548160ff0219169083151502179055508060066000828254620016f49190620029c5565b925050819055507f5ac9dfc3f57c826f2dec73a1c81f01956366fd1078a8fc9a2d0fe3bce84571db83826040516200172e9291906200250d565b60405180910390a18173ffffffffffffffffffffffffffffffffffffffff16633ccfd60b6040518163ffffffff1660e01b8152600401600060405180830381600087803b1580156200177f57600080fd5b505af115801562001794573d6000803e3d6000fd5b50505050505050505b565b6012602052806000526040600020600091509050806000018054620017c49062002d76565b80601f0160208091040260200160405190810160405280929190818152602001828054620017f29062002d76565b8015620018435780601f10620018175761010080835404028352916020019162001843565b820191906000526020600020905b8154815290600101906020018083116200182557829003601f168201915b5050505050908060010154908060020160009054906101000a900473ffffffffffffffffffffffffffffffffffffffff16908060030160009054906101000a900473ffffffffffffffffffffffffffffffffffffffff16908060040154908060050160009054906101000a900460ff16905086565b60008054906101000a900473ffffffffffffffffffffffffffffffffffffffff1673ffffffffffffffffffffffffffffffffffffffff163373ffffffffffffffffffffffffffffffffffffffff16146200191157600080fd5b8060058190555050565b600042600554600454620019309190620028cf565b10905090565b60035481565b60008060009054906101000a900473ffffffffffffffffffffffffffffffffffffffff1673ffffffffffffffffffffffffffffffffffffffff163373ffffffffffffffffffffffffffffffffffffffff16146200199857600080fd5b600454905090565b60008054906101000a900473ffffffffffffffffffffffffffffffffffffffff1673ffffffffffffffffffffffffffffffffffffffff163373ffffffffffffffffffffffffffffffffffffffff1614620019f957600080fd5b7f4d6ce1e535dbade1c23defba91e23b8f791ce5edc0cc320257a2b364e4e384263460405162001a2a91906200270e565b60405180910390a1565b600760009054906101000a900463ffffffff1681565b60008054906101000a900473ffffffffffffffffffffffffffffffffffffffff1673ffffffffffffffffffffffffffffffffffffffff163373ffffffffffffffffffffffffffffffffffffffff161462001aa357600080fd5b42600481905550565b60008054906101000a900473ffffffffffffffffffffffffffffffffffffffff1673ffffffffffffffffffffffffffffffffffffffff163373ffffffffffffffffffffffffffffffffffffffff161462001b0557600080fd5b6000600260009054906101000a900473ffffffffffffffffffffffffffffffffffffffff1673ffffffffffffffffffffffffffffffffffffffff166370a0823160008054906101000a900473ffffffffffffffffffffffffffffffffffffffff166040518263ffffffff1660e01b815260040162001b84919062002459565b60206040518083038186803b15801562001b9d57600080fd5b505afa15801562001bb2573d6000803e3d6000fd5b505050506040513d601f19601f8201168201806040525081019062001bd89190620020de565b90508082111562001c20576040517f08c379a000000000000000000000000000000000000000000000000000000000815260040162001c179062002662565b60405180910390fd5b6000600260009054906101000a900473ffffffffffffffffffffffffffffffffffffffff1673ffffffffffffffffffffffffffffffffffffffff166323b872dd60008054906101000a900473ffffffffffffffffffffffffffffffffffffffff1630866040518463ffffffff1660e01b815260040162001ca39392919062002476565b602060405180830381600087803b15801562001cbe57600080fd5b505af115801562001cd3573d6000803e3d6000fd5b505050506040513d601f19601f8201168201806040525081019062001cf991906200205a565b90508062001d3e576040517f08c379a000000000000000000000000000000000000000000000000000000000815260040162001d3590620026a6565b60405180910390fd5b826006600082825462001d529190620028cf565b925050819055507ff1b3be8dace0fecfbdb6fb0fa1cc014c612bcb1b46db027c1ece5fc11fff09d68360405162001d8a91906200270e565b60405180910390a1505050565b600080600760009054906101000a900463ffffffff163360405160200162001dc19291906200240c565b604051602081830303815290604052805190602001209050600060126000838152602001908152602001600020600101541191505090565b6001601360003373ffffffffffffffffffffffffffffffffffffffff1673ffffffffffffffffffffffffffffffffffffffff16815260200190815260200160002060006101000a81548160ff0219169083151502179055507fd7852850994579617e77cd65a3e665534f352cefb60af8fa1c892900176611a433601360003373ffffffffffffffffffffffffffffffffffffffff1673ffffffffffffffffffffffffffffffffffffffff16815260200190815260200160002060009054906101000a900460ff1660405162001ed0929190620024e0565b60405180910390a1565b600260009054906101000a900473ffffffffffffffffffffffffffffffffffffffff1681565b610ce0806200332d83390190565b60008135905062001f1f81620032bf565b92915050565b60008083601f84011262001f3857600080fd5b8235905067ffffffffffffffff81111562001f5257600080fd5b60208301915083602082028301111562001f6b57600080fd5b9250929050565b60008135905062001f8381620032d9565b92915050565b60008151905062001f9a81620032d9565b92915050565b60008135905062001fb181620032f3565b92915050565b60008135905062001fc8816200330d565b92915050565b60008151905062001fdf816200330d565b92915050565b60006020828403121562001ff857600080fd5b6000620020088482850162001f0e565b91505092915050565b600080602083850312156200202557600080fd5b600083013567ffffffffffffffff8111156200204057600080fd5b6200204e8582860162001f25565b92509250509250929050565b6000602082840312156200206d57600080fd5b60006200207d8482850162001f89565b91505092915050565b6000602082840312156200209957600080fd5b6000620020a98482850162001fa0565b91505092915050565b600060208284031215620020c557600080fd5b6000620020d58482850162001fb7565b91505092915050565b600060208284031215620020f157600080fd5b6000620021018482850162001fce565b91505092915050565b620021158162002a8b565b82525050565b620021268162002a00565b82525050565b620021378162002a00565b82525050565b620021526200214c8262002a00565b62002e4a565b82525050565b620021638162002a14565b82525050565b620021748162002a14565b82525050565b60006200218782620027dc565b620021938185620027fd565b9350620021a581856020860162002c5e565b80840191505092915050565b620021bc8162002ac7565b82525050565b6000620021d0838562002808565b9350620021df83858462002c4f565b620021ea8362002fc8565b840190509392505050565b60006200220282620027f2565b6200220e818562002819565b93506200222081856020860162002c5e565b6200222b8162002fc8565b840191505092915050565b60006200224560148362002819565b9150620022528262003036565b602082019050919050565b60006200226c60248362002819565b915062002279826200305f565b604082019050919050565b60006200229360158362002819565b9150620022a082620030ae565b602082019050919050565b6000620022ba60158362002819565b9150620022c782620030d7565b602082019050919050565b600060c08301620022e760008401846200285c565b8583036000870152620022fc838284620021c2565b925050506200230f6020840184620028b6565b6200231e6020860182620023a5565b506200232e60408401846200282a565b6200233d60408601826200211b565b506200234d60608401846200282a565b6200235c60608601826200211b565b506200236c6080840184620028b6565b6200237b6080860182620023a5565b506200238b60a084018462002843565b6200239a60a086018262002158565b508091505092915050565b620023b08162002a4a565b82525050565b620023c18162002a4a565b82525050565b620023d28162002a54565b82525050565b620023ed620023e78262002a54565b62002e72565b82525050565b60006200240182846200217a565b915081905092915050565b60006200241a8285620023d8565b6004820191506200242c82846200213d565b6014820191508190509392505050565b60006020820190506200245360008301846200212c565b92915050565b60006020820190506200247060008301846200210a565b92915050565b60006060820190506200248d60008301866200210a565b6200249c60208301856200212c565b620024ab6040830184620023b6565b949350505050565b6000604082019050620024ca60008301856200210a565b620024d96020830184620023b6565b9392505050565b6000604082019050620024f760008301856200212c565b62002506602083018462002169565b9392505050565b60006040820190506200252460008301856200212c565b620025336020830184620023b6565b9392505050565b60006060820190506200255160008301866200212c565b620025606020830185620023b6565b6200256f6040830184620023b6565b949350505050565b60006020820190506200258e600083018462002169565b92915050565b6000602082019050620025ab6000830184620021b1565b92915050565b6000606082019050620025c86000830186620021b1565b620025d76020830185620023b6565b620025e660408301846200212c565b949350505050565b600060c08201905081810360008301526200260a8189620021f5565b90506200261b6020830188620023b6565b6200262a60408301876200212c565b6200263960608301866200212c565b620026486080830185620023b6565b6200265760a083018462002169565b979650505050505050565b600060208201905081810360008301526200267d8162002236565b9050919050565b600060208201905081810360008301526200269f816200225d565b9050919050565b60006020820190508181036000830152620026c18162002284565b9050919050565b60006020820190508181036000830152620026e381620022ab565b9050919050565b60006020820190508181036000830152620027068184620022d2565b905092915050565b6000602082019050620027256000830184620023b6565b92915050565b6000602082019050620027426000830184620023c7565b92915050565b600080833560016020038436030381126200276257600080fd5b80840192508235915067ffffffffffffffff8211156200278157600080fd5b6020830192506001820236038313156200279a57600080fd5b509250929050565b60008235600160c003833603038112620027bb57600080fd5b80830191505092915050565b60008190508160005260206000209050919050565b600081519050919050565b600082905092915050565b600081519050919050565b600081905092915050565b600082825260208201905092915050565b600082825260208201905092915050565b60006200283b602084018462001f0e565b905092915050565b600062002854602084018462001f72565b905092915050565b600080833560016020038436030381126200287657600080fd5b83810192508235915060208301925067ffffffffffffffff8211156200289b57600080fd5b600182023603841315620028ae57600080fd5b509250929050565b6000620028c7602084018462001fb7565b905092915050565b6000620028dc8262002a4a565b9150620028e98362002a4a565b9250827fffffffffffffffffffffffffffffffffffffffffffffffffffffffffffffffff0382111562002921576200292062002ea6565b5b828201905092915050565b6000620029398262002a4a565b9150620029468362002a4a565b92508262002959576200295862002ed5565b5b828204905092915050565b6000620029718262002a4a565b91506200297e8362002a4a565b9250817fffffffffffffffffffffffffffffffffffffffffffffffffffffffffffffffff0483118215151615620029ba57620029b962002ea6565b5b828202905092915050565b6000620029d28262002a4a565b9150620029df8362002a4a565b925082821015620029f557620029f462002ea6565b5b828203905092915050565b600062002a0d8262002a2a565b9050919050565b60008115159050919050565b6000819050919050565b600073ffffffffffffffffffffffffffffffffffffffff82169050919050565b6000819050919050565b600063ffffffff82169050919050565b5b8181101562002a875762002a7b6000826200301a565b60018101905062002a65565b5050565b600062002a988262002aef565b9050919050565b600062002aac8262002aef565b9050919050565b600062002ac08262002a14565b9050919050565b600062002ad48262002adb565b9050919050565b600062002ae88262002a2a565b9050919050565b600062002afc8262002b03565b9050919050565b600062002b108262002a2a565b9050919050565b600062002b248262002a4a565b9050919050565b62002b378383620027e7565b67ffffffffffffffff81111562002b535762002b5262002f33565b5b62002b5f825462002d76565b600080601f8411601f8411171562002b7f5762002b7c85620027c7565b90505b601f83111562002bb6576020601f8501048101602085101562002ba0578190505b62002bb46020601f86010483018262002a64565b505b601f84116001811462002be8576000851562002bd3578388013590505b62002bdf868262002dac565b87555062002c45565b601f1985168260005b8281101562002c1857858a0135825560018201915060208601955060208101905062002bf1565b8783101562002c3857858a013562002c34601f8a168262002e86565b8355505b6001600289020189555050505b5050505050505050565b82818337600083830152505050565b60005b8381101562002c7e57808201518184015260208101905062002c61565b8381111562002c8e576000848401525b50505050565b600081016000830162002ca8818562002748565b62002cb581838662003249565b5050505060018101602083018062002ccd8162002fb0565b905062002cdb81846200326b565b50505060028101604083018062002cf28162002f80565b905062002d008184620031f7565b50505060038101606083018062002d178162002f80565b905062002d258184620031f7565b50505060048101608083018062002d3c8162002fb0565b905062002d4a81846200326b565b5050506005810160a083018062002d618162002f98565b905062002d6f818462003220565b5050505050565b6000600282049050600182168062002d8f57607f821691505b6020821081141562002da65762002da562002f04565b5b50919050565b600062002dba838362002e86565b9150826002028217905092915050565b600062002dd78262002a4a565b91507fffffffffffffffffffffffffffffffffffffffffffffffffffffffffffffffff82141562002e0d5762002e0c62002ea6565b5b600182019050919050565b600062002e258262002a54565b915063ffffffff82141562002e3f5762002e3e62002ea6565b5b600182019050919050565b600062002e578262002e5e565b9050919050565b600062002e6b8262002ff3565b9050919050565b600062002e7f8262002fe6565b9050919050565b600062002e99600019846008026200300d565b1980831691505092915050565b7f4e487b7100000000000000000000000000000000000000000000000000000000600052601160045260246000fd5b7f4e487b7100000000000000000000000000000000000000000000000000000000600052601260045260246000fd5b7f4e487b7100000000000000000000000000000000000000000000000000000000600052602260045260246000fd5b7f4e487b7100000000000000000000000000000000000000000000000000000000600052604160045260246000fd5b6000819050919050565b6000819050919050565b6000819050919050565b6000813562002f8f81620032bf565b80915050919050565b6000813562002fa781620032d9565b80915050919050565b6000813562002fbf816200330d565b80915050919050565b6000601f19601f8301169050919050565b60008160001b9050919050565b60008160e01b9050919050565b60008160601b9050919050565b600082821b905092915050565b600082821c905092915050565b6200302462003327565b6200303181848462003294565b505050565b7f496e73756666696369656e742062616c616e6365000000000000000000000000600082015250565b7f73756d206f66207368617265732073686f756c6420626520657175616c20746f60008201527f2031303000000000000000000000000000000000000000000000000000000000602082015250565b7f4661696c656420746f2073656e6420746f6b656e730000000000000000000000600082015250565b7f4661696c656420746f2073656e7420746f6b656e730000000000000000000000600082015250565b600060ff6200310f8462002fd9565b9350801983169250808416831791505092915050565b600073ffffffffffffffffffffffffffffffffffffffff620031478462002fd9565b9350801983169250808416831791505092915050565b60007fffffffffffffffffffffffffffffffffffffffffffffffffffffffffffffffff6200318b8462002fd9565b9350801983169250808416831791505092915050565b600060088302620031d37fffffffffffffffffffffffffffffffffffffffffffffffffffffffffffffffff8262003000565b620031df868362003000565b95508019841693508086168417925050509392505050565b620032028262002a9f565b62003219620032118262002f62565b835462003125565b8255505050565b6200322b8262002ab3565b620032426200323a8262002f6c565b835462003100565b8255505050565b6200325683838362002b2b565b505050565b62003267828262002c94565b5050565b620032768262002b17565b6200328d620032858262002f76565b83546200315d565b8255505050565b6200329f8362002b17565b620032b7620032ae8262002f76565b848454620031a1565b825550505050565b620032ca8162002a00565b8114620032d657600080fd5b50565b620032e48162002a14565b8114620032f057600080fd5b50565b620032fe8162002a20565b81146200330a57600080fd5b50565b620033188162002a4a565b81146200332457600080fd5b50565b60009056fe60806040523480156200001157600080fd5b5060405162000ce038038062000ce083398181016040528101906200003791906200015f565b33600260006101000a81548173ffffffffffffffffffffffffffffffffffffffff021916908373ffffffffffffffffffffffffffffffffffffffff16021790555081600081905550600060058190555080600360006101000a81548173ffffffffffffffffffffffffffffffffffffffff021916908373ffffffffffffffffffffffffffffffffffffffff160217905550600060018190555082600460006101000a81548173ffffffffffffffffffffffffffffffffffffffff021916908373ffffffffffffffffffffffffffffffffffffffff16021790555050505062000255565b6000815190506200012b8162000207565b92915050565b600081519050620001428162000221565b92915050565b60008151905062000159816200023b565b92915050565b6000806000606084860312156200017557600080fd5b6000620001858682870162000131565b9350506020620001988682870162000148565b9250506040620001ab868287016200011a565b9150509250925092565b6000620001c282620001dd565b9050919050565b6000620001d682620001b5565b9050919050565b600073ffffffffffffffffffffffffffffffffffffffff82169050919050565b6000819050919050565b6200021281620001b5565b81146200021e57600080fd5b50565b6200022c81620001c9565b81146200023857600080fd5b50565b6200024681620001fd565b81146200025257600080fd5b50565b610a7b80620002656000396000f3fe608060405234801561001057600080fd5b50600436106100575760003560e01c806334a014dc1461005c5780633ccfd60b1461007a578063743e0c9b14610084578063b69ef8a8146100a0578063b74126cc146100be575b600080fd5b6100646100dc565b6040516100719190610898565b60405180910390f35b6100826100e2565b005b61009e60048036038101906100999190610727565b6103d9565b005b6100a86106b3565b6040516100b59190610898565b60405180910390f35b6100c66106b9565b6040516100d39190610898565b60405180910390f35b60055481565b600260009054906101000a900473ffffffffffffffffffffffffffffffffffffffff1673ffffffffffffffffffffffffffffffffffffffff163373ffffffffffffffffffffffffffffffffffffffff161461013c57600080fd5b6000600460009054906101000a900473ffffffffffffffffffffffffffffffffffffffff1673ffffffffffffffffffffffffffffffffffffffff166370a08231306040518263ffffffff1660e01b815260040161019991906107dd565b60206040518083038186803b1580156101b157600080fd5b505afa1580156101c5573d6000803e3d6000fd5b505050506040513d601f19601f820116820180604052508101906101e99190610750565b9050600081116101f857600080fd5b62278d0060055461020991906108c4565b421161021457600080fd5b600081600054106102255781610229565b6000545b90506000600460009054906101000a900473ffffffffffffffffffffffffffffffffffffffff1673ffffffffffffffffffffffffffffffffffffffff1663a9059cbb600360009054906101000a900473ffffffffffffffffffffffffffffffffffffffff16846040518363ffffffff1660e01b81526004016102ac92919061082f565b602060405180830381600087803b1580156102c657600080fd5b505af11580156102da573d6000803e3d6000fd5b505050506040513d601f19601f820116820180604052508101906102fe91906106fe565b905080610340576040517f08c379a000000000000000000000000000000000000000000000000000000000815260040161033790610878565b60405180910390fd5b7f3bfe81dec3f91b4f148acb63cf0044cf5f14ec020bf957f38b377e854293ebe4600360009054906101000a900473ffffffffffffffffffffffffffffffffffffffff168360405161039392919061082f565b60405180910390a181600660008282546103ad91906108c4565b925050819055504260058190555081600160008282546103cd919061091a565b92505081905550505050565b600260009054906101000a900473ffffffffffffffffffffffffffffffffffffffff1673ffffffffffffffffffffffffffffffffffffffff163373ffffffffffffffffffffffffffffffffffffffff161461043357600080fd5b6000600460009054906101000a900473ffffffffffffffffffffffffffffffffffffffff1673ffffffffffffffffffffffffffffffffffffffff166370a08231600260009054906101000a900473ffffffffffffffffffffffffffffffffffffffff166040518263ffffffff1660e01b81526004016104b291906107dd565b60206040518083038186803b1580156104ca57600080fd5b505afa1580156104de573d6000803e3d6000fd5b505050506040513d601f19601f820116820180604052508101906105029190610750565b905080821115610547576040517f08c379a000000000000000000000000000000000000000000000000000000000815260040161053e90610858565b60405180910390fd5b6000600460009054906101000a900473ffffffffffffffffffffffffffffffffffffffff1673ffffffffffffffffffffffffffffffffffffffff166323b872dd600260009054906101000a900473ffffffffffffffffffffffffffffffffffffffff1630866040518463ffffffff1660e01b81526004016105ca939291906107f8565b602060405180830381600087803b1580156105e457600080fd5b505af11580156105f8573d6000803e3d6000fd5b505050506040513d601f19601f8201168201806040525081019061061c91906106fe565b90508061065e576040517f08c379a000000000000000000000000000000000000000000000000000000000815260040161065590610878565b60405180910390fd5b826001600082825461067091906108c4565b925050819055507fbcdc7071c1beb6dcf2744621e0b29a2f2432ee20812d9ca5e3d5e8f9308d93a3836040516106a69190610898565b60405180910390a1505050565b60015481565b60065481565b6000815190506106ce81610a17565b92915050565b6000813590506106e381610a2e565b92915050565b6000815190506106f881610a2e565b92915050565b60006020828403121561071057600080fd5b600061071e848285016106bf565b91505092915050565b60006020828403121561073957600080fd5b6000610747848285016106d4565b91505092915050565b60006020828403121561076257600080fd5b6000610770848285016106e9565b91505092915050565b6107828161094e565b82525050565b60006107956012836108b3565b91506107a0826109c5565b602082019050919050565b60006107b86015836108b3565b91506107c3826109ee565b602082019050919050565b6107d78161098c565b82525050565b60006020820190506107f26000830184610779565b92915050565b600060608201905061080d6000830186610779565b61081a6020830185610779565b61082760408301846107ce565b949350505050565b60006040820190506108446000830185610779565b61085160208301846107ce565b9392505050565b6000602082019050818103600083015261087181610788565b9050919050565b60006020820190508181036000830152610891816107ab565b9050919050565b60006020820190506108ad60008301846107ce565b92915050565b600082825260208201905092915050565b60006108cf8261098c565b91506108da8361098c565b9250827fffffffffffffffffffffffffffffffffffffffffffffffffffffffffffffffff0382111561090f5761090e610996565b5b828201905092915050565b60006109258261098c565b91506109308361098c565b92508282101561094357610942610996565b5b828203905092915050565b60006109598261096c565b9050919050565b60008115159050919050565b600073ffffffffffffffffffffffffffffffffffffffff82169050919050565b6000819050919050565b7f4e487b7100000000000000000000000000000000000000000000000000000000600052601160045260246000fd5b7f496e73756666696369656e742066756e64730000000000000000000000000000600082015250565b7f4661696c656420746f2073656e6420746f6b656e730000000000000000000000600082015250565b610a2081610960565b8114610a2b57600080fd5b50565b610a378161098c565b8114610a4257600080fd5b5056fea2646970667358221220a4f28f2a852dd983e397dc183bb2a83fba2e38f53debd8f152b352d4401838e164736f6c63430008040033a2646970667358221220b445c60bddd21daf16d7e7c1662055c257d8849ff35febae696ef82fffdb300b64736f6c63430008040033",
  "immutableReferences": {},
  "source": "// SPDX-License-Identifier: MIT\npragma solidity >=0.8.4 <0.9.0;\n\nimport \"@openzeppelin/contracts/token/ERC20/utils/SafeERC20.sol\";\nimport \"./Dispenser.sol\";\n\nstruct Successor {\n  string name;\n  uint256 share;\n  address wallet;\n  address dispenser;\n  uint256 maxPerMonth;\n  bool fundsBeenReleased;\n}\n\nstruct TestData {\n  string name;\n  uint256 number;\n}\n\ncontract Heritage {\n  address payable owner;\n  address parentFactory;\n  IERC20 public token;\n  uint public numberOfSuccessors;\n  uint lastPingTime;\n  uint public maxPeriodOfSilense;\n  uint public totalVolume;\n  uint32 public successorsListVersion;\n  address[10] public listOfSuccessors;\n  mapping(bytes32 => Successor) public successors;\n  mapping(address => bool) public potentialSuccessors;\n\n  event Deposit(uint amount);\n  event Withdrowal(uint amount);\n  event TokenDeposit(uint amount);\n  event TokenWithdrowal(uint amount);\n  event RegisterSuccessor(address successor, bool isRegistered);\n  event InvalidSuccessor(address successor);\n  event SetSuccessors();\n  event Destruction();\n  event SuccessorClaimingShare(address successor, uint share);\n  event ReleasingFunds(address dispenser, uint amount, uint balance);\n  event FundsTransfered(address successor, uint amount);\n  event DelegateCallToDispenser();\n\n  constructor(uint unlockTimeline, address tokenAddress, address creator, address parent) {\n    owner = payable(creator);\n    token = IERC20(tokenAddress);\n    numberOfSuccessors = 0;\n    successorsListVersion = 0;\n    lastPingTime = block.timestamp;\n    maxPeriodOfSilense = unlockTimeline;\n    parentFactory = parent;\n  }\n\n  modifier onlyOwner {\n    require(msg.sender == owner);\n    _;\n  }\n\n  function kill() public onlyOwner {\n    uint256 erc20balance = token.balanceOf(address(this));\n    bool sent = token.transfer(owner, erc20balance);\n    require(sent, \"Failed to sent tokens\");\n    selfdestruct(owner);\n    emit Destruction();\n  }\n\n  function deposit() public payable onlyOwner {\n    emit Deposit(msg.value);\n  }\n\n  function withdraw(uint amount) public onlyOwner {\n    bool sent = owner.send(amount);\n    require(sent, \"Failed to sent tokens\");\n    emit Withdrowal(amount);\n  }\n\n  function depositTokens(uint amount) public onlyOwner {\n    uint256 erc20balance = token.balanceOf(owner);\n    require(amount <= erc20balance, \"Insufficient balance\");\n    bool sent = token.transferFrom(owner, address(this), amount);\n    require(sent, \"Failed to send tokens\");\n    totalVolume += amount;\n    emit TokenDeposit(amount);\n  }\n\n  function withdrawTokens(uint amount) public onlyOwner {\n    uint256 erc20balance = token.balanceOf(address(this));\n    require(amount <= erc20balance, \"Insufficient balance\");\n    bool sent = token.transfer(owner, amount);\n    require(sent, \"Failed to sent tokens\");\n    totalVolume -= amount;\n    emit TokenWithdrowal(amount);\n  }\n\n  function updateMaxPeriodOfSilence(uint holdingPeriod) public onlyOwner {\n    maxPeriodOfSilense = holdingPeriod;\n  }\n\n\n  function setSuccessors(Successor[] calldata newSuccessors) public onlyOwner {\n    emit InvalidSuccessor(msg.sender);\n    uint total = 0;\n    successorsListVersion++;\n    numberOfSuccessors = 0;\n    for (uint i=0; i<newSuccessors.length; i++) {\n      require(potentialSuccessors[newSuccessors[i].wallet]);\n      total += newSuccessors[i].share;\n      bytes32 key = keccak256(abi.encodePacked(successorsListVersion, newSuccessors[i].wallet));\n      successors[key] = newSuccessors[i];\n      Dispenser dispenser = new Dispenser(token, newSuccessors[i].maxPerMonth, newSuccessors[i].wallet);\n      successors[key].dispenser = address(dispenser);\n      numberOfSuccessors += 1;\n\n      (bool success, bytes memory data) = parentFactory.call(\n        abi.encodeWithSignature(\"setSuccessor((string,uint256,address,address,uint256,bool))\", newSuccessors[i])\n      );\n      require(success);\n      listOfSuccessors[i] = newSuccessors[i].wallet;\n    }\n    require(total == 100, \"sum of shares should be equal to 100\");\n    emit SetSuccessors();\n  }\n\n  function checkIfImSuccessor() public view returns (bool){\n    bytes32 key = keccak256(abi.encodePacked(successorsListVersion, msg.sender));\n    return successors[key].share > 0;\n  }\n\n  function registerSuccessorApplicant() public {\n    potentialSuccessors[msg.sender] = true;\n    emit RegisterSuccessor(msg.sender, potentialSuccessors[msg.sender]);\n  }\n\n  function resetCountdownTimer() public onlyOwner {\n    lastPingTime = block.timestamp;\n  }\n\n  function getCountdownValue() public onlyOwner view returns (uint) {\n    return lastPingTime;\n  }\n\n  function isFundsReleaseAvailible() public view returns (bool) {\n    return (lastPingTime + maxPeriodOfSilense) < block.timestamp;\n  }\n\n  function claimHeritage() public {\n    bytes32 key = keccak256(abi.encodePacked(successorsListVersion, msg.sender));\n    require(successors[key].share > 0);\n    emit SuccessorClaimingShare(msg.sender, successors[key].share);\n    address dispenserAddress = successors[key].dispenser;\n    Dispenser dispenser = Dispenser(dispenserAddress);\n    if (successors[key].fundsBeenReleased) {\n      emit DelegateCallToDispenser();\n      dispenser.withdraw();\n      return;\n    }\n    require((lastPingTime + maxPeriodOfSilense) < block.timestamp);\n    uint amount = totalVolume / 100 * successors[key].share;\n    emit ReleasingFunds(dispenserAddress, amount, address(this).balance);\n    token.approve(dispenserAddress, amount);\n    dispenser.receiveTokens(amount);\n    successors[key].fundsBeenReleased = true;\n    totalVolume -= amount;\n    emit FundsTransfered(dispenserAddress, amount);\n    dispenser.withdraw();\n  }\n\n}\n",
  "sourcePath": "/Users/kovalas/Solidity/Legacy/contracts/Heritage.sol",
  "compiler": {
    "name": "solc",
    "version": "0.8.4+commit.c7e474f2.Emscripten.clang"
  },
  "schemaVersion": "3.4.9",
  "updatedAt": "2022-10-25T17:55:34.094Z",
  "networkType": "ethereum",
  "devdoc": {
    "kind": "dev",
    "methods": {},
    "version": 1
  },
  "userdoc": {
    "kind": "user",
    "methods": {},
    "version": 1
  }
}